Component: ARM Compiler 5.06 update 6 (build 750) Tool: armlink [4d35ed]

==============================================================================

Section Cross References

    mbed/TARGET_NUCLEO_F401RE/TOOLCHAIN_ARM_STD/analogin_api.o(i.analogin_read) refers to mbed/TARGET_NUCLEO_F401RE/TOOLCHAIN_ARM_STD/analogin_device.o(i.adc_read) for adc_read
    mbed/TARGET_NUCLEO_F401RE/TOOLCHAIN_ARM_STD/analogin_api.o(i.analogin_read_u16) refers to mbed/TARGET_NUCLEO_F401RE/TOOLCHAIN_ARM_STD/analogin_device.o(i.adc_read) for adc_read
    mbed/TARGET_NUCLEO_F401RE/TOOLCHAIN_ARM_STD/analogin_device.o(i.adc_read) refers to mbed/TARGET_NUCLEO_F401RE/TOOLCHAIN_ARM_STD/stm32f4xx_hal_adc.o(i.HAL_ADC_ConfigChannel) for HAL_ADC_ConfigChannel
    mbed/TARGET_NUCLEO_F401RE/TOOLCHAIN_ARM_STD/analogin_device.o(i.adc_read) refers to mbed/TARGET_NUCLEO_F401RE/TOOLCHAIN_ARM_STD/stm32f4xx_hal_adc.o(i.HAL_ADC_Start) for HAL_ADC_Start
    mbed/TARGET_NUCLEO_F401RE/TOOLCHAIN_ARM_STD/analogin_device.o(i.adc_read) refers to mbed/TARGET_NUCLEO_F401RE/TOOLCHAIN_ARM_STD/stm32f4xx_hal_adc.o(i.HAL_ADC_PollForConversion) for HAL_ADC_PollForConversion
    mbed/TARGET_NUCLEO_F401RE/TOOLCHAIN_ARM_STD/analogin_device.o(i.adc_read) refers to mbed/TARGET_NUCLEO_F401RE/TOOLCHAIN_ARM_STD/stm32f4xx_hal_adc.o(i.HAL_ADC_GetValue) for HAL_ADC_GetValue
    mbed/TARGET_NUCLEO_F401RE/TOOLCHAIN_ARM_STD/analogin_device.o(i.analogin_init) refers to mbed/TARGET_NUCLEO_F401RE/TOOLCHAIN_ARM_STD/mbed.ar(mbed_pinmap_common.o)(i.pinmap_peripheral) for pinmap_peripheral
    mbed/TARGET_NUCLEO_F401RE/TOOLCHAIN_ARM_STD/analogin_device.o(i.analogin_init) refers to mbed/TARGET_NUCLEO_F401RE/TOOLCHAIN_ARM_STD/mbed.ar(mbed_pinmap_common.o)(i.pinmap_function) for pinmap_function
    mbed/TARGET_NUCLEO_F401RE/TOOLCHAIN_ARM_STD/analogin_device.o(i.analogin_init) refers to mbed/TARGET_NUCLEO_F401RE/TOOLCHAIN_ARM_STD/mbed.ar(mbed_pinmap_common.o)(i.pinmap_pinout) for pinmap_pinout
    mbed/TARGET_NUCLEO_F401RE/TOOLCHAIN_ARM_STD/analogin_device.o(i.analogin_init) refers to mbed/TARGET_NUCLEO_F401RE/TOOLCHAIN_ARM_STD/stm32f4xx_hal_adc.o(i.HAL_ADC_Init) for HAL_ADC_Init
    mbed/TARGET_NUCLEO_F401RE/TOOLCHAIN_ARM_STD/analogin_device.o(i.analogin_init) refers to mbed/TARGET_NUCLEO_F401RE/TOOLCHAIN_ARM_STD/mbed.ar(mbed_error.o)(i.error) for error
    mbed/TARGET_NUCLEO_F401RE/TOOLCHAIN_ARM_STD/analogin_device.o(i.analogin_init) refers to mbed/TARGET_NUCLEO_F401RE/TOOLCHAIN_ARM_STD/mbed.ar(mbed_assert.o)(i.mbed_assert_internal) for mbed_assert_internal
    mbed/TARGET_NUCLEO_F401RE/TOOLCHAIN_ARM_STD/analogin_device.o(i.analogin_init) refers to mbed/TARGET_NUCLEO_F401RE/TOOLCHAIN_ARM_STD/PeripheralPins.o(.constdata) for PinMap_ADC
    mbed/TARGET_NUCLEO_F401RE/TOOLCHAIN_ARM_STD/analogin_device.o(i.analogin_init) refers to mbed/TARGET_NUCLEO_F401RE/TOOLCHAIN_ARM_STD/PeripheralPins.o(.constdata) for PinMap_ADC_Internal
    mbed/TARGET_NUCLEO_F401RE/TOOLCHAIN_ARM_STD/analogin_device.o(i.analogin_init) refers to mbed/TARGET_NUCLEO_F401RE/TOOLCHAIN_ARM_STD/analogin_device.o(.conststring) for .conststring
    mbed/TARGET_NUCLEO_F401RE/TOOLCHAIN_ARM_STD/except.o(.text) refers to mbed/TARGET_NUCLEO_F401RE/TOOLCHAIN_ARM_STD/mbed_fault_handler.o(i.mbed_fault_handler) for mbed_fault_handler
    mbed/TARGET_NUCLEO_F401RE/TOOLCHAIN_ARM_STD/except.o(.text) refers to mbed/TARGET_NUCLEO_F401RE/TOOLCHAIN_ARM_STD/mbed_fault_handler.o(.constdata) for mbed_fault_context
    mbed/TARGET_NUCLEO_F401RE/TOOLCHAIN_ARM_STD/flash_api.o(i.flash_erase_sector) refers to mbed/TARGET_NUCLEO_F401RE/TOOLCHAIN_ARM_STD/stm32f4xx_hal_flash.o(i.HAL_FLASH_Unlock) for HAL_FLASH_Unlock
==============================================================================

Removing Unused input sections from the image.

    Removing mbed/TARGET_NUCLEO_F401RE/TOOLCHAIN_ARM_STD/analogin_api.o(.rev16_text), (4 bytes).
    Removing mbed/TARGET_NUCLEO_F401RE/TOOLCHAIN_ARM_STD/analogin_api.o(.revsh_text), (4 bytes).
    Removing mbed/TARGET_NUCLEO_F401RE/TOOLCHAIN_ARM_STD/analogin_api.o(.rrx_text), (6 bytes).
    Removing mbed/TARGET_NUCLEO_F401RE/TOOLCHAIN_ARM_STD/analogin_api.o(i.analogin_read_u16), (22 bytes).
    Removing mbed/TARGET_NUCLEO_F401RE/TOOLCHAIN_ARM_STD/analogin_device.o(.rev16_text), (4 bytes).
    Removing mbed/TARGET_NUCLEO_F401RE/TOOLCHAIN_ARM_STD/analogin_device.o(.revsh_text), (4 bytes).
    Removing mbed/TARGET_NUCLEO_F401RE/TOOLCHAIN_ARM_STD/analogin_device.o(.rrx_text), (6 bytes).
    Removing mbed/TARGET_NUCLEO_F401RE/TOOLCHAIN_ARM_STD/analogout_api.o(.rev16_text), (4 bytes).
    Removing mbed/TARGET_NUCLEO_F401RE/TOOLCHAIN_ARM_STD/analogout_api.o(.revsh_text), (4 bytes).
    Removing mbed/TARGET_NUCLEO_F401RE/TOOLCHAIN_ARM_STD/analogout_api.o(.rrx_text), (6 bytes).
    Removing mbed/TARGET_NUCLEO_F401RE/TOOLCHAIN_ARM_STD/analogout_device.o(.rev16_text), (4 bytes).
    Removing mbed/TARGET_NUCLEO_F401RE/TOOLCHAIN_ARM_STD/analogout_device.o(.revsh_text), (4 bytes).
    Removing mbed/TARGET_NUCLEO_F401RE/TOOLCHAIN_ARM_STD/analogout_device.o(.rrx_text), (6 bytes).
    Removing mbed/TARGET_NUCLEO_F401RE/TOOLCHAIN_ARM_STD/can_api.o(.rev16_text), (4 bytes).
    Removing mbed/TARGET_NUCLEO_F401RE/TOOLCHAIN_ARM_STD/can_api.o(.revsh_text), (4 bytes).
    Removing mbed/TARGET_NUCLEO_F401RE/TOOLCHAIN_ARM_STD/can_api.o(.rrx_text), (6 bytes).
    Removing mbed/TARGET_NUCLEO_F401RE/TOOLCHAIN_ARM_STD/flash_api.o(.rev16_text), (4 bytes).
    Removing mbed/TARGET_NUCLEO_F401RE/TOOLCHAIN_ARM_STD/flash_api.o(.revsh_text), (4 bytes).
==============================================================================

Image Symbol Table

    Local Symbols

    Symbol Name                              Value     Ov Type        Size  Object(Section)

    ../../../edgfe/lib_src/arm_exceptions.c  0x00000000   Number         0  C:\Keil_v5\ARM\ARMCC\Bin\..\lib\cpplib\cpprt_w.l(arm_exceptions_support.o) ABSOLUTE
    ../../../edgfe/lib_src/arm_exceptions.c  0x00000000   Number         0  C:\Keil_v5\ARM\ARMCC\Bin\..\lib\cpplib\cpprt_w.l(arm_exceptions_terminate.o) ABSOLUTE
    ../../../edgfe/lib_src/arm_exceptions.c  0x00000000   Number         0  C:\Keil_v5\ARM\ARMCC\Bin\..\lib\cpplib\cpprt_w.l(arm_exceptions_globs.o) ABSOLUTE
    ../../../edgfe/lib_src/arm_exceptions.c  0x00000000   Number         0  C:\Keil_v5\ARM\ARMCC\Bin\..\lib\cpplib\cpprt_w.l(arm_exceptions_mem.o) ABSOLUTE
    ../../../edgfe/lib_src/arm_exceptions.c  0x00000000   Number         0  C:\Keil_v5\ARM\ARMCC\Bin\..\lib\cpplib\cpprt_w.l(arm_exceptions_callterm.o) ABSOLUTE
    ../../../edgfe/lib_src/arm_noexceptions.c 0x00000000   Number         0  C:\Keil_v5\ARM\ARMCC\Bin\..\lib\cpplib\cpprt_w.l(arm_begincatch_noexceptions.o) ABSOLUTE
    ../../../edgfe/lib_src/pure_virt.c       0x00000000   Number         0  C:\Keil_v5\ARM\ARMCC\Bin\..\lib\cpplib\cpprt_w.l(pure_virt.o) ABSOLUTE
    ../../../edgfe/lib_src/typeinfo.c        0x00000000   Number         0  C:\Keil_v5\ARM\ARMCC\Bin\..\lib\cpplib\cpprt_w.l(type_info_dtor.o) ABSOLUTE
    ../../../edgfe/lib_src/typeinfo.c        0x00000000   Number         0  C:\Keil_v5\ARM\ARMCC\Bin\..\lib\cpplib\cpprt_w.l(lib_rtti_impl.o) ABSOLUTE
    ../clib/angel/boardlib.s                 0x00000000   Number         0  C:\Keil_v5\ARM\ARMCC\Bin\..\lib\armlib\c_w.l(boardinit1.o) ABSOLUTE
    ../clib/angel/boardlib.s                 0x00000000   Number         0  C:\Keil_v5\ARM\ARMCC\Bin\..\lib\armlib\c_w.l(boardinit3.o) ABSOLUTE
    ../clib/angel/handlers.s                 0x00000000   Number         0  C:\Keil_v5\ARM\ARMCC\Bin\..\lib\armlib\c_w.l(__scatter_zi.o) ABSOLUTE
    ../clib/angel/handlers.s                 0x00000000   Number         0  C:\Keil_v5\ARM\ARMCC\Bin\..\lib\armlib\c_w.l(__scatter_copy.o) ABSOLUTE
    ../clib/angel/kernel.s                   0x00000000   Number         0  C:\Keil_v5\ARM\ARMCC\Bin\..\lib\armlib\c_w.l(__rtentry4.o) ABSOLUTE
    ../clib/angel/kernel.s                   0x00000000   Number         0  C:\Keil_v5\ARM\ARMCC\Bin\..\lib\armlib\c_w.l(__rtentry2.o) ABSOLUTE
    ../clib/angel/kernel.s                   0x00000000   Number         0  C:\Keil_v5\ARM\ARMCC\Bin\..\lib\armlib\c_w.l(__rtentry.o) ABSOLUTE
    ../clib/angel/rt.s                       0x00000000   Number         0  C:\Keil_v5\ARM\ARMCC\Bin\..\lib\armlib\c_w.l(rt_raise.o) ABSOLUTE
    ../clib/angel/rt.s                       0x00000000   Number         0  C:\Keil_v5\ARM\ARMCC\Bin\..\lib\armlib\c_w.l(rt_div0.o) ABSOLUTE
    ../clib/angel/rt.s                       0x00000000   Number         0  C:\Keil_v5\ARM\ARMCC\Bin\..\lib\armlib\c_w.l(aeabi_ldiv0.o) ABSOLUTE
    ../clib/angel/rt.s                       0x00000000   Number         0  C:\Keil_v5\ARM\ARMCC\Bin\..\lib\armlib\c_w.l(aeabi_ldiv0_sigfpe.o) ABSOLUTE
    ../clib/angel/rt.s                       0x00000000   Number         0  C:\Keil_v5\ARM\ARMCC\Bin\..\lib\armlib\c_w.l(rt_errno_addr_intlibspace.o) ABSOLUTE
    ../clib/angel/rt.s                       0x00000000   Number         0  C:\Keil_v5\ARM\ARMCC\Bin\..\lib\armlib\c_w.l(rt_heap_descriptor.o) ABSOLUTE
    ../clib/angel/rt.s                       0x00000000   Number         0  C:\Keil_v5\ARM\ARMCC\Bin\..\lib\armlib\c_w.l(rt_heap_descriptor_intlibspace.o) ABSOLUTE
    ../clib/angel/rt.s                       0x00000000   Number         0  C:\Keil_v5\ARM\ARMCC\Bin\..\lib\armlib\c_w.l(rt_errno_addr.o) ABSOLUTE
    ../clib/angel/rt.s                       0x00000000   Number         0  C:\Keil_v5\ARM\ARMCC\Bin\..\lib\armlib\c_w.l(rt_ctype_table.o) ABSOLUTE
    ../clib/angel/rt.s                       0x00000000   Number         0  C:\Keil_v5\ARM\ARMCC\Bin\..\lib\armlib\c_w.l(rt_locale.o) ABSOLUTE
    ../clib/angel/rt.s                       0x00000000   Number         0  C:\Keil_v5\ARM\ARMCC\Bin\..\lib\armlib\c_w.l(rt_locale_intlibspace.o) ABSOLUTE
    ../clib/angel/rt.s                       0x00000000   Number         0  C:\Keil_v5\ARM\ARMCC\Bin\..\lib\armlib\c_w.l(rt_eh_globals_addr.o) ABSOLUTE
    ../clib/angel/rt.s                       0x00000000   Number         0  C:\Keil_v5\ARM\ARMCC\Bin\..\lib\armlib\c_w.l(rt_eh_globals_addr_intlibspace.o) ABSOLUTE
    ../clib/angel/scatter.s                  0x00000000   Number         0  C:\Keil_v5\ARM\ARMCC\Bin\..\lib\armlib\c_w.l(__scatter.o) ABSOLUTE
    ../clib/angel/startup.s                  0x00000000   Number         0  C:\Keil_v5\ARM\ARMCC\Bin\..\lib\armlib\c_w.l(__main.o) ABSOLUTE
    ../clib/angel/sys.s                      0x00000000   Number         0  C:\Keil_v5\ARM\ARMCC\Bin\..\lib\armlib\c_w.l(libspace.o) ABSOLUTE
    ../clib/angel/sys.s                      0x00000000   Number         0  C:\Keil_v5\ARM\ARMCC\Bin\..\lib\armlib\c_w.l(mutex_dummy.o) ABSOLUTE
    ../clib/angel/sys.s                      0x00000000   Number         0  C:\Keil_v5\ARM\ARMCC\Bin\..\lib\armlib\c_w.l(indicate_semi.o) ABSOLUTE
    ../clib/angel/sys.s                      0x00000000   Number         0  C:\Keil_v5\ARM\ARMCC\Bin\..\lib\armlib\c_w.l(use_no_semi.o) ABSOLUTE
    ../clib/angel/sysapp.c                   0x00000000   Number         0  C:\Keil_v5\ARM\ARMCC\Bin\..\lib\armlib\c_w.l(sys_exit.o) ABSOLUTE
    ../clib/angel/sysapp.c                   0x00000000   Number         0  C:\Keil_v5\ARM\ARMCC\Bin\..\lib\armlib\c_w.l(sys_wrch.o) ABSOLUTE
    ../clib/arm_runtime.c                    0x00000000   Number         0  C:\Keil_v5\ARM\ARMCC\Bin\..\lib\armlib\c_w.l(init_aeabi.o) ABSOLUTE
    ../clib/arm_runtime.c                    0x00000000   Number         0  C:\Keil_v5\ARM\ARMCC\Bin\..\lib\armlib\c_w.l(init_aeabi.o) ABSOLUTE
    ../clib/armsys.c                         0x00000000   Number         0  C:\Keil_v5\ARM\ARMCC\Bin\..\lib\armlib\c_w.l(argv_veneer.o) ABSOLUTE
    ../clib/armsys.c                         0x00000000   Number         0  C:\Keil_v5\ARM\ARMCC\Bin\..\lib\armlib\c_w.l(argv_veneer.o) ABSOLUTE
    ../clib/armsys.c                         0x00000000   Number         0  C:\Keil_v5\ARM\ARMCC\Bin\..\lib\armlib\c_w.l(no_argv.o) ABSOLUTE
    ../clib/armsys.c                         0x00000000   Number         0  C:\Keil_v5\ARM\ARMCC\Bin\..\lib\armlib\c_w.l(_get_argv.o) ABSOLUTE
    ../clib/armsys.c                         0x00000000   Number         0  C:\Keil_v5\ARM\ARMCC\Bin\..\lib\armlib\c_w.l(_get_argv_nomalloc.o) ABSOLUTE
    ../clib/assert.c                         0x00000000   Number         0  C:\Keil_v5\ARM\ARMCC\Bin\..\lib\armlib\c_w.l(assert_stdio.o) ABSOLUTE
    ../clib/bigflt.c                         0x00000000   Number         0  C:\Keil_v5\ARM\ARMCC\Bin\..\lib\armlib\c_w.l(bigflt0.o) ABSOLUTE
    ../clib/btod.s                           0x00000000   Number         0  C:\Keil_v5\ARM\ARMCC\Bin\..\lib\armlib\c_w.l(btod.o) ABSOLUTE
    ../clib/heap1.c                          0x00000000   Number         0  C:\Keil_v5\ARM\ARMCC\Bin\..\lib\armlib\c_w.l(h1_free_mt.o) ABSOLUTE
    ../clib/heap1.c                          0x00000000   Number         0  C:\Keil_v5\ARM\ARMCC\Bin\..\lib\armlib\c_w.l(h1_alloc_mt.o) ABSOLUTE
    ../clib/heap1.c                          0x00000000   Number         0  C:\Keil_v5\ARM\ARMCC\Bin\..\lib\armlib\c_w.l(h1_free.o) ABSOLUTE
    ../clib/heap1.c                          0x00000000   Number         0  C:\Keil_v5\ARM\ARMCC\Bin\..\lib\armlib\c_w.l(h1_alloc.o) ABSOLUTE
    ../clib/heap1.c                          0x00000000   Number         0  C:\Keil_v5\ARM\ARMCC\Bin\..\lib\armlib\c_w.l(h1_extend_mt.o) ABSOLUTE
    ../clib/heap1.c                          0x00000000   Number         0  C:\Keil_v5\ARM\ARMCC\Bin\..\lib\armlib\c_w.l(h1_extend.o) ABSOLUTE
    ../clib/heap1.c                          0x00000000   Number         0  C:\Keil_v5\ARM\ARMCC\Bin\..\lib\armlib\c_w.l(h1_final_mt.o) ABSOLUTE
    ../clib/heap1.c                          0x00000000   Number         0  C:\Keil_v5\ARM\ARMCC\Bin\..\lib\armlib\c_w.l(h1_init.o) ABSOLUTE
    ../clib/heap1.c                          0x00000000   Number         0  C:\Keil_v5\ARM\ARMCC\Bin\..\lib\armlib\c_w.l(h1_init_mt.o) ABSOLUTE
    ../clib/heap1.c                          0x00000000   Number         0  C:\Keil_v5\ARM\ARMCC\Bin\..\lib\armlib\c_w.l(h1_final.o) ABSOLUTE
    ../clib/heap2.c                          0x00000000   Number         0  C:\Keil_v5\ARM\ARMCC\Bin\..\lib\armlib\c_w.l(fdtree.o) ABSOLUTE
    ../clib/heap2.c                          0x00000000   Number         0  C:\Keil_v5\ARM\ARMCC\Bin\..\lib\armlib\c_w.l(heap2.o) ABSOLUTE
    ../clib/heap2.c                          0x00000000   Number         0  C:\Keil_v5\ARM\ARMCC\Bin\..\lib\armlib\c_w.l(heap2mt.o) ABSOLUTE
    ../clib/heapalloc.c                      0x00000000   Number         0  C:\Keil_v5\ARM\ARMCC\Bin\..\lib\armlib\c_w.l(free.o) ABSOLUTE
    ../clib/heapalloc.c                      0x00000000   Number         0  C:\Keil_v5\ARM\ARMCC\Bin\..\lib\armlib\c_w.l(hguard.o) ABSOLUTE
    ../clib/heapalloc.c                      0x00000000   Number         0  C:\Keil_v5\ARM\ARMCC\Bin\..\lib\armlib\c_w.l(init_alloc.o) ABSOLUTE
    ../clib/heapalloc.c                      0x00000000   Number         0  C:\Keil_v5\ARM\ARMCC\Bin\..\lib\armlib\c_w.l(maybetermalloc1.o) ABSOLUTE
    ../clib/heapalloc.c                      0x00000000   Number         0  C:\Keil_v5\ARM\ARMCC\Bin\..\lib\armlib\c_w.l(malloc.o) ABSOLUTE
    ../clib/heapalloc.c                      0x00000000   Number         0  C:\Keil_v5\ARM\ARMCC\Bin\..\lib\armlib\c_w.l(maybetermalloc1.o) ABSOLUTE
    ../clib/heapalloc.c                      0x00000000   Number         0  C:\Keil_v5\ARM\ARMCC\Bin\..\lib\armlib\c_w.l(term_alloc.o) ABSOLUTE
    ../clib/heapalloc.c                      0x00000000   Number         0  C:\Keil_v5\ARM\ARMCC\Bin\..\lib\armlib\c_w.l(hrguard.o) ABSOLUTE
    ../clib/heapalloc.c                      0x00000000   Number         0  C:\Keil_v5\ARM\ARMCC\Bin\..\lib\armlib\c_w.l(heapstubs.o) ABSOLUTE
    ../clib/heapalloc.c                      0x00000000   Number         0  C:\Keil_v5\ARM\ARMCC\Bin\..\lib\armlib\c_w.l(maybetermalloc2.o) ABSOLUTE
    ../clib/heapalloc.c                      0x00000000   Number         0  C:\Keil_v5\ARM\ARMCC\Bin\..\lib\armlib\c_w.l(maybetermalloc2.o) ABSOLUTE
    ../clib/heapaux.c                        0x00000000   Number         0  C:\Keil_v5\ARM\ARMCC\Bin\..\lib\armlib\c_w.l(heapauxa.o) ABSOLUTE
    ../clib/heapaux.c                        0x00000000   Number         0  C:\Keil_v5\ARM\ARMCC\Bin\..\lib\armlib\c_w.l(heapauxi.o) ABSOLUTE
    ../clib/libinit.s                        0x00000000   Number         0  C:\Keil_v5\ARM\ARMCC\Bin\..\lib\armlib\c_w.l(libinit.o) ABSOLUTE
    ../clib/libinit.s                        0x00000000   Number         0  C:\Keil_v5\ARM\ARMCC\Bin\..\lib\armlib\c_w.l(libshutdown2.o) ABSOLUTE
    ../clib/libinit.s                        0x00000000   Number         0  C:\Keil_v5\ARM\ARMCC\Bin\..\lib\armlib\c_w.l(libinit2.o) ABSOLUTE
    ../clib/locale.c                         0x00000000   Number         0  C:\Keil_v5\ARM\ARMCC\Bin\..\lib\armlib\c_w.l(_wcrtomb.o) ABSOLUTE
    ../clib/locale.s                         0x00000000   Number         0  C:\Keil_v5\ARM\ARMCC\Bin\..\lib\armlib\c_w.l(lc_ctype_c.o) ABSOLUTE
    ../clib/locale.s                         0x00000000   Number         0  C:\Keil_v5\ARM\ARMCC\Bin\..\lib\armlib\c_w.l(lc_numeric_c.o) ABSOLUTE
    ../clib/longlong.s                       0x00000000   Number         0  C:\Keil_v5\ARM\ARMCC\Bin\..\lib\armlib\c_w.l(lludivv7m.o) ABSOLUTE
    ../clib/longlong.s                       0x00000000   Number         0  C:\Keil_v5\ARM\ARMCC\Bin\..\lib\armlib\c_w.l(llshl.o) ABSOLUTE
    ../clib/longlong.s                       0x00000000   Number         0  C:\Keil_v5\ARM\ARMCC\Bin\..\lib\armlib\c_w.l(llushr.o) ABSOLUTE
    ../clib/longlong.s                       0x00000000   Number         0  C:\Keil_v5\ARM\ARMCC\Bin\..\lib\armlib\c_w.l(lludiv10.o) ABSOLUTE
    ../clib/memcpset.s                       0x00000000   Number         0  C:\Keil_v5\ARM\ARMCC\Bin\..\lib\armlib\c_w.l(rt_memcpy_v6.o) ABSOLUTE
    ../clib/memcpset.s                       0x00000000   Number         0  C:\Keil_v5\ARM\ARMCC\Bin\..\lib\armlib\c_w.l(rt_memcpy_w.o) ABSOLUTE
    ../clib/memcpset.s                       0x00000000   Number         0  C:\Keil_v5\ARM\ARMCC\Bin\..\lib\armlib\c_w.l(aeabi_memset.o) ABSOLUTE
    ../clib/memcpset.s                       0x00000000   Number         0  C:\Keil_v5\ARM\ARMCC\Bin\..\lib\armlib\c_w.l(rt_memclr_w.o) ABSOLUTE
    ../clib/memcpset.s                       0x00000000   Number         0  C:\Keil_v5\ARM\ARMCC\Bin\..\lib\armlib\c_w.l(strcmpv7m.o) ABSOLUTE
    ../clib/memcpset.s                       0x00000000   Number         0  C:\Keil_v5\ARM\ARMCC\Bin\..\lib\armlib\c_w.l(rt_memclr.o) ABSOLUTE
    ../clib/misc.s                           0x00000000   Number         0  C:\Keil_v5\ARM\ARMCC\Bin\..\lib\armlib\c_w.l(printf_stubs.o) ABSOLUTE
    ../clib/printf.c                         0x00000000   Number         0  C:\Keil_v5\ARM\ARMCC\Bin\..\lib\armlib\c_w.l(__printf_ss_wp.o) ABSOLUTE
    ../clib/printf.c                         0x00000000   Number         0  C:\Keil_v5\ARM\ARMCC\Bin\..\lib\armlib\c_w.l(_printf_char_file_locked.o) ABSOLUTE
    ../clib/printf.c                         0x00000000   Number         0  C:\Keil_v5\ARM\ARMCC\Bin\..\lib\armlib\c_w.l(_printf_truncate.o) ABSOLUTE
    ../clib/printf.c                         0x00000000   Number         0  C:\Keil_v5\ARM\ARMCC\Bin\..\lib\armlib\c_w.l(_printf_fp_infnan.o) ABSOLUTE
    ../clib/printf.c                         0x00000000   Number         0  C:\Keil_v5\ARM\ARMCC\Bin\..\lib\armlib\c_w.l(__printf.o) ABSOLUTE
    ../clib/printf.c                         0x00000000   Number         0  C:\Keil_v5\ARM\ARMCC\Bin\..\lib\armlib\c_w.l(_printf_pad.o) ABSOLUTE
    ../clib/printf.c                         0x00000000   Number         0  C:\Keil_v5\ARM\ARMCC\Bin\..\lib\armlib\c_w.l(_printf_str.o) ABSOLUTE
    ../clib/printf.c                         0x00000000   Number         0  C:\Keil_v5\ARM\ARMCC\Bin\..\lib\armlib\c_w.l(vfprintf.o) ABSOLUTE
    ../clib/printf.c                         0x00000000   Number         0  C:\Keil_v5\ARM\ARMCC\Bin\..\lib\armlib\c_w.l(_printf_dec.o) ABSOLUTE
    ../clib/printf.c                         0x00000000   Number         0  C:\Keil_v5\ARM\ARMCC\Bin\..\lib\armlib\c_w.l(_printf_charcount.o) ABSOLUTE
    ../clib/printf.c                         0x00000000   Number         0  C:\Keil_v5\ARM\ARMCC\Bin\..\lib\armlib\c_w.l(_printf_char_common.o) ABSOLUTE
    ../clib/printf.c                         0x00000000   Number         0  C:\Keil_v5\ARM\ARMCC\Bin\..\lib\armlib\c_w.l(_sputc.o) ABSOLUTE
    ../clib/printf.c                         0x00000000   Number         0  C:\Keil_v5\ARM\ARMCC\Bin\..\lib\armlib\c_w.l(_snputc.o) ABSOLUTE
    ../clib/printf.c                         0x00000000   Number         0  C:\Keil_v5\ARM\ARMCC\Bin\..\lib\armlib\c_w.l(_printf_char_file.o) ABSOLUTE
    ../clib/printf.c                         0x00000000   Number         0  C:\Keil_v5\ARM\ARMCC\Bin\..\lib\armlib\c_w.l(_printf_wctomb.o) ABSOLUTE
    ../clib/printf.c                         0x00000000   Number         0  C:\Keil_v5\ARM\ARMCC\Bin\..\lib\armlib\c_w.l(_printf_longlong_dec.o) ABSOLUTE
    ../clib/printf.c                         0x00000000   Number         0  C:\Keil_v5\ARM\ARMCC\Bin\..\lib\armlib\c_w.l(_printf_oct_ll.o) ABSOLUTE
    ../clib/printf.c                         0x00000000   Number         0  C:\Keil_v5\ARM\ARMCC\Bin\..\lib\armlib\c_w.l(_printf_oct_int.o) ABSOLUTE
    ../clib/printf.c                         0x00000000   Number         0  C:\Keil_v5\ARM\ARMCC\Bin\..\lib\armlib\c_w.l(_printf_oct_int_ll.o) ABSOLUTE
    ../clib/printf.c                         0x00000000   Number         0  C:\Keil_v5\ARM\ARMCC\Bin\..\lib\armlib\c_w.l(_printf_hex_ll.o) ABSOLUTE
    ../clib/printf.c                         0x00000000   Number         0  C:\Keil_v5\ARM\ARMCC\Bin\..\lib\armlib\c_w.l(_printf_hex_int.o) ABSOLUTE
    ../clib/printf.c                         0x00000000   Number         0  C:\Keil_v5\ARM\ARMCC\Bin\..\lib\armlib\c_w.l(_printf_hex_int_ll.o) ABSOLUTE
    ../clib/printf.c                         0x00000000   Number         0  C:\Keil_v5\ARM\ARMCC\Bin\..\lib\armlib\c_w.l(_printf_wchar.o) ABSOLUTE
    ../clib/printf.c                         0x00000000   Number         0  C:\Keil_v5\ARM\ARMCC\Bin\..\lib\armlib\c_w.l(_printf_hex_ptr.o) ABSOLUTE
    ../clib/printf.c                         0x00000000   Number         0  C:\Keil_v5\ARM\ARMCC\Bin\..\lib\armlib\c_w.l(vsnprintf.o) ABSOLUTE
    ../clib/printf.c                         0x00000000   Number         0  C:\Keil_v5\ARM\ARMCC\Bin\..\lib\armlib\c_w.l(_printf_char.o) ABSOLUTE
    ../clib/printf.c                         0x00000000   Number         0  C:\Keil_v5\ARM\ARMCC\Bin\..\lib\armlib\c_w.l(__printf_nopercent.o) ABSOLUTE
    ../clib/printf.c                         0x00000000   Number         0  C:\Keil_v5\ARM\ARMCC\Bin\..\lib\armlib\c_w.l(_printf_fp_hex.o) ABSOLUTE
    ../clib/printf.c                         0x00000000   Number         0  C:\Keil_v5\ARM\ARMCC\Bin\..\lib\armlib\c_w.l(_printf_fp_dec.o) ABSOLUTE
    ../clib/printf.c                         0x00000000   Number         0  C:\Keil_v5\ARM\ARMCC\Bin\..\lib\armlib\c_w.l(_printf_intcommon.o) ABSOLUTE
    ../clib/printf.c                         0x00000000   Number         0  C:\Keil_v5\ARM\ARMCC\Bin\..\lib\armlib\c_w.l(_printf_hex_int_ptr.o) ABSOLUTE
    ../clib/printf.c                         0x00000000   Number         0  C:\Keil_v5\ARM\ARMCC\Bin\..\lib\armlib\c_w.l(_printf_hex_ll_ptr.o) ABSOLUTE
    ../clib/printf.c                         0x00000000   Number         0  C:\Keil_v5\ARM\ARMCC\Bin\..\lib\armlib\c_w.l(_printf_hex_int_ll_ptr.o) ABSOLUTE
    ../clib/printf.c                         0x00000000   Number         0  C:\Keil_v5\ARM\ARMCC\Bin\..\lib\armlib\c_w.l(__printf_flags.o) ABSOLUTE
    ../clib/printf.c                         0x00000000   Number         0  C:\Keil_v5\ARM\ARMCC\Bin\..\lib\armlib\c_w.l(__printf_ss.o) ABSOLUTE
    ../clib/printf.c                         0x00000000   Number         0  C:\Keil_v5\ARM\ARMCC\Bin\..\lib\armlib\c_w.l(__printf_flags_ss.o) ABSOLUTE
    ../clib/printf.c                         0x00000000   Number         0  C:\Keil_v5\ARM\ARMCC\Bin\..\lib\armlib\c_w.l(__printf_wp.o) ABSOLUTE
    ../clib/printf.c                         0x00000000   Number         0  C:\Keil_v5\ARM\ARMCC\Bin\..\lib\armlib\c_w.l(__printf_flags_wp.o) ABSOLUTE
    ../clib/printf.c                         0x00000000   Number         0  C:\Keil_v5\ARM\ARMCC\Bin\..\lib\armlib\c_w.l(__printf_flags_ss_wp.o) ABSOLUTE
    ../clib/printf_percent.s                 0x00000000   Number         0  C:\Keil_v5\ARM\ARMCC\Bin\..\lib\armlib\c_w.l(_printf_percent.o) ABSOLUTE
    ../clib/printf_percent.s                 0x00000000   Number         0  C:\Keil_v5\ARM\ARMCC\Bin\..\lib\armlib\c_w.l(_printf_d.o) ABSOLUTE
    ../clib/printf_percent.s                 0x00000000   Number         0  C:\Keil_v5\ARM\ARMCC\Bin\..\lib\armlib\c_w.l(_printf_lld.o) ABSOLUTE
    ../clib/printf_percent.s                 0x00000000   Number         0  C:\Keil_v5\ARM\ARMCC\Bin\..\lib\armlib\c_w.l(_printf_n.o) ABSOLUTE
    ../clib/printf_percent.s                 0x00000000   Number         0  C:\Keil_v5\ARM\ARMCC\Bin\..\lib\armlib\c_w.l(_printf_a.o) ABSOLUTE
    ../clib/printf_percent.s                 0x00000000   Number         0  C:\Keil_v5\ARM\ARMCC\Bin\..\lib\armlib\c_w.l(_printf_percent_end.o) ABSOLUTE
    ../clib/printf_percent.s                 0x00000000   Number         0  C:\Keil_v5\ARM\ARMCC\Bin\..\lib\armlib\c_w.l(_printf_llu.o) ABSOLUTE
    ../clib/printf_percent.s                 0x00000000   Number         0  C:\Keil_v5\ARM\ARMCC\Bin\..\lib\armlib\c_w.l(_printf_g.o) ABSOLUTE
    ../clib/printf_percent.s                 0x00000000   Number         0  C:\Keil_v5\ARM\ARMCC\Bin\..\lib\armlib\c_w.l(_printf_s.o) ABSOLUTE
    ../clib/printf_percent.s                 0x00000000   Number         0  C:\Keil_v5\ARM\ARMCC\Bin\..\lib\armlib\c_w.l(_printf_e.o) ABSOLUTE
    ../clib/printf_percent.s                 0x00000000   Number         0  C:\Keil_v5\ARM\ARMCC\Bin\..\lib\armlib\c_w.l(_printf_c.o) ABSOLUTE
    ../clib/printf_percent.s                 0x00000000   Number         0  C:\Keil_v5\ARM\ARMCC\Bin\..\lib\armlib\c_w.l(_printf_lli.o) ABSOLUTE
    ../clib/printf_percent.s                 0x00000000   Number         0  C:\Keil_v5\ARM\ARMCC\Bin\..\lib\armlib\c_w.l(_printf_f.o) ABSOLUTE
    ../clib/printf_percent.s                 0x00000000   Number         0  C:\Keil_v5\ARM\ARMCC\Bin\..\lib\armlib\c_w.l(_printf_i.o) ABSOLUTE
    ../clib/printf_percent.s                 0x00000000   Number         0  C:\Keil_v5\ARM\ARMCC\Bin\..\lib\armlib\c_w.l(_printf_o.o) ABSOLUTE
    ../clib/printf_percent.s                 0x00000000   Number         0  C:\Keil_v5\ARM\ARMCC\Bin\..\lib\armlib\c_w.l(_printf_u.o) ABSOLUTE
    ../clib/printf_percent.s                 0x00000000   Number         0  C:\Keil_v5\ARM\ARMCC\Bin\..\lib\armlib\c_w.l(_printf_p.o) ABSOLUTE
    ../clib/printf_percent.s                 0x00000000   Number         0  C:\Keil_v5\ARM\ARMCC\Bin\..\lib\armlib\c_w.l(_printf_x.o) ABSOLUTE
    ../clib/printf_percent.s                 0x00000000   Number         0  C:\Keil_v5\ARM\ARMCC\Bin\..\lib\armlib\c_w.l(_printf_lc.o) ABSOLUTE
    ../clib/printf_percent.s                 0x00000000   Number         0  C:\Keil_v5\ARM\ARMCC\Bin\..\lib\armlib\c_w.l(_printf_ls.o) ABSOLUTE
    ../clib/printf_percent.s                 0x00000000   Number         0  C:\Keil_v5\ARM\ARMCC\Bin\..\lib\armlib\c_w.l(_printf_llo.o) ABSOLUTE
    ../clib/printf_percent.s                 0x00000000   Number         0  C:\Keil_v5\ARM\ARMCC\Bin\..\lib\armlib\c_w.l(_printf_llx.o) ABSOLUTE
    ../clib/printf_percent.s                 0x00000000   Number         0  C:\Keil_v5\ARM\ARMCC\Bin\..\lib\armlib\c_w.l(_printf_ll.o) ABSOLUTE
    ../clib/printf_percent.s                 0x00000000   Number         0  C:\Keil_v5\ARM\ARMCC\Bin\..\lib\armlib\c_w.l(_printf_l.o) ABSOLUTE
    ../clib/signal.c                         0x00000000   Number         0  C:\Keil_v5\ARM\ARMCC\Bin\..\lib\armlib\c_w.l(defsig_cppl_inner.o) ABSOLUTE
    ../clib/signal.c                         0x00000000   Number         0  C:\Keil_v5\ARM\ARMCC\Bin\..\lib\armlib\c_w.l(defsig_stak_inner.o) ABSOLUTE
    ../clib/signal.c                         0x00000000   Number         0  C:\Keil_v5\ARM\ARMCC\Bin\..\lib\armlib\c_w.l(__raise.o) ABSOLUTE
    ../clib/signal.c                         0x00000000   Number         0  C:\Keil_v5\ARM\ARMCC\Bin\..\lib\armlib\c_w.l(defsig_segv_inner.o) ABSOLUTE
    ../clib/signal.c                         0x00000000   Number         0  C:\Keil_v5\ARM\ARMCC\Bin\..\lib\armlib\c_w.l(defsig_abrt_inner.o) ABSOLUTE
    ../clib/signal.c                         0x00000000   Number         0  C:\Keil_v5\ARM\ARMCC\Bin\..\lib\armlib\c_w.l(defsig_pvfn_formal.o) ABSOLUTE
    ../clib/signal.c                         0x00000000   Number         0  C:\Keil_v5\ARM\ARMCC\Bin\..\lib\armlib\c_w.l(defsig_pvfn_outer.o) ABSOLUTE
    ../clib/signal.c                         0x00000000   Number         0  C:\Keil_v5\ARM\ARMCC\Bin\..\lib\armlib\c_w.l(defsig_pvfn_inner.o) ABSOLUTE
    ../clib/signal.c                         0x00000000   Number         0  C:\Keil_v5\ARM\ARMCC\Bin\..\lib\armlib\c_w.l(defsig_fpe_inner.o) ABSOLUTE
    ../clib/signal.c                         0x00000000   Number         0  C:\Keil_v5\ARM\ARMCC\Bin\..\lib\armlib\c_w.l(defsig_abrt_formal.o) ABSOLUTE
    ../clib/signal.c                         0x00000000   Number         0  C:\Keil_v5\ARM\ARMCC\Bin\..\lib\armlib\c_w.l(defsig_abrt_outer.o) ABSOLUTE
    ../clib/signal.c                         0x00000000   Number         0  C:\Keil_v5\ARM\ARMCC\Bin\..\lib\armlib\c_w.l(defsig_rtmem_formal.o) ABSOLUTE
    ../clib/signal.c                         0x00000000   Number         0  C:\Keil_v5\ARM\ARMCC\Bin\..\lib\armlib\c_w.l(defsig_rtmem_outer.o) ABSOLUTE
    ../clib/signal.c                         0x00000000   Number         0  C:\Keil_v5\ARM\ARMCC\Bin\..\lib\armlib\c_w.l(defsig_rtred_formal.o) ABSOLUTE
    ../clib/signal.c                         0x00000000   Number         0  C:\Keil_v5\ARM\ARMCC\Bin\..\lib\armlib\c_w.l(defsig_rtred_outer.o) ABSOLUTE
    ../clib/signal.c                         0x00000000   Number         0  C:\Keil_v5\ARM\ARMCC\Bin\..\lib\armlib\c_w.l(defsig_exit.o) ABSOLUTE
    ../clib/signal.c                         0x00000000   Number         0  C:\Keil_v5\ARM\ARMCC\Bin\..\lib\armlib\c_w.l(defsig_rtmem_inner.o) ABSOLUTE
    ../clib/signal.c                         0x00000000   Number         0  C:\Keil_v5\ARM\ARMCC\Bin\..\lib\armlib\c_w.l(defsig_rtred_inner.o) ABSOLUTE
    ../clib/signal.c                         0x00000000   Number         0  C:\Keil_v5\ARM\ARMCC\Bin\..\lib\armlib\c_w.l(defsig_fpe_formal.o) ABSOLUTE
    ../clib/signal.c                         0x00000000   Number         0  C:\Keil_v5\ARM\ARMCC\Bin\..\lib\armlib\c_w.l(defsig_fpe_outer.o) ABSOLUTE
    ../clib/signal.c                         0x00000000   Number         0  C:\Keil_v5\ARM\ARMCC\Bin\..\lib\armlib\c_w.l(defsig_general.o) ABSOLUTE
    ../clib/signal.c                         0x00000000   Number         0  C:\Keil_v5\ARM\ARMCC\Bin\..\lib\armlib\c_w.l(defsig_other.o) ABSOLUTE
    ../clib/signal.s                         0x00000000   Number         0  C:\Keil_v5\ARM\ARMCC\Bin\..\lib\armlib\c_w.l(defsig.o) ABSOLUTE
    ../clib/stdio.c                          0x00000000   Number         0  C:\Keil_v5\ARM\ARMCC\Bin\..\lib\armlib\c_w.l(fwritefast.o) ABSOLUTE
    ../clib/stdio.c                          0x00000000   Number         0  C:\Keil_v5\ARM\ARMCC\Bin\..\lib\armlib\c_w.l(fputs_locked.o) ABSOLUTE
    ../clib/stdio.c                          0x00000000   Number         0  C:\Keil_v5\ARM\ARMCC\Bin\..\lib\armlib\c_w.l(fputs.o) ABSOLUTE
    ../clib/stdio.c                          0x00000000   Number         0  C:\Keil_v5\ARM\ARMCC\Bin\..\lib\armlib\c_w.l(fwritefast_locked.o) ABSOLUTE
    ../clib/stdio.c                          0x00000000   Number         0  C:\Keil_v5\ARM\ARMCC\Bin\..\lib\armlib\c_w.l(flsbuf.o) ABSOLUTE
    ../clib/stdio.c                          0x00000000   Number         0  C:\Keil_v5\ARM\ARMCC\Bin\..\lib\armlib\c_w.l(initio_locked.o) ABSOLUTE
    ../clib/stdio.c                          0x00000000   Number         0  C:\Keil_v5\ARM\ARMCC\Bin\..\lib\armlib\c_w.l(ferror.o) ABSOLUTE
    ../clib/stdio.c                          0x00000000   Number         0  C:\Keil_v5\ARM\ARMCC\Bin\..\lib\armlib\c_w.l(fputc.o) ABSOLUTE
    ../clib/stdio.c                          0x00000000   Number         0  C:\Keil_v5\ARM\ARMCC\Bin\..\lib\armlib\c_w.l(ftell.o) ABSOLUTE
    ../clib/stdio.c                          0x00000000   Number         0  C:\Keil_v5\ARM\ARMCC\Bin\..\lib\armlib\c_w.l(fputc_locked.o) ABSOLUTE
    ../clib/stdio.c                          0x00000000   Number         0  C:\Keil_v5\ARM\ARMCC\Bin\..\lib\armlib\c_w.l(ferror_locked.o) ABSOLUTE
    ../clib/stdio.c                          0x00000000   Number         0  C:\Keil_v5\ARM\ARMCC\Bin\..\lib\armlib\c_w.l(fopen.o) ABSOLUTE
    ../clib/stdio.c                          0x00000000   Number         0  C:\Keil_v5\ARM\ARMCC\Bin\..\lib\armlib\c_w.l(streamlock.o) ABSOLUTE
    ../clib/stdio.c                          0x00000000   Number         0  C:\Keil_v5\ARM\ARMCC\Bin\..\lib\armlib\c_w.l(stdio.o) ABSOLUTE
    ../clib/stdio.c                          0x00000000   Number         0  C:\Keil_v5\ARM\ARMCC\Bin\..\lib\armlib\c_w.l(fflush.o) ABSOLUTE
    ../clib/stdio.c                          0x00000000   Number         0  C:\Keil_v5\ARM\ARMCC\Bin\..\lib\armlib\c_w.l(setvbuf.o) ABSOLUTE
    ../clib/stdio.c                          0x00000000   Number         0  C:\Keil_v5\ARM\ARMCC\Bin\..\lib\armlib\c_w.l(fseek.o) ABSOLUTE
    ../clib/stdio.c                          0x00000000   Number         0  C:\Keil_v5\ARM\ARMCC\Bin\..\lib\armlib\c_w.l(fopen_locked.o) ABSOLUTE
    ../clib/stdio.c                          0x00000000   Number         0  C:\Keil_v5\ARM\ARMCC\Bin\..\lib\armlib\c_w.l(fflush_locked.o) ABSOLUTE
    ../clib/stdio.c                          0x00000000   Number         0  C:\Keil_v5\ARM\ARMCC\Bin\..\lib\armlib\c_w.l(stdio_streams.o) ABSOLUTE
    ../clib/stdio.c                          0x00000000   Number         0  C:\Keil_v5\ARM\ARMCC\Bin\..\lib\armlib\c_w.l(setbuf.o) ABSOLUTE
    ../clib/stdio.c                          0x00000000   Number         0  C:\Keil_v5\ARM\ARMCC\Bin\..\lib\armlib\c_w.l(fclose.o) ABSOLUTE
    ../clib/stdio.c                          0x00000000   Number         0  C:\Keil_v5\ARM\ARMCC\Bin\..\lib\armlib\c_w.l(initio.o) ABSOLUTE
    ../clib/stdio.c                          0x00000000   Number         0  C:\Keil_v5\ARM\ARMCC\Bin\..\lib\armlib\c_w.l(setvbuf_locked.o) ABSOLUTE
    ../clib/stdlib.c                         0x00000000   Number         0  C:\Keil_v5\ARM\ARMCC\Bin\..\lib\armlib\c_w.l(abort.o) ABSOLUTE
    ../clib/string.c                         0x00000000   Number         0  C:\Keil_v5\ARM\ARMCC\Bin\..\lib\armlib\c_w.l(strlen.o) ABSOLUTE
    ../clib/string.c                         0x00000000   Number         0  C:\Keil_v5\ARM\ARMCC\Bin\..\lib\armlib\c_w.l(memcmp.o) ABSOLUTE
    ../clib/string.c                         0x00000000   Number         0  C:\Keil_v5\ARM\ARMCC\Bin\..\lib\armlib\c_w.l(strspn.o) ABSOLUTE
    ../clib/wchar.c                          0x00000000   Number         0  C:\Keil_v5\ARM\ARMCC\Bin\..\lib\armlib\c_w.l(flsbuf_fwide.o) ABSOLUTE
    ../fplib/d2f.s                           0x00000000   Number         0  C:\Keil_v5\ARM\ARMCC\Bin\..\lib\armlib\fz_wm.l(d2f.o) ABSOLUTE
    ../fplib/daddsub.s                       0x00000000   Number         0  C:\Keil_v5\ARM\ARMCC\Bin\..\lib\armlib\fz_wm.l(daddsub_clz.o) ABSOLUTE
    ../fplib/ddiv.s                          0x00000000   Number         0  C:\Keil_v5\ARM\ARMCC\Bin\..\lib\armlib\fz_wm.l(ddiv.o) ABSOLUTE
    ../fplib/dfix.s                          0x00000000   Number         0  C:\Keil_v5\ARM\ARMCC\Bin\..\lib\armlib\fz_wm.l(dfix.o) ABSOLUTE
    ../fplib/dfixu.s                         0x00000000   Number         0  C:\Keil_v5\ARM\ARMCC\Bin\..\lib\armlib\fz_wm.l(dfixu.o) ABSOLUTE
    ../fplib/dmul.s                          0x00000000   Number         0  C:\Keil_v5\ARM\ARMCC\Bin\..\lib\armlib\fz_wm.l(dmul.o) ABSOLUTE
    ../fplib/dnaninf.s                       0x00000000   Number         0  C:\Keil_v5\ARM\ARMCC\Bin\..\lib\armlib\fz_wm.l(dnaninf.o) ABSOLUTE
    ../fplib/dretinf.s                       0x00000000   Number         0  C:\Keil_v5\ARM\ARMCC\Bin\..\lib\armlib\fz_wm.l(dretinf.o) ABSOLUTE
    ../fplib/f2d.s                           0x00000000   Number         0  C:\Keil_v5\ARM\ARMCC\Bin\..\lib\armlib\fz_wm.l(f2d.o) ABSOLUTE
    ../fplib/ffltll.s                        0x00000000   Number         0  C:\Keil_v5\ARM\ARMCC\Bin\..\lib\armlib\fz_wm.l(ffltll_clz.o) ABSOLUTE
    ../fplib/fnaninf.s                       0x00000000   Number         0  C:\Keil_v5\ARM\ARMCC\Bin\..\lib\armlib\fz_wm.l(fnaninf.o) ABSOLUTE
    ../fplib/fpinit.s                        0x00000000   Number         0  C:\Keil_v5\ARM\ARMCC\Bin\..\lib\armlib\fz_wm.l(fpinit.o) ABSOLUTE
    ../fplib/fretinf.s                       0x00000000   Number         0  C:\Keil_v5\ARM\ARMCC\Bin\..\lib\armlib\fz_wm.l(fretinf.o) ABSOLUTE
    ../fplib/istatus.s                       0x00000000   Number         0  C:\Keil_v5\ARM\ARMCC\Bin\..\lib\armlib\fz_wm.l(istatus.o) ABSOLUTE
    ../fplib/printf1.s                       0x00000000   Number         0  C:\Keil_v5\ARM\ARMCC\Bin\..\lib\armlib\fz_wm.l(printf1.o) ABSOLUTE
    ../fplib/printf2.s                       0x00000000   Number         0  C:\Keil_v5\ARM\ARMCC\Bin\..\lib\armlib\fz_wm.l(printf2.o) ABSOLUTE
    ../fplib/printf2a.s                      0x00000000   Number         0  C:\Keil_v5\ARM\ARMCC\Bin\..\lib\armlib\fz_wm.l(printf2a.o) ABSOLUTE
    ../fplib/printf2b.s                      0x00000000   Number         0  C:\Keil_v5\ARM\ARMCC\Bin\..\lib\armlib\fz_wm.l(printf2b.o) ABSOLUTE
    ../fplib/usenofp.s                       0x00000000   Number         0  C:\Keil_v5\ARM\ARMCC\Bin\..\lib\armlib\fz_wm.l(usenofp.o) ABSOLUTE
    ../mathlib/fabs.c                        0x00000000   Number         0  C:\Keil_v5\ARM\ARMCC\Bin\..\lib\armlib\m_wm.l(fabs.o) ABSOLUTE
    ../mathlib/fpclassify.c                  0x00000000   Number         0  C:\Keil_v5\ARM\ARMCC\Bin\..\lib\armlib\m_wm.l(fpclassify.o) ABSOLUTE
    /builds/ws/mbed-os-ci_mbed2-build-ARM@5/mbed-os/cmsis/TARGET_CORTEX_M/TOOLCHAIN_ARM/except.S 0x00000000   Number         0  mbed/TARGET_NUCLEO_F401RE/TOOLCHAIN_ARM_STD/except.o ABSOLUTE
    /builds/ws/mbed-os-ci_mbed2-build-ARM@5/mbed-os/cmsis/TARGET_CORTEX_M/mbed_fault_handler.c 0x00000000   Number         0  mbed/TARGET_NUCLEO_F401RE/TOOLCHAIN_ARM_STD/mbed_fault_handler.o ABSOLUTE
    /builds/ws/mbed-os-ci_mbed2-build-ARM@5/mbed-os/cmsis/TARGET_CORTEX_M/mbed_fault_handler.c 0x00000000   Number         0  mbed/TARGET_NUCLEO_F401RE/TOOLCHAIN_ARM_STD/mbed_fault_handler.o ABSOLUTE
    /builds/ws/mbed-os-ci_mbed2-build-ARM@5/mbed-os/cmsis/TARGET_CORTEX_M/mbed_tz_context.c 0x00000000   Number         0  mbed/TARGET_NUCLEO_F401RE/TOOLCHAIN_ARM_STD/mbed_tz_context.o ABSOLUTE
    /builds/ws/mbed-os-ci_mbed2-build-ARM@5/mbed-os/drivers/AnalogIn.cpp 0x00000000   Number         0  mbed/TARGET_NUCLEO_F401RE/TOOLCHAIN_ARM_STD/mbed.ar(AnalogIn.o) ABSOLUTE
    /builds/ws/mbed-os-ci_mbed2-build-ARM@5/mbed-os/drivers/AnalogIn.cpp 0x00000000   Number         0  mbed/TARGET_NUCLEO_F401RE/TOOLCHAIN_ARM_STD/mbed.ar(AnalogIn.o) ABSOLUTE
    /builds/ws/mbed-os-ci_mbed2-build-ARM@5/mbed-os/drivers/Ticker.cpp 0x00000000   Number         0  mbed/TARGET_NUCLEO_F401RE/TOOLCHAIN_ARM_STD/mbed.ar(Ticker.o) ABSOLUTE
    /builds/ws/mbed-os-ci_mbed2-build-ARM@5/mbed-os/drivers/Ticker.cpp 0x00000000   Number         0  mbed/TARGET_NUCLEO_F401RE/TOOLCHAIN_ARM_STD/mbed.ar(Ticker.o) ABSOLUTE
    /builds/ws/mbed-os-ci_mbed2-build-ARM@5/mbed-os/drivers/Timeout.cpp 0x00000000   Number         0  mbed/TARGET_NUCLEO_F401RE/TOOLCHAIN_ARM_STD/mbed.ar(Timeout.o) ABSOLUTE
    /builds/ws/mbed-os-ci_mbed2-build-ARM@5/mbed-os/drivers/Timeout.cpp 0x00000000   Number         0  mbed/TARGET_NUCLEO_F401RE/TOOLCHAIN_ARM_STD/mbed.ar(Timeout.o) ABSOLUTE
    /builds/ws/mbed-os-ci_mbed2-build-ARM@5/mbed-os/drivers/Timer.cpp 0x00000000   Number         0  mbed/TARGET_NUCLEO_F401RE/TOOLCHAIN_ARM_STD/mbed.ar(Timer.o) ABSOLUTE
    /builds/ws/mbed-os-ci_mbed2-build-ARM@5/mbed-os/drivers/Timer.cpp 0x00000000   Number         0  mbed/TARGET_NUCLEO_F401RE/TOOLCHAIN_ARM_STD/mbed.ar(Timer.o) ABSOLUTE
    /builds/ws/mbed-os-ci_mbed2-build-ARM@5/mbed-os/drivers/TimerEvent.cpp 0x00000000   Number         0  mbed/TARGET_NUCLEO_F401RE/TOOLCHAIN_ARM_STD/mbed.ar(TimerEvent.o) ABSOLUTE
    /builds/ws/mbed-os-ci_mbed2-build-ARM@5/mbed-os/drivers/TimerEvent.cpp 0x00000000   Number         0  mbed/TARGET_NUCLEO_F401RE/TOOLCHAIN_ARM_STD/mbed.ar(TimerEvent.o) ABSOLUTE
    /builds/ws/mbed-os-ci_mbed2-build-ARM@5/mbed-os/hal/LowPowerTickerWrapper.cpp 0x00000000   Number         0  mbed/TARGET_NUCLEO_F401RE/TOOLCHAIN_ARM_STD/mbed.ar(LowPowerTickerWrapper.o) ABSOLUTE
    /builds/ws/mbed-os-ci_mbed2-build-ARM@5/mbed-os/hal/LowPowerTickerWrapper.cpp 0x00000000   Number         0  mbed/TARGET_NUCLEO_F401RE/TOOLCHAIN_ARM_STD/mbed.ar(LowPowerTickerWrapper.o) ABSOLUTE
    /builds/ws/mbed-os-ci_mbed2-build-ARM@5/mbed-os/hal/mbed_critical_section_api.c 0x00000000   Number         0  mbed/TARGET_NUCLEO_F401RE/TOOLCHAIN_ARM_STD/mbed.ar(mbed_critical_section_api.o) ABSOLUTE
    /builds/ws/mbed-os-ci_mbed2-build-ARM@5/mbed-os/hal/mbed_critical_section_api.c 0x00000000   Number         0  mbed/TARGET_NUCLEO_F401RE/TOOLCHAIN_ARM_STD/mbed.ar(mbed_critical_section_api.o) ABSOLUTE
    /builds/ws/mbed-os-ci_mbed2-build-ARM@5/mbed-os/hal/mbed_gpio.c 0x00000000   Number         0  mbed/TARGET_NUCLEO_F401RE/TOOLCHAIN_ARM_STD/mbed.ar(mbed_gpio.o) ABSOLUTE
    /builds/ws/mbed-os-ci_mbed2-build-ARM@5/mbed-os/hal/mbed_gpio.c 0x00000000   Number         0  mbed/TARGET_NUCLEO_F401RE/TOOLCHAIN_ARM_STD/mbed.ar(mbed_gpio.o) ABSOLUTE
    /builds/ws/mbed-os-ci_mbed2-build-ARM@5/mbed-os/hal/mbed_lp_ticker_api.c 0x00000000   Number         0  mbed/TARGET_NUCLEO_F401RE/TOOLCHAIN_ARM_STD/mbed.ar(mbed_lp_ticker_api.o) ABSOLUTE
    /builds/ws/mbed-os-ci_mbed2-build-ARM@5/mbed-os/hal/mbed_lp_ticker_api.c 0x00000000   Number         0  mbed/TARGET_NUCLEO_F401RE/TOOLCHAIN_ARM_STD/mbed.ar(mbed_lp_ticker_api.o) ABSOLUTE
    /builds/ws/mbed-os-ci_mbed2-build-ARM@5/mbed-os/hal/mbed_lp_ticker_wrapper.cpp 0x00000000   Number         0  mbed/TARGET_NUCLEO_F401RE/TOOLCHAIN_ARM_STD/mbed.ar(mbed_lp_ticker_wrapper.o) ABSOLUTE
    /builds/ws/mbed-os-ci_mbed2-build-ARM@5/mbed-os/hal/mbed_lp_ticker_wrapper.cpp 0x00000000   Number         0  mbed/TARGET_NUCLEO_F401RE/TOOLCHAIN_ARM_STD/mbed.ar(mbed_lp_ticker_wrapper.o) ABSOLUTE
    /builds/ws/mbed-os-ci_mbed2-build-ARM@5/mbed-os/hal/mbed_pinmap_common.c 0x00000000   Number         0  mbed/TARGET_NUCLEO_F401RE/TOOLCHAIN_ARM_STD/mbed.ar(mbed_pinmap_common.o) ABSOLUTE
    /builds/ws/mbed-os-ci_mbed2-build-ARM@5/mbed-os/hal/mbed_pinmap_common.c 0x00000000   Number         0  mbed/TARGET_NUCLEO_F401RE/TOOLCHAIN_ARM_STD/mbed.ar(mbed_pinmap_common.o) ABSOLUTE
    /builds/ws/mbed-os-ci_mbed2-build-ARM@5/mbed-os/hal/mbed_ticker_api.c 0x00000000   Number         0  mbed/TARGET_NUCLEO_F401RE/TOOLCHAIN_ARM_STD/mbed.ar(mbed_ticker_api.o) ABSOLUTE
    /builds/ws/mbed-os-ci_mbed2-build-ARM@5/mbed-os/hal/mbed_ticker_api.c 0x00000000   Number         0  mbed/TARGET_NUCLEO_F401RE/TOOLCHAIN_ARM_STD/mbed.ar(mbed_ticker_api.o) ABSOLUTE
    /builds/ws/mbed-os-ci_mbed2-build-ARM@5/mbed-os/hal/mbed_us_ticker_api.c 0x00000000   Number         0  mbed/TARGET_NUCLEO_F401RE/TOOLCHAIN_ARM_STD/mbed.ar(mbed_us_ticker_api.o) ABSOLUTE
    /builds/ws/mbed-os-ci_mbed2-build-ARM@5/mbed-os/hal/mbed_us_ticker_api.c 0x00000000   Number         0  mbed/TARGET_NUCLEO_F401RE/TOOLCHAIN_ARM_STD/mbed.ar(mbed_us_ticker_api.o) ABSOLUTE
    /builds/ws/mbed-os-ci_mbed2-build-ARM@5/mbed-os/platform/FileBase.cpp 0x00000000   Number         0  mbed/TARGET_NUCLEO_F401RE/TOOLCHAIN_ARM_STD/mbed.ar(FileBase.o) ABSOLUTE
    /builds/ws/mbed-os-ci_mbed2-build-ARM@5/mbed-os/platform/FileBase.cpp 0x00000000   Number         0  mbed/TARGET_NUCLEO_F401RE/TOOLCHAIN_ARM_STD/mbed.ar(FileBase.o) ABSOLUTE
    /builds/ws/mbed-os-ci_mbed2-build-ARM@5/mbed-os/platform/FileHandle.cpp 0x00000000   Number         0  mbed/TARGET_NUCLEO_F401RE/TOOLCHAIN_ARM_STD/mbed.ar(FileHandle.o) ABSOLUTE
    /builds/ws/mbed-os-ci_mbed2-build-ARM@5/mbed-os/platform/FileHandle.cpp 0x00000000   Number         0  mbed/TARGET_NUCLEO_F401RE/TOOLCHAIN_ARM_STD/mbed.ar(FileHandle.o) ABSOLUTE
    /builds/ws/mbed-os-ci_mbed2-build-ARM@5/mbed-os/platform/FilePath.cpp 0x00000000   Number         0  mbed/TARGET_NUCLEO_F401RE/TOOLCHAIN_ARM_STD/mbed.ar(FilePath.o) ABSOLUTE
    /builds/ws/mbed-os-ci_mbed2-build-ARM@5/mbed-os/platform/FilePath.cpp 0x00000000   Number         0  mbed/TARGET_NUCLEO_F401RE/TOOLCHAIN_ARM_STD/mbed.ar(FilePath.o) ABSOLUTE
    /builds/ws/mbed-os-ci_mbed2-build-ARM@5/mbed-os/platform/mbed_assert.c 0x00000000   Number         0  mbed/TARGET_NUCLEO_F401RE/TOOLCHAIN_ARM_STD/mbed.ar(mbed_assert.o) ABSOLUTE
    /builds/ws/mbed-os-ci_mbed2-build-ARM@5/mbed-os/platform/mbed_board.c 0x00000000   Number         0  mbed/TARGET_NUCLEO_F401RE/TOOLCHAIN_ARM_STD/mbed_board.o ABSOLUTE
    /builds/ws/mbed-os-ci_mbed2-build-ARM@5/mbed-os/platform/mbed_board.c 0x00000000   Number         0  mbed/TARGET_NUCLEO_F401RE/TOOLCHAIN_ARM_STD/mbed_board.o ABSOLUTE
    /builds/ws/mbed-os-ci_mbed2-build-ARM@5/mbed-os/platform/mbed_critical.c 0x00000000   Number         0  mbed/TARGET_NUCLEO_F401RE/TOOLCHAIN_ARM_STD/mbed.ar(mbed_critical.o) ABSOLUTE
    /builds/ws/mbed-os-ci_mbed2-build-ARM@5/mbed-os/platform/mbed_critical.c 0x00000000   Number         0  mbed/TARGET_NUCLEO_F401RE/TOOLCHAIN_ARM_STD/mbed.ar(mbed_critical.o) ABSOLUTE
    /builds/ws/mbed-os-ci_mbed2-build-ARM@5/mbed-os/platform/mbed_error.c 0x00000000   Number         0  mbed/TARGET_NUCLEO_F401RE/TOOLCHAIN_ARM_STD/mbed.ar(mbed_error.o) ABSOLUTE
    /builds/ws/mbed-os-ci_mbed2-build-ARM@5/mbed-os/platform/mbed_error.c 0x00000000   Number         0  mbed/TARGET_NUCLEO_F401RE/TOOLCHAIN_ARM_STD/mbed.ar(mbed_error.o) ABSOLUTE
    /builds/ws/mbed-os-ci_mbed2-build-ARM@5/mbed-os/platform/mbed_mktime.c 0x00000000   Number         0  mbed/TARGET_NUCLEO_F401RE/TOOLCHAIN_ARM_STD/mbed.ar(mbed_mktime.o) ABSOLUTE
    /builds/ws/mbed-os-ci_mbed2-build-ARM@5/mbed-os/platform/mbed_poll.cpp 0x00000000   Number         0  mbed/TARGET_NUCLEO_F401RE/TOOLCHAIN_ARM_STD/mbed.ar(mbed_poll.o) ABSOLUTE
    /builds/ws/mbed-os-ci_mbed2-build-ARM@5/mbed-os/platform/mbed_poll.cpp 0x00000000   Number         0  mbed/TARGET_NUCLEO_F401RE/TOOLCHAIN_ARM_STD/mbed.ar(mbed_poll.o) ABSOLUTE
    /builds/ws/mbed-os-ci_mbed2-build-ARM@5/mbed-os/platform/mbed_retarget.cpp 0x00000000   Number         0  mbed/TARGET_NUCLEO_F401RE/TOOLCHAIN_ARM_STD/mbed_retarget.o ABSOLUTE
    /builds/ws/mbed-os-ci_mbed2-build-ARM@5/mbed-os/platform/mbed_retarget.cpp 0x00000000   Number         0  mbed/TARGET_NUCLEO_F401RE/TOOLCHAIN_ARM_STD/mbed_retarget.o ABSOLUTE
    /builds/ws/mbed-os-ci_mbed2-build-ARM@5/mbed-os/platform/mbed_sdk_boot.c 0x00000000   Number         0  mbed/TARGET_NUCLEO_F401RE/TOOLCHAIN_ARM_STD/mbed_sdk_boot.o ABSOLUTE
    /builds/ws/mbed-os-ci_mbed2-build-ARM@5/mbed-os/platform/mbed_sdk_boot.c 0x00000000   Number         0  mbed/TARGET_NUCLEO_F401RE/TOOLCHAIN_ARM_STD/mbed_sdk_boot.o ABSOLUTE
    /builds/ws/mbed-os-ci_mbed2-build-ARM@5/mbed-os/platform/mbed_sleep_manager.c 0x00000000   Number         0  mbed/TARGET_NUCLEO_F401RE/TOOLCHAIN_ARM_STD/mbed.ar(mbed_sleep_manager.o) ABSOLUTE
    /builds/ws/mbed-os-ci_mbed2-build-ARM@5/mbed-os/platform/mbed_sleep_manager.c 0x00000000   Number         0  mbed/TARGET_NUCLEO_F401RE/TOOLCHAIN_ARM_STD/mbed.ar(mbed_sleep_manager.o) ABSOLUTE
    /builds/ws/mbed-os-ci_mbed2-build-ARM@5/mbed-os/platform/mbed_wait_api_no_rtos.c 0x00000000   Number         0  mbed/TARGET_NUCLEO_F401RE/TOOLCHAIN_ARM_STD/mbed.ar(mbed_wait_api_no_rtos.o) ABSOLUTE
    /builds/ws/mbed-os-ci_mbed2-build-ARM@5/mbed-os/platform/mbed_wait_api_no_rtos.c 0x00000000   Number         0  mbed/TARGET_NUCLEO_F401RE/TOOLCHAIN_ARM_STD/mbed.ar(mbed_wait_api_no_rtos.o) ABSOLUTE
    /builds/ws/mbed-os-ci_mbed2-build-ARM@5/mbed-os/targets/TARGET_STM/TARGET_STM32F4/TARGET_STM32F401xE/TARGET_NUCLEO_F401RE/PeripheralPins.c 0x00000000   Number         0  mbed/TARGET_NUCLEO_F401RE/TOOLCHAIN_ARM_STD/PeripheralPins.o ABSOLUTE
    /builds/ws/mbed-os-ci_mbed2-build-ARM@5/mbed-os/targets/TARGET_STM/TARGET_STM32F4/TARGET_STM32F401xE/TARGET_NUCLEO_F401RE/PeripheralPins.c 0x00000000   Number         0  mbed/TARGET_NUCLEO_F401RE/TOOLCHAIN_ARM_STD/PeripheralPins.o ABSOLUTE
    /builds/ws/mbed-os-ci_mbed2-build-ARM@5/mbed-os/targets/TARGET_STM/TARGET_STM32F4/TARGET_STM32F401xE/TARGET_NUCLEO_F401RE/system_clock.c 0x00000000   Number         0  mbed/TARGET_NUCLEO_F401RE/TOOLCHAIN_ARM_STD/system_clock.o ABSOLUTE
    /builds/ws/mbed-os-ci_mbed2-build-ARM@5/mbed-os/targets/TARGET_STM/TARGET_STM32F4/TARGET_STM32F401xE/TARGET_NUCLEO_F401RE/system_clock.c 0x00000000   Number         0  mbed/TARGET_NUCLEO_F401RE/TOOLCHAIN_ARM_STD/system_clock.o ABSOLUTE
    /builds/ws/mbed-os-ci_mbed2-build-ARM@5/mbed-os/targets/TARGET_STM/TARGET_STM32F4/TARGET_STM32F401xE/device/TOOLCHAIN_ARM_STD/startup_stm32f401xe.S 0x00000000   Number         0  mbed/TARGET_NUCLEO_F401RE/TOOLCHAIN_ARM_STD/startup_stm32f401xe.o ABSOLUTE
    /builds/ws/mbed-os-ci_mbed2-build-ARM@5/mbed-os/targets/TARGET_STM/TARGET_STM32F4/analogin_device.c 0x00000000   Number         0  mbed/TARGET_NUCLEO_F401RE/TOOLCHAIN_ARM_STD/analogin_device.o ABSOLUTE
    /builds/ws/mbed-os-ci_mbed2-build-ARM@5/mbed-os/targets/TARGET_STM/TARGET_STM32F4/analogin_device.c 0x00000000   Number         0  mbed/TARGET_NUCLEO_F401RE/TOOLCHAIN_ARM_STD/analogin_device.o ABSOLUTE
    /builds/ws/mbed-os-ci_mbed2-build-ARM@5/mbed-os/targets/TARGET_STM/TARGET_STM32F4/analogout_device.c 0x00000000   Number         0  mbed/TARGET_NUCLEO_F401RE/TOOLCHAIN_ARM_STD/analogout_device.o ABSOLUTE
    /builds/ws/mbed-os-ci_mbed2-build-ARM@5/mbed-os/targets/TARGET_STM/TARGET_STM32F4/analogout_device.c 0x00000000   Number         0  mbed/TARGET_NUCLEO_F401RE/TOOLCHAIN_ARM_STD/analogout_device.o ABSOLUTE
    /builds/ws/mbed-os-ci_mbed2-build-ARM@5/mbed-os/targets/TARGET_STM/TARGET_STM32F4/device/stm32f4xx_hal.c 0x00000000   Number         0  mbed/TARGET_NUCLEO_F401RE/TOOLCHAIN_ARM_STD/stm32f4xx_hal.o ABSOLUTE
    /builds/ws/mbed-os-ci_mbed2-build-ARM@5/mbed-os/targets/TARGET_STM/TARGET_STM32F4/device/stm32f4xx_hal.c 0x00000000   Number         0  mbed/TARGET_NUCLEO_F401RE/TOOLCHAIN_ARM_STD/stm32f4xx_hal.o ABSOLUTE
    /builds/ws/mbed-os-ci_mbed2-build-ARM@5/mbed-os/targets/TARGET_STM/TARGET_STM32F4/device/stm32f4xx_hal_adc.c 0x00000000   Number         0  mbed/TARGET_NUCLEO_F401RE/TOOLCHAIN_ARM_STD/stm32f4xx_hal_adc.o ABSOLUTE
    /builds/ws/mbed-os-ci_mbed2-build-ARM@5/mbed-os/targets/TARGET_STM/TARGET_STM32F4/device/stm32f4xx_hal_adc.c 0x00000000   Number         0  mbed/TARGET_NUCLEO_F401RE/TOOLCHAIN_ARM_STD/stm32f4xx_hal_adc.o ABSOLUTE
    /builds/ws/mbed-os-ci_mbed2-build-ARM@5/mbed-os/targets/TARGET_STM/TARGET_STM32F4/device/stm32f4xx_hal_adc_ex.c 0x00000000   Number         0  mbed/TARGET_NUCLEO_F401RE/TOOLCHAIN_ARM_STD/stm32f4xx_hal_adc_ex.o ABSOLUTE
    /builds/ws/mbed-os-ci_mbed2-build-ARM@5/mbed-os/targets/TARGET_STM/TARGET_STM32F4/device/stm32f4xx_hal_adc_ex.c 0x00000000   Number         0  mbed/TARGET_NUCLEO_F401RE/TOOLCHAIN_ARM_STD/stm32f4xx_hal_adc_ex.o ABSOLUTE
    /builds/ws/mbed-os-ci_mbed2-build-ARM@5/mbed-os/targets/TARGET_STM/TARGET_STM32F4/device/stm32f4xx_hal_can.c 0x00000000   Number         0  mbed/TARGET_NUCLEO_F401RE/TOOLCHAIN_ARM_STD/stm32f4xx_hal_can.o ABSOLUTE
    /builds/ws/mbed-os-ci_mbed2-build-ARM@5/mbed-os/targets/TARGET_STM/TARGET_STM32F4/device/stm32f4xx_hal_can.c 0x00000000   Number         0  mbed/TARGET_NUCLEO_F401RE/TOOLCHAIN_ARM_STD/stm32f4xx_hal_can.o ABSOLUTE
    /builds/ws/mbed-os-ci_mbed2-build-ARM@5/mbed-os/targets/TARGET_STM/TARGET_STM32F4/device/stm32f4xx_hal_can_legacy.c 0x00000000   Number         0  mbed/TARGET_NUCLEO_F401RE/TOOLCHAIN_ARM_STD/stm32f4xx_hal_can_legacy.o ABSOLUTE
    /builds/ws/mbed-os-ci_mbed2-build-ARM@5/mbed-os/targets/TARGET_STM/TARGET_STM32F4/device/stm32f4xx_hal_can_legacy.c 0x00000000   Number         0  mbed/TARGET_NUCLEO_F401RE/TOOLCHAIN_ARM_STD/stm32f4xx_hal_can_legacy.o ABSOLUTE
    /builds/ws/mbed-os-ci_mbed2-build-ARM@5/mbed-os/targets/TARGET_STM/TARGET_STM32F4/device/stm32f4xx_hal_cec.c 0x00000000   Number         0  mbed/TARGET_NUCLEO_F401RE/TOOLCHAIN_ARM_STD/stm32f4xx_hal_cec.o ABSOLUTE
    /builds/ws/mbed-os-ci_mbed2-build-ARM@5/mbed-os/targets/TARGET_STM/TARGET_STM32F4/device/stm32f4xx_hal_cec.c 0x00000000   Number         0  mbed/TARGET_NUCLEO_F401RE/TOOLCHAIN_ARM_STD/stm32f4xx_hal_cec.o ABSOLUTE
    /builds/ws/mbed-os-ci_mbed2-build-ARM@5/mbed-os/targets/TARGET_STM/TARGET_STM32F4/device/stm32f4xx_hal_cortex.c 0x00000000   Number         0  mbed/TARGET_NUCLEO_F401RE/TOOLCHAIN_ARM_STD/stm32f4xx_hal_cortex.o ABSOLUTE
    /builds/ws/mbed-os-ci_mbed2-build-ARM@5/mbed-os/targets/TARGET_STM/TARGET_STM32F4/device/stm32f4xx_hal_cortex.c 0x00000000   Number         0  mbed/TARGET_NUCLEO_F401RE/TOOLCHAIN_ARM_STD/stm32f4xx_hal_cortex.o ABSOLUTE
    /builds/ws/mbed-os-ci_mbed2-build-ARM@5/mbed-os/targets/TARGET_STM/TARGET_STM32F4/device/stm32f4xx_hal_crc.c 0x00000000   Number         0  mbed/TARGET_NUCLEO_F401RE/TOOLCHAIN_ARM_STD/stm32f4xx_hal_crc.o ABSOLUTE
    /builds/ws/mbed-os-ci_mbed2-build-ARM@5/mbed-os/targets/TARGET_STM/TARGET_STM32F4/device/stm32f4xx_hal_crc.c 0x00000000   Number         0  mbed/TARGET_NUCLEO_F401RE/TOOLCHAIN_ARM_STD/stm32f4xx_hal_crc.o ABSOLUTE
    /builds/ws/mbed-os-ci_mbed2-build-ARM@5/mbed-os/targets/TARGET_STM/TARGET_STM32F4/device/stm32f4xx_hal_cryp.c 0x00000000   Number         0  mbed/TARGET_NUCLEO_F401RE/TOOLCHAIN_ARM_STD/stm32f4xx_hal_cryp.o ABSOLUTE
    /builds/ws/mbed-os-ci_mbed2-build-ARM@5/mbed-os/targets/TARGET_STM/TARGET_STM32F4/device/stm32f4xx_hal_cryp.c 0x00000000   Number         0  mbed/TARGET_NUCLEO_F401RE/TOOLCHAIN_ARM_STD/stm32f4xx_hal_cryp.o ABSOLUTE
    /builds/ws/mbed-os-ci_mbed2-build-ARM@5/mbed-os/targets/TARGET_STM/TARGET_STM32F4/device/stm32f4xx_hal_cryp_ex.c 0x00000000   Number         0  mbed/TARGET_NUCLEO_F401RE/TOOLCHAIN_ARM_STD/stm32f4xx_hal_cryp_ex.o ABSOLUTE
    /builds/ws/mbed-os-ci_mbed2-build-ARM@5/mbed-os/targets/TARGET_STM/TARGET_STM32F4/device/stm32f4xx_hal_cryp_ex.c 0x00000000   Number         0  mbed/TARGET_NUCLEO_F401RE/TOOLCHAIN_ARM_STD/stm32f4xx_hal_cryp_ex.o ABSOLUTE
    /builds/ws/mbed-os-ci_mbed2-build-ARM@5/mbed-os/targets/TARGET_STM/TARGET_STM32F4/device/stm32f4xx_hal_dac.c 0x00000000   Number         0  mbed/TARGET_NUCLEO_F401RE/TOOLCHAIN_ARM_STD/stm32f4xx_hal_dac.o ABSOLUTE
    /builds/ws/mbed-os-ci_mbed2-build-ARM@5/mbed-os/targets/TARGET_STM/TARGET_STM32F4/device/stm32f4xx_hal_dac.c 0x00000000   Number         0  mbed/TARGET_NUCLEO_F401RE/TOOLCHAIN_ARM_STD/stm32f4xx_hal_dac.o ABSOLUTE
    /builds/ws/mbed-os-ci_mbed2-build-ARM@5/mbed-os/targets/TARGET_STM/TARGET_STM32F4/device/stm32f4xx_hal_dac_ex.c 0x00000000   Number         0  mbed/TARGET_NUCLEO_F401RE/TOOLCHAIN_ARM_STD/stm32f4xx_hal_dac_ex.o ABSOLUTE
    /builds/ws/mbed-os-ci_mbed2-build-ARM@5/mbed-os/targets/TARGET_STM/TARGET_STM32F4/device/stm32f4xx_hal_dac_ex.c 0x00000000   Number         0  mbed/TARGET_NUCLEO_F401RE/TOOLCHAIN_ARM_STD/stm32f4xx_hal_dac_ex.o ABSOLUTE
    /builds/ws/mbed-os-ci_mbed2-build-ARM@5/mbed-os/targets/TARGET_STM/TARGET_STM32F4/device/stm32f4xx_hal_dcmi.c 0x00000000   Number         0  mbed/TARGET_NUCLEO_F401RE/TOOLCHAIN_ARM_STD/stm32f4xx_hal_dcmi.o ABSOLUTE
    /builds/ws/mbed-os-ci_mbed2-build-ARM@5/mbed-os/targets/TARGET_STM/TARGET_STM32F4/device/stm32f4xx_hal_dcmi.c 0x00000000   Number         0  mbed/TARGET_NUCLEO_F401RE/TOOLCHAIN_ARM_STD/stm32f4xx_hal_dcmi.o ABSOLUTE
    /builds/ws/mbed-os-ci_mbed2-build-ARM@5/mbed-os/targets/TARGET_STM/TARGET_STM32F4/device/stm32f4xx_hal_dcmi_ex.c 0x00000000   Number         0  mbed/TARGET_NUCLEO_F401RE/TOOLCHAIN_ARM_STD/stm32f4xx_hal_dcmi_ex.o ABSOLUTE
    /builds/ws/mbed-os-ci_mbed2-build-ARM@5/mbed-os/targets/TARGET_STM/TARGET_STM32F4/device/stm32f4xx_hal_dcmi_ex.c 0x00000000   Number         0  mbed/TARGET_NUCLEO_F401RE/TOOLCHAIN_ARM_STD/stm32f4xx_hal_dcmi_ex.o ABSOLUTE
    /builds/ws/mbed-os-ci_mbed2-build-ARM@5/mbed-os/targets/TARGET_STM/TARGET_STM32F4/device/stm32f4xx_hal_dfsdm.c 0x00000000   Number         0  mbed/TARGET_NUCLEO_F401RE/TOOLCHAIN_ARM_STD/stm32f4xx_hal_dfsdm.o ABSOLUTE
    /builds/ws/mbed-os-ci_mbed2-build-ARM@5/mbed-os/targets/TARGET_STM/TARGET_STM32F4/device/stm32f4xx_hal_dfsdm.c 0x00000000   Number         0  mbed/TARGET_NUCLEO_F401RE/TOOLCHAIN_ARM_STD/stm32f4xx_hal_dfsdm.o ABSOLUTE
    /builds/ws/mbed-os-ci_mbed2-build-ARM@5/mbed-os/targets/TARGET_STM/TARGET_STM32F4/device/stm32f4xx_hal_dma.c 0x00000000   Number         0  mbed/TARGET_NUCLEO_F401RE/TOOLCHAIN_ARM_STD/stm32f4xx_hal_dma.o ABSOLUTE
    /builds/ws/mbed-os-ci_mbed2-build-ARM@5/mbed-os/targets/TARGET_STM/TARGET_STM32F4/device/stm32f4xx_hal_dma.c 0x00000000   Number         0  mbed/TARGET_NUCLEO_F401RE/TOOLCHAIN_ARM_STD/stm32f4xx_hal_dma.o ABSOLUTE
    /builds/ws/mbed-os-ci_mbed2-build-ARM@5/mbed-os/targets/TARGET_STM/TARGET_STM32F4/device/stm32f4xx_hal_dma2d.c 0x00000000   Number         0  mbed/TARGET_NUCLEO_F401RE/TOOLCHAIN_ARM_STD/stm32f4xx_hal_dma2d.o ABSOLUTE
    /builds/ws/mbed-os-ci_mbed2-build-ARM@5/mbed-os/targets/TARGET_STM/TARGET_STM32F4/device/stm32f4xx_hal_dma2d.c 0x00000000   Number         0  mbed/TARGET_NUCLEO_F401RE/TOOLCHAIN_ARM_STD/stm32f4xx_hal_dma2d.o ABSOLUTE
    /builds/ws/mbed-os-ci_mbed2-build-ARM@5/mbed-os/targets/TARGET_STM/TARGET_STM32F4/device/stm32f4xx_hal_dma_ex.c 0x00000000   Number         0  mbed/TARGET_NUCLEO_F401RE/TOOLCHAIN_ARM_STD/stm32f4xx_hal_dma_ex.o ABSOLUTE
    /builds/ws/mbed-os-ci_mbed2-build-ARM@5/mbed-os/targets/TARGET_STM/TARGET_STM32F4/device/stm32f4xx_hal_dma_ex.c 0x00000000   Number         0  mbed/TARGET_NUCLEO_F401RE/TOOLCHAIN_ARM_STD/stm32f4xx_hal_dma_ex.o ABSOLUTE
    /builds/ws/mbed-os-ci_mbed2-build-ARM@5/mbed-os/targets/TARGET_STM/TARGET_STM32F4/device/stm32f4xx_hal_dsi.c 0x00000000   Number         0  mbed/TARGET_NUCLEO_F401RE/TOOLCHAIN_ARM_STD/stm32f4xx_hal_dsi.o ABSOLUTE
    /builds/ws/mbed-os-ci_mbed2-build-ARM@5/mbed-os/targets/TARGET_STM/TARGET_STM32F4/device/stm32f4xx_hal_dsi.c 0x00000000   Number         0  mbed/TARGET_NUCLEO_F401RE/TOOLCHAIN_ARM_STD/stm32f4xx_hal_dsi.o ABSOLUTE
    /builds/ws/mbed-os-ci_mbed2-build-ARM@5/mbed-os/targets/TARGET_STM/TARGET_STM32F4/device/stm32f4xx_hal_eth.c 0x00000000   Number         0  mbed/TARGET_NUCLEO_F401RE/TOOLCHAIN_ARM_STD/stm32f4xx_hal_eth.o ABSOLUTE
    /builds/ws/mbed-os-ci_mbed2-build-ARM@5/mbed-os/targets/TARGET_STM/TARGET_STM32F4/device/stm32f4xx_hal_eth.c 0x00000000   Number         0  mbed/TARGET_NUCLEO_F401RE/TOOLCHAIN_ARM_STD/stm32f4xx_hal_eth.o ABSOLUTE
    /builds/ws/mbed-os-ci_mbed2-build-ARM@5/mbed-os/targets/TARGET_STM/TARGET_STM32F4/device/stm32f4xx_hal_flash.c 0x00000000   Number         0  mbed/TARGET_NUCLEO_F401RE/TOOLCHAIN_ARM_STD/stm32f4xx_hal_flash.o ABSOLUTE
    /builds/ws/mbed-os-ci_mbed2-build-ARM@5/mbed-os/targets/TARGET_STM/TARGET_STM32F4/device/stm32f4xx_hal_flash.c 0x00000000   Number         0  mbed/TARGET_NUCLEO_F401RE/TOOLCHAIN_ARM_STD/stm32f4xx_hal_flash.o ABSOLUTE
    /builds/ws/mbed-os-ci_mbed2-build-ARM@5/mbed-os/targets/TARGET_STM/TARGET_STM32F4/device/stm32f4xx_hal_flash_ex.c 0x00000000   Number         0  mbed/TARGET_NUCLEO_F401RE/TOOLCHAIN_ARM_STD/stm32f4xx_hal_flash_ex.o ABSOLUTE
    /builds/ws/mbed-os-ci_mbed2-build-ARM@5/mbed-os/targets/TARGET_STM/TARGET_STM32F4/device/stm32f4xx_hal_flash_ex.c 0x00000000   Number         0  mbed/TARGET_NUCLEO_F401RE/TOOLCHAIN_ARM_STD/stm32f4xx_hal_flash_ex.o ABSOLUTE
    /builds/ws/mbed-os-ci_mbed2-build-ARM@5/mbed-os/targets/TARGET_STM/TARGET_STM32F4/device/stm32f4xx_hal_flash_ramfunc.c 0x00000000   Number         0  mbed/TARGET_NUCLEO_F401RE/TOOLCHAIN_ARM_STD/stm32f4xx_hal_flash_ramfunc.o ABSOLUTE
    /builds/ws/mbed-os-ci_mbed2-build-ARM@5/mbed-os/targets/TARGET_STM/TARGET_STM32F4/device/stm32f4xx_hal_flash_ramfunc.c 0x00000000   Number         0  mbed/TARGET_NUCLEO_F401RE/TOOLCHAIN_ARM_STD/stm32f4xx_hal_flash_ramfunc.o ABSOLUTE
    /builds/ws/mbed-os-ci_mbed2-build-ARM@5/mbed-os/targets/TARGET_STM/TARGET_STM32F4/device/stm32f4xx_hal_fmpi2c.c 0x00000000   Number         0  mbed/TARGET_NUCLEO_F401RE/TOOLCHAIN_ARM_STD/stm32f4xx_hal_fmpi2c.o ABSOLUTE
    /builds/ws/mbed-os-ci_mbed2-build-ARM@5/mbed-os/targets/TARGET_STM/TARGET_STM32F4/device/stm32f4xx_hal_fmpi2c.c 0x00000000   Number         0  mbed/TARGET_NUCLEO_F401RE/TOOLCHAIN_ARM_STD/stm32f4xx_hal_fmpi2c.o ABSOLUTE
    /builds/ws/mbed-os-ci_mbed2-build-ARM@5/mbed-os/targets/TARGET_STM/TARGET_STM32F4/device/stm32f4xx_hal_fmpi2c_ex.c 0x00000000   Number         0  mbed/TARGET_NUCLEO_F401RE/TOOLCHAIN_ARM_STD/stm32f4xx_hal_fmpi2c_ex.o ABSOLUTE
    /builds/ws/mbed-os-ci_mbed2-build-ARM@5/mbed-os/targets/TARGET_STM/TARGET_STM32F4/device/stm32f4xx_hal_fmpi2c_ex.c 0x00000000   Number         0  mbed/TARGET_NUCLEO_F401RE/TOOLCHAIN_ARM_STD/stm32f4xx_hal_fmpi2c_ex.o ABSOLUTE
    /builds/ws/mbed-os-ci_mbed2-build-ARM@5/mbed-os/targets/TARGET_STM/TARGET_STM32F4/device/stm32f4xx_hal_gpio.c 0x00000000   Number         0  mbed/TARGET_NUCLEO_F401RE/TOOLCHAIN_ARM_STD/stm32f4xx_hal_gpio.o ABSOLUTE
    /builds/ws/mbed-os-ci_mbed2-build-ARM@5/mbed-os/targets/TARGET_STM/TARGET_STM32F4/device/stm32f4xx_hal_gpio.c 0x00000000   Number         0  mbed/TARGET_NUCLEO_F401RE/TOOLCHAIN_ARM_STD/stm32f4xx_hal_gpio.o ABSOLUTE
    /builds/ws/mbed-os-ci_mbed2-build-ARM@5/mbed-os/targets/TARGET_STM/TARGET_STM32F4/device/stm32f4xx_hal_hash.c 0x00000000   Number         0  mbed/TARGET_NUCLEO_F401RE/TOOLCHAIN_ARM_STD/stm32f4xx_hal_hash.o ABSOLUTE
    /builds/ws/mbed-os-ci_mbed2-build-ARM@5/mbed-os/targets/TARGET_STM/TARGET_STM32F4/device/stm32f4xx_hal_hash.c 0x00000000   Number         0  mbed/TARGET_NUCLEO_F401RE/TOOLCHAIN_ARM_STD/stm32f4xx_hal_hash.o ABSOLUTE
    /builds/ws/mbed-os-ci_mbed2-build-ARM@5/mbed-os/targets/TARGET_STM/TARGET_STM32F4/device/stm32f4xx_hal_hash_ex.c 0x00000000   Number         0  mbed/TARGET_NUCLEO_F401RE/TOOLCHAIN_ARM_STD/stm32f4xx_hal_hash_ex.o ABSOLUTE
    /builds/ws/mbed-os-ci_mbed2-build-ARM@5/mbed-os/targets/TARGET_STM/TARGET_STM32F4/device/stm32f4xx_hal_hash_ex.c 0x00000000   Number         0  mbed/TARGET_NUCLEO_F401RE/TOOLCHAIN_ARM_STD/stm32f4xx_hal_hash_ex.o ABSOLUTE
    /builds/ws/mbed-os-ci_mbed2-build-ARM@5/mbed-os/targets/TARGET_STM/TARGET_STM32F4/device/stm32f4xx_hal_hcd.c 0x00000000   Number         0  mbed/TARGET_NUCLEO_F401RE/TOOLCHAIN_ARM_STD/stm32f4xx_hal_hcd.o ABSOLUTE
    /builds/ws/mbed-os-ci_mbed2-build-ARM@5/mbed-os/targets/TARGET_STM/TARGET_STM32F4/device/stm32f4xx_hal_hcd.c 0x00000000   Number         0  mbed/TARGET_NUCLEO_F401RE/TOOLCHAIN_ARM_STD/stm32f4xx_hal_hcd.o ABSOLUTE
    /builds/ws/mbed-os-ci_mbed2-build-ARM@5/mbed-os/targets/TARGET_STM/TARGET_STM32F4/device/stm32f4xx_hal_i2c.c 0x00000000   Number         0  mbed/TARGET_NUCLEO_F401RE/TOOLCHAIN_ARM_STD/stm32f4xx_hal_i2c.o ABSOLUTE
    /builds/ws/mbed-os-ci_mbed2-build-ARM@5/mbed-os/targets/TARGET_STM/TARGET_STM32F4/device/stm32f4xx_hal_i2c.c 0x00000000   Number         0  mbed/TARGET_NUCLEO_F401RE/TOOLCHAIN_ARM_STD/stm32f4xx_hal_i2c.o ABSOLUTE
    /builds/ws/mbed-os-ci_mbed2-build-ARM@5/mbed-os/targets/TARGET_STM/TARGET_STM32F4/device/stm32f4xx_hal_i2c_ex.c 0x00000000   Number         0  mbed/TARGET_NUCLEO_F401RE/TOOLCHAIN_ARM_STD/stm32f4xx_hal_i2c_ex.o ABSOLUTE
    /builds/ws/mbed-os-ci_mbed2-build-ARM@5/mbed-os/targets/TARGET_STM/TARGET_STM32F4/device/stm32f4xx_hal_i2c_ex.c 0x00000000   Number         0  mbed/TARGET_NUCLEO_F401RE/TOOLCHAIN_ARM_STD/stm32f4xx_hal_i2c_ex.o ABSOLUTE
    /builds/ws/mbed-os-ci_mbed2-build-ARM@5/mbed-os/targets/TARGET_STM/TARGET_STM32F4/device/stm32f4xx_hal_i2s.c 0x00000000   Number         0  mbed/TARGET_NUCLEO_F401RE/TOOLCHAIN_ARM_STD/stm32f4xx_hal_i2s.o ABSOLUTE
    /builds/ws/mbed-os-ci_mbed2-build-ARM@5/mbed-os/targets/TARGET_STM/TARGET_STM32F4/device/stm32f4xx_hal_i2s.c 0x00000000   Number         0  mbed/TARGET_NUCLEO_F401RE/TOOLCHAIN_ARM_STD/stm32f4xx_hal_i2s.o ABSOLUTE
    /builds/ws/mbed-os-ci_mbed2-build-ARM@5/mbed-os/targets/TARGET_STM/TARGET_STM32F4/device/stm32f4xx_hal_i2s_ex.c 0x00000000   Number         0  mbed/TARGET_NUCLEO_F401RE/TOOLCHAIN_ARM_STD/stm32f4xx_hal_i2s_ex.o ABSOLUTE
    /builds/ws/mbed-os-ci_mbed2-build-ARM@5/mbed-os/targets/TARGET_STM/TARGET_STM32F4/device/stm32f4xx_hal_i2s_ex.c 0x00000000   Number         0  mbed/TARGET_NUCLEO_F401RE/TOOLCHAIN_ARM_STD/stm32f4xx_hal_i2s_ex.o ABSOLUTE
    /builds/ws/mbed-os-ci_mbed2-build-ARM@5/mbed-os/targets/TARGET_STM/TARGET_STM32F4/device/stm32f4xx_hal_irda.c 0x00000000   Number         0  mbed/TARGET_NUCLEO_F401RE/TOOLCHAIN_ARM_STD/stm32f4xx_hal_irda.o ABSOLUTE
    /builds/ws/mbed-os-ci_mbed2-build-ARM@5/mbed-os/targets/TARGET_STM/TARGET_STM32F4/device/stm32f4xx_hal_irda.c 0x00000000   Number         0  mbed/TARGET_NUCLEO_F401RE/TOOLCHAIN_ARM_STD/stm32f4xx_hal_irda.o ABSOLUTE
    /builds/ws/mbed-os-ci_mbed2-build-ARM@5/mbed-os/targets/TARGET_STM/TARGET_STM32F4/device/stm32f4xx_hal_iwdg.c 0x00000000   Number         0  mbed/TARGET_NUCLEO_F401RE/TOOLCHAIN_ARM_STD/stm32f4xx_hal_iwdg.o ABSOLUTE
    /builds/ws/mbed-os-ci_mbed2-build-ARM@5/mbed-os/targets/TARGET_STM/TARGET_STM32F4/device/stm32f4xx_hal_iwdg.c 0x00000000   Number         0  mbed/TARGET_NUCLEO_F401RE/TOOLCHAIN_ARM_STD/stm32f4xx_hal_iwdg.o ABSOLUTE
    /builds/ws/mbed-os-ci_mbed2-build-ARM@5/mbed-os/targets/TARGET_STM/TARGET_STM32F4/device/stm32f4xx_hal_lptim.c 0x00000000   Number         0  mbed/TARGET_NUCLEO_F401RE/TOOLCHAIN_ARM_STD/stm32f4xx_hal_lptim.o ABSOLUTE
    /builds/ws/mbed-os-ci_mbed2-build-ARM@5/mbed-os/targets/TARGET_STM/TARGET_STM32F4/device/stm32f4xx_hal_lptim.c 0x00000000   Number         0  mbed/TARGET_NUCLEO_F401RE/TOOLCHAIN_ARM_STD/stm32f4xx_hal_lptim.o ABSOLUTE
    /builds/ws/mbed-os-ci_mbed2-build-ARM@5/mbed-os/targets/TARGET_STM/TARGET_STM32F4/device/stm32f4xx_hal_ltdc.c 0x00000000   Number         0  mbed/TARGET_NUCLEO_F401RE/TOOLCHAIN_ARM_STD/stm32f4xx_hal_ltdc.o ABSOLUTE
    /builds/ws/mbed-os-ci_mbed2-build-ARM@5/mbed-os/targets/TARGET_STM/TARGET_STM32F4/device/stm32f4xx_hal_ltdc.c 0x00000000   Number         0  mbed/TARGET_NUCLEO_F401RE/TOOLCHAIN_ARM_STD/stm32f4xx_hal_ltdc.o ABSOLUTE
    /builds/ws/mbed-os-ci_mbed2-build-ARM@5/mbed-os/targets/TARGET_STM/TARGET_STM32F4/device/stm32f4xx_hal_ltdc_ex.c 0x00000000   Number         0  mbed/TARGET_NUCLEO_F401RE/TOOLCHAIN_ARM_STD/stm32f4xx_hal_ltdc_ex.o ABSOLUTE
    /builds/ws/mbed-os-ci_mbed2-build-ARM@5/mbed-os/targets/TARGET_STM/TARGET_STM32F4/device/stm32f4xx_hal_ltdc_ex.c 0x00000000   Number         0  mbed/TARGET_NUCLEO_F401RE/TOOLCHAIN_ARM_STD/stm32f4xx_hal_ltdc_ex.o ABSOLUTE
    /builds/ws/mbed-os-ci_mbed2-build-ARM@5/mbed-os/targets/TARGET_STM/TARGET_STM32F4/device/stm32f4xx_hal_mmc.c 0x00000000   Number         0  mbed/TARGET_NUCLEO_F401RE/TOOLCHAIN_ARM_STD/stm32f4xx_hal_mmc.o ABSOLUTE
    /builds/ws/mbed-os-ci_mbed2-build-ARM@5/mbed-os/targets/TARGET_STM/TARGET_STM32F4/device/stm32f4xx_hal_mmc.c 0x00000000   Number         0  mbed/TARGET_NUCLEO_F401RE/TOOLCHAIN_ARM_STD/stm32f4xx_hal_mmc.o ABSOLUTE
    /builds/ws/mbed-os-ci_mbed2-build-ARM@5/mbed-os/targets/TARGET_STM/TARGET_STM32F4/device/stm32f4xx_hal_nand.c 0x00000000   Number         0  mbed/TARGET_NUCLEO_F401RE/TOOLCHAIN_ARM_STD/stm32f4xx_hal_nand.o ABSOLUTE
    /builds/ws/mbed-os-ci_mbed2-build-ARM@5/mbed-os/targets/TARGET_STM/TARGET_STM32F4/device/stm32f4xx_hal_nand.c 0x00000000   Number         0  mbed/TARGET_NUCLEO_F401RE/TOOLCHAIN_ARM_STD/stm32f4xx_hal_nand.o ABSOLUTE
    /builds/ws/mbed-os-ci_mbed2-build-ARM@5/mbed-os/targets/TARGET_STM/TARGET_STM32F4/device/stm32f4xx_hal_nor.c 0x00000000   Number         0  mbed/TARGET_NUCLEO_F401RE/TOOLCHAIN_ARM_STD/stm32f4xx_hal_nor.o ABSOLUTE
    /builds/ws/mbed-os-ci_mbed2-build-ARM@5/mbed-os/targets/TARGET_STM/TARGET_STM32F4/device/stm32f4xx_hal_nor.c 0x00000000   Number         0  mbed/TARGET_NUCLEO_F401RE/TOOLCHAIN_ARM_STD/stm32f4xx_hal_nor.o ABSOLUTE
    /builds/ws/mbed-os-ci_mbed2-build-ARM@5/mbed-os/targets/TARGET_STM/TARGET_STM32F4/device/stm32f4xx_hal_pccard.c 0x00000000   Number         0  mbed/TARGET_NUCLEO_F401RE/TOOLCHAIN_ARM_STD/stm32f4xx_hal_pccard.o ABSOLUTE
    /builds/ws/mbed-os-ci_mbed2-build-ARM@5/mbed-os/targets/TARGET_STM/TARGET_STM32F4/device/stm32f4xx_hal_pccard.c 0x00000000   Number         0  mbed/TARGET_NUCLEO_F401RE/TOOLCHAIN_ARM_STD/stm32f4xx_hal_pccard.o ABSOLUTE
    /builds/ws/mbed-os-ci_mbed2-build-ARM@5/mbed-os/targets/TARGET_STM/TARGET_STM32F4/device/stm32f4xx_hal_pcd.c 0x00000000   Number         0  mbed/TARGET_NUCLEO_F401RE/TOOLCHAIN_ARM_STD/stm32f4xx_hal_pcd.o ABSOLUTE
    /builds/ws/mbed-os-ci_mbed2-build-ARM@5/mbed-os/targets/TARGET_STM/TARGET_STM32F4/device/stm32f4xx_hal_pcd.c 0x00000000   Number         0  mbed/TARGET_NUCLEO_F401RE/TOOLCHAIN_ARM_STD/stm32f4xx_hal_pcd.o ABSOLUTE
    /builds/ws/mbed-os-ci_mbed2-build-ARM@5/mbed-os/targets/TARGET_STM/TARGET_STM32F4/device/stm32f4xx_hal_pcd_ex.c 0x00000000   Number         0  mbed/TARGET_NUCLEO_F401RE/TOOLCHAIN_ARM_STD/stm32f4xx_hal_pcd_ex.o ABSOLUTE
    /builds/ws/mbed-os-ci_mbed2-build-ARM@5/mbed-os/targets/TARGET_STM/TARGET_STM32F4/device/stm32f4xx_hal_pcd_ex.c 0x00000000   Number         0  mbed/TARGET_NUCLEO_F401RE/TOOLCHAIN_ARM_STD/stm32f4xx_hal_pcd_ex.o ABSOLUTE
    /builds/ws/mbed-os-ci_mbed2-build-ARM@5/mbed-os/targets/TARGET_STM/TARGET_STM32F4/device/stm32f4xx_hal_pwr.c 0x00000000   Number         0  mbed/TARGET_NUCLEO_F401RE/TOOLCHAIN_ARM_STD/stm32f4xx_hal_pwr.o ABSOLUTE
    /builds/ws/mbed-os-ci_mbed2-build-ARM@5/mbed-os/targets/TARGET_STM/TARGET_STM32F4/device/stm32f4xx_hal_pwr.c 0x00000000   Number         0  mbed/TARGET_NUCLEO_F401RE/TOOLCHAIN_ARM_STD/stm32f4xx_hal_pwr.o ABSOLUTE
    /builds/ws/mbed-os-ci_mbed2-build-ARM@5/mbed-os/targets/TARGET_STM/TARGET_STM32F4/device/stm32f4xx_hal_pwr_ex.c 0x00000000   Number         0  mbed/TARGET_NUCLEO_F401RE/TOOLCHAIN_ARM_STD/stm32f4xx_hal_pwr_ex.o ABSOLUTE
    /builds/ws/mbed-os-ci_mbed2-build-ARM@5/mbed-os/targets/TARGET_STM/TARGET_STM32F4/device/stm32f4xx_hal_pwr_ex.c 0x00000000   Number         0  mbed/TARGET_NUCLEO_F401RE/TOOLCHAIN_ARM_STD/stm32f4xx_hal_pwr_ex.o ABSOLUTE
    /builds/ws/mbed-os-ci_mbed2-build-ARM@5/mbed-os/targets/TARGET_STM/TARGET_STM32F4/device/stm32f4xx_hal_qspi.c 0x00000000   Number         0  mbed/TARGET_NUCLEO_F401RE/TOOLCHAIN_ARM_STD/stm32f4xx_hal_qspi.o ABSOLUTE
    /builds/ws/mbed-os-ci_mbed2-build-ARM@5/mbed-os/targets/TARGET_STM/TARGET_STM32F4/device/stm32f4xx_hal_qspi.c 0x00000000   Number         0  mbed/TARGET_NUCLEO_F401RE/TOOLCHAIN_ARM_STD/stm32f4xx_hal_qspi.o ABSOLUTE
    /builds/ws/mbed-os-ci_mbed2-build-ARM@5/mbed-os/targets/TARGET_STM/TARGET_STM32F4/device/stm32f4xx_hal_rcc.c 0x00000000   Number         0  mbed/TARGET_NUCLEO_F401RE/TOOLCHAIN_ARM_STD/stm32f4xx_hal_rcc.o ABSOLUTE
    /builds/ws/mbed-os-ci_mbed2-build-ARM@5/mbed-os/targets/TARGET_STM/TARGET_STM32F4/device/stm32f4xx_hal_rcc.c 0x00000000   Number         0  mbed/TARGET_NUCLEO_F401RE/TOOLCHAIN_ARM_STD/stm32f4xx_hal_rcc.o ABSOLUTE
    /builds/ws/mbed-os-ci_mbed2-build-ARM@5/mbed-os/targets/TARGET_STM/TARGET_STM32F4/device/stm32f4xx_hal_rcc_ex.c 0x00000000   Number         0  mbed/TARGET_NUCLEO_F401RE/TOOLCHAIN_ARM_STD/stm32f4xx_hal_rcc_ex.o ABSOLUTE
    /builds/ws/mbed-os-ci_mbed2-build-ARM@5/mbed-os/targets/TARGET_STM/TARGET_STM32F4/device/stm32f4xx_hal_rcc_ex.c 0x00000000   Number         0  mbed/TARGET_NUCLEO_F401RE/TOOLCHAIN_ARM_STD/stm32f4xx_hal_rcc_ex.o ABSOLUTE
    /builds/ws/mbed-os-ci_mbed2-build-ARM@5/mbed-os/targets/TARGET_STM/TARGET_STM32F4/device/stm32f4xx_hal_rng.c 0x00000000   Number         0  mbed/TARGET_NUCLEO_F401RE/TOOLCHAIN_ARM_STD/stm32f4xx_hal_rng.o ABSOLUTE
    /builds/ws/mbed-os-ci_mbed2-build-ARM@5/mbed-os/targets/TARGET_STM/TARGET_STM32F4/device/stm32f4xx_hal_rng.c 0x00000000   Number         0  mbed/TARGET_NUCLEO_F401RE/TOOLCHAIN_ARM_STD/stm32f4xx_hal_rng.o ABSOLUTE
    /builds/ws/mbed-os-ci_mbed2-build-ARM@5/mbed-os/targets/TARGET_STM/TARGET_STM32F4/device/stm32f4xx_hal_rtc.c 0x00000000   Number         0  mbed/TARGET_NUCLEO_F401RE/TOOLCHAIN_ARM_STD/stm32f4xx_hal_rtc.o ABSOLUTE
    /builds/ws/mbed-os-ci_mbed2-build-ARM@5/mbed-os/targets/TARGET_STM/TARGET_STM32F4/device/stm32f4xx_hal_rtc.c 0x00000000   Number         0  mbed/TARGET_NUCLEO_F401RE/TOOLCHAIN_ARM_STD/stm32f4xx_hal_rtc.o ABSOLUTE
    /builds/ws/mbed-os-ci_mbed2-build-ARM@5/mbed-os/targets/TARGET_STM/TARGET_STM32F4/device/stm32f4xx_hal_rtc_ex.c 0x00000000   Number         0  mbed/TARGET_NUCLEO_F401RE/TOOLCHAIN_ARM_STD/stm32f4xx_hal_rtc_ex.o ABSOLUTE
    /builds/ws/mbed-os-ci_mbed2-build-ARM@5/mbed-os/targets/TARGET_STM/TARGET_STM32F4/device/stm32f4xx_hal_rtc_ex.c 0x00000000   Number         0  mbed/TARGET_NUCLEO_F401RE/TOOLCHAIN_ARM_STD/stm32f4xx_hal_rtc_ex.o ABSOLUTE
    /builds/ws/mbed-os-ci_mbed2-build-ARM@5/mbed-os/targets/TARGET_STM/TARGET_STM32F4/device/stm32f4xx_hal_sai.c 0x00000000   Number         0  mbed/TARGET_NUCLEO_F401RE/TOOLCHAIN_ARM_STD/stm32f4xx_hal_sai.o ABSOLUTE
    /builds/ws/mbed-os-ci_mbed2-build-ARM@5/mbed-os/targets/TARGET_STM/TARGET_STM32F4/device/stm32f4xx_hal_sai.c 0x00000000   Number         0  mbed/TARGET_NUCLEO_F401RE/TOOLCHAIN_ARM_STD/stm32f4xx_hal_sai.o ABSOLUTE
    /builds/ws/mbed-os-ci_mbed2-build-ARM@5/mbed-os/targets/TARGET_STM/TARGET_STM32F4/device/stm32f4xx_hal_sai_ex.c 0x00000000   Number         0  mbed/TARGET_NUCLEO_F401RE/TOOLCHAIN_ARM_STD/stm32f4xx_hal_sai_ex.o ABSOLUTE
    /builds/ws/mbed-os-ci_mbed2-build-ARM@5/mbed-os/targets/TARGET_STM/TARGET_STM32F4/device/stm32f4xx_hal_sai_ex.c 0x00000000   Number         0  mbed/TARGET_NUCLEO_F401RE/TOOLCHAIN_ARM_STD/stm32f4xx_hal_sai_ex.o ABSOLUTE
    /builds/ws/mbed-os-ci_mbed2-build-ARM@5/mbed-os/targets/TARGET_STM/TARGET_STM32F4/device/stm32f4xx_hal_sd.c 0x00000000   Number         0  mbed/TARGET_NUCLEO_F401RE/TOOLCHAIN_ARM_STD/stm32f4xx_hal_sd.o ABSOLUTE
    /builds/ws/mbed-os-ci_mbed2-build-ARM@5/mbed-os/targets/TARGET_STM/TARGET_STM32F4/device/stm32f4xx_hal_sd.c 0x00000000   Number         0  mbed/TARGET_NUCLEO_F401RE/TOOLCHAIN_ARM_STD/stm32f4xx_hal_sd.o ABSOLUTE
    /builds/ws/mbed-os-ci_mbed2-build-ARM@5/mbed-os/targets/TARGET_STM/TARGET_STM32F4/device/stm32f4xx_hal_sdram.c 0x00000000   Number         0  mbed/TARGET_NUCLEO_F401RE/TOOLCHAIN_ARM_STD/stm32f4xx_hal_sdram.o ABSOLUTE
    /builds/ws/mbed-os-ci_mbed2-build-ARM@5/mbed-os/targets/TARGET_STM/TARGET_STM32F4/device/stm32f4xx_hal_sdram.c 0x00000000   Number         0  mbed/TARGET_NUCLEO_F401RE/TOOLCHAIN_ARM_STD/stm32f4xx_hal_sdram.o ABSOLUTE
    /builds/ws/mbed-os-ci_mbed2-build-ARM@5/mbed-os/targets/TARGET_STM/TARGET_STM32F4/device/stm32f4xx_hal_smartcard.c 0x00000000   Number         0  mbed/TARGET_NUCLEO_F401RE/TOOLCHAIN_ARM_STD/stm32f4xx_hal_smartcard.o ABSOLUTE
    /builds/ws/mbed-os-ci_mbed2-build-ARM@5/mbed-os/targets/TARGET_STM/TARGET_STM32F4/device/stm32f4xx_hal_smartcard.c 0x00000000   Number         0  mbed/TARGET_NUCLEO_F401RE/TOOLCHAIN_ARM_STD/stm32f4xx_hal_smartcard.o ABSOLUTE
    /builds/ws/mbed-os-ci_mbed2-build-ARM@5/mbed-os/targets/TARGET_STM/TARGET_STM32F4/device/stm32f4xx_hal_spdifrx.c 0x00000000   Number         0  mbed/TARGET_NUCLEO_F401RE/TOOLCHAIN_ARM_STD/stm32f4xx_hal_spdifrx.o ABSOLUTE
    /builds/ws/mbed-os-ci_mbed2-build-ARM@5/mbed-os/targets/TARGET_STM/TARGET_STM32F4/device/stm32f4xx_hal_spdifrx.c 0x00000000   Number         0  mbed/TARGET_NUCLEO_F401RE/TOOLCHAIN_ARM_STD/stm32f4xx_hal_spdifrx.o ABSOLUTE
    /builds/ws/mbed-os-ci_mbed2-build-ARM@5/mbed-os/targets/TARGET_STM/TARGET_STM32F4/device/stm32f4xx_hal_spi.c 0x00000000   Number         0  mbed/TARGET_NUCLEO_F401RE/TOOLCHAIN_ARM_STD/stm32f4xx_hal_spi.o ABSOLUTE
    /builds/ws/mbed-os-ci_mbed2-build-ARM@5/mbed-os/targets/TARGET_STM/TARGET_STM32F4/device/stm32f4xx_hal_spi.c 0x00000000   Number         0  mbed/TARGET_NUCLEO_F401RE/TOOLCHAIN_ARM_STD/stm32f4xx_hal_spi.o ABSOLUTE
    /builds/ws/mbed-os-ci_mbed2-build-ARM@5/mbed-os/targets/TARGET_STM/TARGET_STM32F4/device/stm32f4xx_hal_sram.c 0x00000000   Number         0  mbed/TARGET_NUCLEO_F401RE/TOOLCHAIN_ARM_STD/stm32f4xx_hal_sram.o ABSOLUTE
    /builds/ws/mbed-os-ci_mbed2-build-ARM@5/mbed-os/targets/TARGET_STM/TARGET_STM32F4/device/stm32f4xx_hal_sram.c 0x00000000   Number         0  mbed/TARGET_NUCLEO_F401RE/TOOLCHAIN_ARM_STD/stm32f4xx_hal_sram.o ABSOLUTE
    /builds/ws/mbed-os-ci_mbed2-build-ARM@5/mbed-os/targets/TARGET_STM/TARGET_STM32F4/device/stm32f4xx_hal_tim.c 0x00000000   Number         0  mbed/TARGET_NUCLEO_F401RE/TOOLCHAIN_ARM_STD/stm32f4xx_hal_tim.o ABSOLUTE
    /builds/ws/mbed-os-ci_mbed2-build-ARM@5/mbed-os/targets/TARGET_STM/TARGET_STM32F4/device/stm32f4xx_hal_tim.c 0x00000000   Number         0  mbed/TARGET_NUCLEO_F401RE/TOOLCHAIN_ARM_STD/stm32f4xx_hal_tim.o ABSOLUTE
    /builds/ws/mbed-os-ci_mbed2-build-ARM@5/mbed-os/targets/TARGET_STM/TARGET_STM32F4/device/stm32f4xx_hal_tim_ex.c 0x00000000   Number         0  mbed/TARGET_NUCLEO_F401RE/TOOLCHAIN_ARM_STD/stm32f4xx_hal_tim_ex.o ABSOLUTE
    /builds/ws/mbed-os-ci_mbed2-build-ARM@5/mbed-os/targets/TARGET_STM/TARGET_STM32F4/device/stm32f4xx_hal_tim_ex.c 0x00000000   Number         0  mbed/TARGET_NUCLEO_F401RE/TOOLCHAIN_ARM_STD/stm32f4xx_hal_tim_ex.o ABSOLUTE
    /builds/ws/mbed-os-ci_mbed2-build-ARM@5/mbed-os/targets/TARGET_STM/TARGET_STM32F4/device/stm32f4xx_hal_uart.c 0x00000000   Number         0  mbed/TARGET_NUCLEO_F401RE/TOOLCHAIN_ARM_STD/stm32f4xx_hal_uart.o ABSOLUTE
    /builds/ws/mbed-os-ci_mbed2-build-ARM@5/mbed-os/targets/TARGET_STM/TARGET_STM32F4/device/stm32f4xx_hal_uart.c 0x00000000   Number         0  mbed/TARGET_NUCLEO_F401RE/TOOLCHAIN_ARM_STD/stm32f4xx_hal_uart.o ABSOLUTE
    /builds/ws/mbed-os-ci_mbed2-build-ARM@5/mbed-os/targets/TARGET_STM/TARGET_STM32F4/device/stm32f4xx_hal_usart.c 0x00000000   Number         0  mbed/TARGET_NUCLEO_F401RE/TOOLCHAIN_ARM_STD/stm32f4xx_hal_usart.o ABSOLUTE
    /builds/ws/mbed-os-ci_mbed2-build-ARM@5/mbed-os/targets/TARGET_STM/TARGET_STM32F4/device/stm32f4xx_hal_usart.c 0x00000000   Number         0  mbed/TARGET_NUCLEO_F401RE/TOOLCHAIN_ARM_STD/stm32f4xx_hal_usart.o ABSOLUTE
    /builds/ws/mbed-os-ci_mbed2-build-ARM@5/mbed-os/targets/TARGET_STM/TARGET_STM32F4/device/stm32f4xx_hal_wwdg.c 0x00000000   Number         0  mbed/TARGET_NUCLEO_F401RE/TOOLCHAIN_ARM_STD/stm32f4xx_hal_wwdg.o ABSOLUTE
    /builds/ws/mbed-os-ci_mbed2-build-ARM@5/mbed-os/targets/TARGET_STM/TARGET_STM32F4/device/stm32f4xx_hal_wwdg.c 0x00000000   Number         0  mbed/TARGET_NUCLEO_F401RE/TOOLCHAIN_ARM_STD/stm32f4xx_hal_wwdg.o ABSOLUTE
    /builds/ws/mbed-os-ci_mbed2-build-ARM@5/mbed-os/targets/TARGET_STM/TARGET_STM32F4/device/stm32f4xx_ll_adc.c 0x00000000   Number         0  mbed/TARGET_NUCLEO_F401RE/TOOLCHAIN_ARM_STD/stm32f4xx_ll_adc.o ABSOLUTE
    /builds/ws/mbed-os-ci_mbed2-build-ARM@5/mbed-os/targets/TARGET_STM/TARGET_STM32F4/device/stm32f4xx_ll_crc.c 0x00000000   Number         0  mbed/TARGET_NUCLEO_F401RE/TOOLCHAIN_ARM_STD/stm32f4xx_ll_crc.o ABSOLUTE
    /builds/ws/mbed-os-ci_mbed2-build-ARM@5/mbed-os/targets/TARGET_STM/TARGET_STM32F4/device/stm32f4xx_ll_dac.c 0x00000000   Number         0  mbed/TARGET_NUCLEO_F401RE/TOOLCHAIN_ARM_STD/stm32f4xx_ll_dac.o ABSOLUTE
    /builds/ws/mbed-os-ci_mbed2-build-ARM@5/mbed-os/targets/TARGET_STM/TARGET_STM32F4/device/stm32f4xx_ll_dma.c 0x00000000   Number         0  mbed/TARGET_NUCLEO_F401RE/TOOLCHAIN_ARM_STD/stm32f4xx_ll_dma.o ABSOLUTE
    /builds/ws/mbed-os-ci_mbed2-build-ARM@5/mbed-os/targets/TARGET_STM/TARGET_STM32F4/device/stm32f4xx_ll_dma2d.c 0x00000000   Number         0  mbed/TARGET_NUCLEO_F401RE/TOOLCHAIN_ARM_STD/stm32f4xx_ll_dma2d.o ABSOLUTE
    /builds/ws/mbed-os-ci_mbed2-build-ARM@5/mbed-os/targets/TARGET_STM/TARGET_STM32F4/device/stm32f4xx_ll_exti.c 0x00000000   Number         0  mbed/TARGET_NUCLEO_F401RE/TOOLCHAIN_ARM_STD/stm32f4xx_ll_exti.o ABSOLUTE
    /builds/ws/mbed-os-ci_mbed2-build-ARM@5/mbed-os/targets/TARGET_STM/TARGET_STM32F4/device/stm32f4xx_ll_fmc.c 0x00000000   Number         0  mbed/TARGET_NUCLEO_F401RE/TOOLCHAIN_ARM_STD/stm32f4xx_ll_fmc.o ABSOLUTE
    /builds/ws/mbed-os-ci_mbed2-build-ARM@5/mbed-os/targets/TARGET_STM/TARGET_STM32F4/device/stm32f4xx_ll_fmc.c 0x00000000   Number         0  mbed/TARGET_NUCLEO_F401RE/TOOLCHAIN_ARM_STD/stm32f4xx_ll_fmc.o ABSOLUTE
    /builds/ws/mbed-os-ci_mbed2-build-ARM@5/mbed-os/targets/TARGET_STM/TARGET_STM32F4/device/stm32f4xx_ll_fsmc.c 0x00000000   Number         0  mbed/TARGET_NUCLEO_F401RE/TOOLCHAIN_ARM_STD/stm32f4xx_ll_fsmc.o ABSOLUTE
    /builds/ws/mbed-os-ci_mbed2-build-ARM@5/mbed-os/targets/TARGET_STM/TARGET_STM32F4/device/stm32f4xx_ll_fsmc.c 0x00000000   Number         0  mbed/TARGET_NUCLEO_F401RE/TOOLCHAIN_ARM_STD/stm32f4xx_ll_fsmc.o ABSOLUTE
    /builds/ws/mbed-os-ci_mbed2-build-ARM@5/mbed-os/targets/TARGET_STM/TARGET_STM32F4/device/stm32f4xx_ll_gpio.c 0x00000000   Number         0  mbed/TARGET_NUCLEO_F401RE/TOOLCHAIN_ARM_STD/stm32f4xx_ll_gpio.o ABSOLUTE
    /builds/ws/mbed-os-ci_mbed2-build-ARM@5/mbed-os/targets/TARGET_STM/TARGET_STM32F4/device/stm32f4xx_ll_i2c.c 0x00000000   Number         0  mbed/TARGET_NUCLEO_F401RE/TOOLCHAIN_ARM_STD/stm32f4xx_ll_i2c.o ABSOLUTE
    /builds/ws/mbed-os-ci_mbed2-build-ARM@5/mbed-os/targets/TARGET_STM/TARGET_STM32F4/device/stm32f4xx_ll_lptim.c 0x00000000   Number         0  mbed/TARGET_NUCLEO_F401RE/TOOLCHAIN_ARM_STD/stm32f4xx_ll_lptim.o ABSOLUTE
    /builds/ws/mbed-os-ci_mbed2-build-ARM@5/mbed-os/targets/TARGET_STM/TARGET_STM32F4/device/stm32f4xx_ll_pwr.c 0x00000000   Number         0  mbed/TARGET_NUCLEO_F401RE/TOOLCHAIN_ARM_STD/stm32f4xx_ll_pwr.o ABSOLUTE
    /builds/ws/mbed-os-ci_mbed2-build-ARM@5/mbed-os/targets/TARGET_STM/TARGET_STM32F4/device/stm32f4xx_ll_rcc.c 0x00000000   Number         0  mbed/TARGET_NUCLEO_F401RE/TOOLCHAIN_ARM_STD/stm32f4xx_ll_rcc.o ABSOLUTE
    /builds/ws/mbed-os-ci_mbed2-build-ARM@5/mbed-os/targets/TARGET_STM/TARGET_STM32F4/device/stm32f4xx_ll_rng.c 0x00000000   Number         0  mbed/TARGET_NUCLEO_F401RE/TOOLCHAIN_ARM_STD/stm32f4xx_ll_rng.o ABSOLUTE
    /builds/ws/mbed-os-ci_mbed2-build-ARM@5/mbed-os/targets/TARGET_STM/TARGET_STM32F4/device/stm32f4xx_ll_rtc.c 0x00000000   Number         0  mbed/TARGET_NUCLEO_F401RE/TOOLCHAIN_ARM_STD/stm32f4xx_ll_rtc.o ABSOLUTE
    /builds/ws/mbed-os-ci_mbed2-build-ARM@5/mbed-os/targets/TARGET_STM/TARGET_STM32F4/device/stm32f4xx_ll_sdmmc.c 0x00000000   Number         0  mbed/TARGET_NUCLEO_F401RE/TOOLCHAIN_ARM_STD/stm32f4xx_ll_sdmmc.o ABSOLUTE
    /builds/ws/mbed-os-ci_mbed2-build-ARM@5/mbed-os/targets/TARGET_STM/TARGET_STM32F4/device/stm32f4xx_ll_sdmmc.c 0x00000000   Number         0  mbed/TARGET_NUCLEO_F401RE/TOOLCHAIN_ARM_STD/stm32f4xx_ll_sdmmc.o ABSOLUTE
    /builds/ws/mbed-os-ci_mbed2-build-ARM@5/mbed-os/targets/TARGET_STM/TARGET_STM32F4/device/stm32f4xx_ll_spi.c 0x00000000   Number         0  mbed/TARGET_NUCLEO_F401RE/TOOLCHAIN_ARM_STD/stm32f4xx_ll_spi.o ABSOLUTE
    /builds/ws/mbed-os-ci_mbed2-build-ARM@5/mbed-os/targets/TARGET_STM/TARGET_STM32F4/device/stm32f4xx_ll_tim.c 0x00000000   Number         0  mbed/TARGET_NUCLEO_F401RE/TOOLCHAIN_ARM_STD/stm32f4xx_ll_tim.o ABSOLUTE
    /builds/ws/mbed-os-ci_mbed2-build-ARM@5/mbed-os/targets/TARGET_STM/TARGET_STM32F4/device/stm32f4xx_ll_usart.c 0x00000000   Number         0  mbed/TARGET_NUCLEO_F401RE/TOOLCHAIN_ARM_STD/stm32f4xx_ll_usart.o ABSOLUTE
    /builds/ws/mbed-os-ci_mbed2-build-ARM@5/mbed-os/targets/TARGET_STM/TARGET_STM32F4/device/stm32f4xx_ll_usb.c 0x00000000   Number         0  mbed/TARGET_NUCLEO_F401RE/TOOLCHAIN_ARM_STD/stm32f4xx_ll_usb.o ABSOLUTE
    /builds/ws/mbed-os-ci_mbed2-build-ARM@5/mbed-os/targets/TARGET_STM/TARGET_STM32F4/device/stm32f4xx_ll_usb.c 0x00000000   Number         0  mbed/TARGET_NUCLEO_F401RE/TOOLCHAIN_ARM_STD/stm32f4xx_ll_usb.o ABSOLUTE
    /builds/ws/mbed-os-ci_mbed2-build-ARM@5/mbed-os/targets/TARGET_STM/TARGET_STM32F4/device/stm32f4xx_ll_utils.c 0x00000000   Number         0  mbed/TARGET_NUCLEO_F401RE/TOOLCHAIN_ARM_STD/stm32f4xx_ll_utils.o ABSOLUTE
    /builds/ws/mbed-os-ci_mbed2-build-ARM@5/mbed-os/targets/TARGET_STM/TARGET_STM32F4/device/stm32f4xx_ll_utils.c 0x00000000   Number         0  mbed/TARGET_NUCLEO_F401RE/TOOLCHAIN_ARM_STD/stm32f4xx_ll_utils.o ABSOLUTE
    /builds/ws/mbed-os-ci_mbed2-build-ARM@5/mbed-os/targets/TARGET_STM/TARGET_STM32F4/device/system_stm32f4xx.c 0x00000000   Number         0  mbed/TARGET_NUCLEO_F401RE/TOOLCHAIN_ARM_STD/system_stm32f4xx.o ABSOLUTE
    /builds/ws/mbed-os-ci_mbed2-build-ARM@5/mbed-os/targets/TARGET_STM/TARGET_STM32F4/device/system_stm32f4xx.c 0x00000000   Number         0  mbed/TARGET_NUCLEO_F401RE/TOOLCHAIN_ARM_STD/system_stm32f4xx.o ABSOLUTE
    /builds/ws/mbed-os-ci_mbed2-build-ARM@5/mbed-os/targets/TARGET_STM/TARGET_STM32F4/flash_api.c 0x00000000   Number         0  mbed/TARGET_NUCLEO_F401RE/TOOLCHAIN_ARM_STD/flash_api.o ABSOLUTE
    /builds/ws/mbed-os-ci_mbed2-build-ARM@5/mbed-os/targets/TARGET_STM/TARGET_STM32F4/flash_api.c 0x00000000   Number         0  mbed/TARGET_NUCLEO_F401RE/TOOLCHAIN_ARM_STD/flash_api.o ABSOLUTE
    /builds/ws/mbed-os-ci_mbed2-build-ARM@5/mbed-os/targets/TARGET_STM/TARGET_STM32F4/gpio_irq_device.c 0x00000000   Number         0  mbed/TARGET_NUCLEO_F401RE/TOOLCHAIN_ARM_STD/gpio_irq_device.o ABSOLUTE
    /builds/ws/mbed-os-ci_mbed2-build-ARM@5/mbed-os/targets/TARGET_STM/TARGET_STM32F4/gpio_irq_device.c 0x00000000   Number         0  mbed/TARGET_NUCLEO_F401RE/TOOLCHAIN_ARM_STD/gpio_irq_device.o ABSOLUTE
    /builds/ws/mbed-os-ci_mbed2-build-ARM@5/mbed-os/targets/TARGET_STM/TARGET_STM32F4/pwmout_device.c 0x00000000   Number         0  mbed/TARGET_NUCLEO_F401RE/TOOLCHAIN_ARM_STD/pwmout_device.o ABSOLUTE
    /builds/ws/mbed-os-ci_mbed2-build-ARM@5/mbed-os/targets/TARGET_STM/TARGET_STM32F4/pwmout_device.c 0x00000000   Number         0  mbed/TARGET_NUCLEO_F401RE/TOOLCHAIN_ARM_STD/pwmout_device.o ABSOLUTE
    /builds/ws/mbed-os-ci_mbed2-build-ARM@5/mbed-os/targets/TARGET_STM/TARGET_STM32F4/serial_device.c 0x00000000   Number         0  mbed/TARGET_NUCLEO_F401RE/TOOLCHAIN_ARM_STD/serial_device.o ABSOLUTE
    /builds/ws/mbed-os-ci_mbed2-build-ARM@5/mbed-os/targets/TARGET_STM/TARGET_STM32F4/serial_device.c 0x00000000   Number         0  mbed/TARGET_NUCLEO_F401RE/TOOLCHAIN_ARM_STD/serial_device.o ABSOLUTE
    /builds/ws/mbed-os-ci_mbed2-build-ARM@5/mbed-os/targets/TARGET_STM/TARGET_STM32F4/spi_api.c 0x00000000   Number         0  mbed/TARGET_NUCLEO_F401RE/TOOLCHAIN_ARM_STD/spi_api.o ABSOLUTE
    /builds/ws/mbed-os-ci_mbed2-build-ARM@5/mbed-os/targets/TARGET_STM/TARGET_STM32F4/spi_api.c 0x00000000   Number         0  mbed/TARGET_NUCLEO_F401RE/TOOLCHAIN_ARM_STD/spi_api.o ABSOLUTE
    /builds/ws/mbed-os-ci_mbed2-build-ARM@5/mbed-os/targets/TARGET_STM/analogin_api.c 0x00000000   Number         0  mbed/TARGET_NUCLEO_F401RE/TOOLCHAIN_ARM_STD/analogin_api.o ABSOLUTE
    /builds/ws/mbed-os-ci_mbed2-build-ARM@5/mbed-os/targets/TARGET_STM/analogin_api.c 0x00000000   Number         0  mbed/TARGET_NUCLEO_F401RE/TOOLCHAIN_ARM_STD/analogin_api.o ABSOLUTE
    /builds/ws/mbed-os-ci_mbed2-build-ARM@5/mbed-os/targets/TARGET_STM/analogout_api.c 0x00000000   Number         0  mbed/TARGET_NUCLEO_F401RE/TOOLCHAIN_ARM_STD/analogout_api.o ABSOLUTE
    /builds/ws/mbed-os-ci_mbed2-build-ARM@5/mbed-os/targets/TARGET_STM/analogout_api.c 0x00000000   Number         0  mbed/TARGET_NUCLEO_F401RE/TOOLCHAIN_ARM_STD/analogout_api.o ABSOLUTE
    /builds/ws/mbed-os-ci_mbed2-build-ARM@5/mbed-os/targets/TARGET_STM/can_api.c 0x00000000   Number         0  mbed/TARGET_NUCLEO_F401RE/TOOLCHAIN_ARM_STD/can_api.o ABSOLUTE
    /builds/ws/mbed-os-ci_mbed2-build-ARM@5/mbed-os/targets/TARGET_STM/can_api.c 0x00000000   Number         0  mbed/TARGET_NUCLEO_F401RE/TOOLCHAIN_ARM_STD/can_api.o ABSOLUTE
    /builds/ws/mbed-os-ci_mbed2-build-ARM@5/mbed-os/targets/TARGET_STM/gpio_api.c 0x00000000   Number         0  mbed/TARGET_NUCLEO_F401RE/TOOLCHAIN_ARM_STD/gpio_api.o ABSOLUTE
    /builds/ws/mbed-os-ci_mbed2-build-ARM@5/mbed-os/targets/TARGET_STM/gpio_api.c 0x00000000   Number         0  mbed/TARGET_NUCLEO_F401RE/TOOLCHAIN_ARM_STD/gpio_api.o ABSOLUTE
    /builds/ws/mbed-os-ci_mbed2-build-ARM@5/mbed-os/targets/TARGET_STM/gpio_irq_api.c 0x00000000   Number         0  mbed/TARGET_NUCLEO_F401RE/TOOLCHAIN_ARM_STD/gpio_irq_api.o ABSOLUTE
    /builds/ws/mbed-os-ci_mbed2-build-ARM@5/mbed-os/targets/TARGET_STM/gpio_irq_api.c 0x00000000   Number         0  mbed/TARGET_NUCLEO_F401RE/TOOLCHAIN_ARM_STD/gpio_irq_api.o ABSOLUTE
    /builds/ws/mbed-os-ci_mbed2-build-ARM@5/mbed-os/targets/TARGET_STM/hal_tick_overrides.c 0x00000000   Number         0  mbed/TARGET_NUCLEO_F401RE/TOOLCHAIN_ARM_STD/hal_tick_overrides.o ABSOLUTE
    /builds/ws/mbed-os-ci_mbed2-build-ARM@5/mbed-os/targets/TARGET_STM/hal_tick_overrides.c 0x00000000   Number         0  mbed/TARGET_NUCLEO_F401RE/TOOLCHAIN_ARM_STD/hal_tick_overrides.o ABSOLUTE
    /builds/ws/mbed-os-ci_mbed2-build-ARM@5/mbed-os/targets/TARGET_STM/i2c_api.c 0x00000000   Number         0  mbed/TARGET_NUCLEO_F401RE/TOOLCHAIN_ARM_STD/i2c_api.o ABSOLUTE
    /builds/ws/mbed-os-ci_mbed2-build-ARM@5/mbed-os/targets/TARGET_STM/i2c_api.c 0x00000000   Number         0  mbed/TARGET_NUCLEO_F401RE/TOOLCHAIN_ARM_STD/i2c_api.o ABSOLUTE
    /builds/ws/mbed-os-ci_mbed2-build-ARM@5/mbed-os/targets/TARGET_STM/lp_ticker.c 0x00000000   Number         0  mbed/TARGET_NUCLEO_F401RE/TOOLCHAIN_ARM_STD/lp_ticker.o ABSOLUTE
    /builds/ws/mbed-os-ci_mbed2-build-ARM@5/mbed-os/targets/TARGET_STM/lp_ticker.c 0x00000000   Number         0  mbed/TARGET_NUCLEO_F401RE/TOOLCHAIN_ARM_STD/lp_ticker.o ABSOLUTE
    /builds/ws/mbed-os-ci_mbed2-build-ARM@5/mbed-os/targets/TARGET_STM/mbed_crc_api.c 0x00000000   Number         0  mbed/TARGET_NUCLEO_F401RE/TOOLCHAIN_ARM_STD/mbed_crc_api.o ABSOLUTE
    /builds/ws/mbed-os-ci_mbed2-build-ARM@5/mbed-os/targets/TARGET_STM/mbed_crc_api.c 0x00000000   Number         0  mbed/TARGET_NUCLEO_F401RE/TOOLCHAIN_ARM_STD/mbed_crc_api.o ABSOLUTE
    /builds/ws/mbed-os-ci_mbed2-build-ARM@5/mbed-os/targets/TARGET_STM/mbed_overrides.c 0x00000000   Number         0  mbed/TARGET_NUCLEO_F401RE/TOOLCHAIN_ARM_STD/mbed_overrides.o ABSOLUTE
    /builds/ws/mbed-os-ci_mbed2-build-ARM@5/mbed-os/targets/TARGET_STM/mbed_overrides.c 0x00000000   Number         0  mbed/TARGET_NUCLEO_F401RE/TOOLCHAIN_ARM_STD/mbed_overrides.o ABSOLUTE
    /builds/ws/mbed-os-ci_mbed2-build-ARM@5/mbed-os/targets/TARGET_STM/pinmap.c 0x00000000   Number         0  mbed/TARGET_NUCLEO_F401RE/TOOLCHAIN_ARM_STD/pinmap.o ABSOLUTE
    /builds/ws/mbed-os-ci_mbed2-build-ARM@5/mbed-os/targets/TARGET_STM/pinmap.c 0x00000000   Number         0  mbed/TARGET_NUCLEO_F401RE/TOOLCHAIN_ARM_STD/pinmap.o ABSOLUTE
    /builds/ws/mbed-os-ci_mbed2-build-ARM@5/mbed-os/targets/TARGET_STM/port_api.c 0x00000000   Number         0  mbed/TARGET_NUCLEO_F401RE/TOOLCHAIN_ARM_STD/port_api.o ABSOLUTE
    /builds/ws/mbed-os-ci_mbed2-build-ARM@5/mbed-os/targets/TARGET_STM/port_api.c 0x00000000   Number         0  mbed/TARGET_NUCLEO_F401RE/TOOLCHAIN_ARM_STD/port_api.o ABSOLUTE
    /builds/ws/mbed-os-ci_mbed2-build-ARM@5/mbed-os/targets/TARGET_STM/pwmout_api.c 0x00000000   Number         0  mbed/TARGET_NUCLEO_F401RE/TOOLCHAIN_ARM_STD/pwmout_api.o ABSOLUTE
    /builds/ws/mbed-os-ci_mbed2-build-ARM@5/mbed-os/targets/TARGET_STM/pwmout_api.c 0x00000000   Number         0  mbed/TARGET_NUCLEO_F401RE/TOOLCHAIN_ARM_STD/pwmout_api.o ABSOLUTE
    /builds/ws/mbed-os-ci_mbed2-build-ARM@5/mbed-os/targets/TARGET_STM/qspi_api.c 0x00000000   Number         0  mbed/TARGET_NUCLEO_F401RE/TOOLCHAIN_ARM_STD/qspi_api.o ABSOLUTE
    /builds/ws/mbed-os-ci_mbed2-build-ARM@5/mbed-os/targets/TARGET_STM/rtc_api.c 0x00000000   Number         0  mbed/TARGET_NUCLEO_F401RE/TOOLCHAIN_ARM_STD/rtc_api.o ABSOLUTE
    /builds/ws/mbed-os-ci_mbed2-build-ARM@5/mbed-os/targets/TARGET_STM/rtc_api.c 0x00000000   Number         0  mbed/TARGET_NUCLEO_F401RE/TOOLCHAIN_ARM_STD/rtc_api.o ABSOLUTE
    /builds/ws/mbed-os-ci_mbed2-build-ARM@5/mbed-os/targets/TARGET_STM/serial_api.c 0x00000000   Number         0  mbed/TARGET_NUCLEO_F401RE/TOOLCHAIN_ARM_STD/serial_api.o ABSOLUTE
    /builds/ws/mbed-os-ci_mbed2-build-ARM@5/mbed-os/targets/TARGET_STM/serial_api.c 0x00000000   Number         0  mbed/TARGET_NUCLEO_F401RE/TOOLCHAIN_ARM_STD/serial_api.o ABSOLUTE
    /builds/ws/mbed-os-ci_mbed2-build-ARM@5/mbed-os/targets/TARGET_STM/sleep.c 0x00000000   Number         0  mbed/TARGET_NUCLEO_F401RE/TOOLCHAIN_ARM_STD/sleep.o ABSOLUTE
    /builds/ws/mbed-os-ci_mbed2-build-ARM@5/mbed-os/targets/TARGET_STM/sleep.c 0x00000000   Number         0  mbed/TARGET_NUCLEO_F401RE/TOOLCHAIN_ARM_STD/sleep.o ABSOLUTE
    /builds/ws/mbed-os-ci_mbed2-build-ARM@5/mbed-os/targets/TARGET_STM/stm_spi_api.c 0x00000000   Number         0  mbed/TARGET_NUCLEO_F401RE/TOOLCHAIN_ARM_STD/stm_spi_api.o ABSOLUTE
    /builds/ws/mbed-os-ci_mbed2-build-ARM@5/mbed-os/targets/TARGET_STM/stm_spi_api.c 0x00000000   Number         0  mbed/TARGET_NUCLEO_F401RE/TOOLCHAIN_ARM_STD/stm_spi_api.o ABSOLUTE
    /builds/ws/mbed-os-ci_mbed2-build-ARM@5/mbed-os/targets/TARGET_STM/trng_api.c 0x00000000   Number         0  mbed/TARGET_NUCLEO_F401RE/TOOLCHAIN_ARM_STD/trng_api.o ABSOLUTE
    /builds/ws/mbed-os-ci_mbed2-build-ARM@5/mbed-os/targets/TARGET_STM/us_ticker.c 0x00000000   Number         0  mbed/TARGET_NUCLEO_F401RE/TOOLCHAIN_ARM_STD/us_ticker.o ABSOLUTE
    /builds/ws/mbed-os-ci_mbed2-build-ARM@5/mbed-os/targets/TARGET_STM/us_ticker.c 0x00000000   Number         0  mbed/TARGET_NUCLEO_F401RE/TOOLCHAIN_ARM_STD/us_ticker.o ABSOLUTE
    dc.s                                     0x00000000   Number         0  C:\Keil_v5\ARM\ARMCC\Bin\..\lib\armlib\c_w.l(dc.o) ABSOLUTE
    main.cpp                                 0x00000000   Number         0  .\build\main.o ABSOLUTE
    main.cpp                                 0x00000000   Number         0  .\build\main.o ABSOLUTE
    utils.cpp                                0x00000000   Number         0  .\build\utils.o ABSOLUTE
    utils.cpp                                0x00000000   Number         0  .\build\utils.o ABSOLUTE
    RESET                                    0x08000000   Section      404  mbed/TARGET_NUCLEO_F401RE/TOOLCHAIN_ARM_STD/startup_stm32f401xe.o(RESET)
    !!!main                                  0x08000194   Section        8  C:\Keil_v5\ARM\ARMCC\Bin\..\lib\armlib\c_w.l(__main.o)(!!!main)
    !!!scatter                               0x0800019c   Section       52  C:\Keil_v5\ARM\ARMCC\Bin\..\lib\armlib\c_w.l(__scatter.o)(!!!scatter)
    !!handler_copy                           0x080001d0   Section       26  C:\Keil_v5\ARM\ARMCC\Bin\..\lib\armlib\c_w.l(__scatter_copy.o)(!!handler_copy)
    !!handler_zi                             0x080001ec   Section       28  C:\Keil_v5\ARM\ARMCC\Bin\..\lib\armlib\c_w.l(__scatter_zi.o)(!!handler_zi)
    .ARM.Collect$$_printf_percent$$00000000  0x08000208   Section        0  C:\Keil_v5\ARM\ARMCC\Bin\..\lib\armlib\c_w.l(_printf_percent.o)(.ARM.Collect$$_printf_percent$$00000000)
    .ARM.Collect$$_printf_percent$$00000001  0x08000208   Section        6  C:\Keil_v5\ARM\ARMCC\Bin\..\lib\armlib\c_w.l(_printf_n.o)(.ARM.Collect$$_printf_percent$$00000001)
    .ARM.Collect$$_printf_percent$$00000002  0x0800020e   Section        6  C:\Keil_v5\ARM\ARMCC\Bin\..\lib\armlib\c_w.l(_printf_p.o)(.ARM.Collect$$_printf_percent$$00000002)
    .ARM.Collect$$_printf_percent$$00000003  0x08000214   Section        6  C:\Keil_v5\ARM\ARMCC\Bin\..\lib\armlib\c_w.l(_printf_f.o)(.ARM.Collect$$_printf_percent$$00000003)
    .ARM.Collect$$_printf_percent$$00000004  0x0800021a   Section        6  C:\Keil_v5\ARM\ARMCC\Bin\..\lib\armlib\c_w.l(_printf_e.o)(.ARM.Collect$$_printf_percent$$00000004)
    .ARM.Collect$$_printf_percent$$00000005  0x08000220   Section        6  C:\Keil_v5\ARM\ARMCC\Bin\..\lib\armlib\c_w.l(_printf_g.o)(.ARM.Collect$$_printf_percent$$00000005)
    .ARM.Collect$$_printf_percent$$00000006  0x08000226   Section        6  C:\Keil_v5\ARM\ARMCC\Bin\..\lib\armlib\c_w.l(_printf_a.o)(.ARM.Collect$$_printf_percent$$00000006)
    .ARM.Collect$$_printf_percent$$00000007  0x0800022c   Section       10  C:\Keil_v5\ARM\ARMCC\Bin\..\lib\armlib\c_w.l(_printf_ll.o)(.ARM.Collect$$_printf_percent$$00000007)
    .ARM.Collect$$_printf_percent$$00000008  0x08000236   Section        6  C:\Keil_v5\ARM\ARMCC\Bin\..\lib\armlib\c_w.l(_printf_i.o)(.ARM.Collect$$_printf_percent$$00000008)
    .ARM.Collect$$_printf_percent$$00000009  0x0800023c   Section        6  C:\Keil_v5\ARM\ARMCC\Bin\..\lib\armlib\c_w.l(_printf_d.o)(.ARM.Collect$$_printf_percent$$00000009)
    .ARM.Collect$$_printf_percent$$0000000A  0x08000242   Section        6  C:\Keil_v5\ARM\ARMCC\Bin\..\lib\armlib\c_w.l(_printf_u.o)(.ARM.Collect$$_printf_percent$$0000000A)
    .ARM.Collect$$_printf_percent$$0000000B  0x08000248   Section        6  C:\Keil_v5\ARM\ARMCC\Bin\..\lib\armlib\c_w.l(_printf_o.o)(.ARM.Collect$$_printf_percent$$0000000B)
    .ARM.Collect$$_printf_percent$$0000000C  0x0800024e   Section        6  C:\Keil_v5\ARM\ARMCC\Bin\..\lib\armlib\c_w.l(_printf_x.o)(.ARM.Collect$$_printf_percent$$0000000C)
    .ARM.Collect$$_printf_percent$$0000000D  0x08000254   Section        6  C:\Keil_v5\ARM\ARMCC\Bin\..\lib\armlib\c_w.l(_printf_lli.o)(.ARM.Collect$$_printf_percent$$0000000D)
    .ARM.Collect$$_printf_percent$$0000000E  0x0800025a   Section        6  C:\Keil_v5\ARM\ARMCC\Bin\..\lib\armlib\c_w.l(_printf_lld.o)(.ARM.Collect$$_printf_percent$$0000000E)
    .ARM.Collect$$_printf_percent$$0000000F  0x08000260   Section        6  C:\Keil_v5\ARM\ARMCC\Bin\..\lib\armlib\c_w.l(_printf_llu.o)(.ARM.Collect$$_printf_percent$$0000000F)
    .ARM.Collect$$_printf_percent$$00000010  0x08000266   Section        6  C:\Keil_v5\ARM\ARMCC\Bin\..\lib\armlib\c_w.l(_printf_llo.o)(.ARM.Collect$$_printf_percent$$00000010)
    .ARM.Collect$$_printf_percent$$00000011  0x0800026c   Section        6  C:\Keil_v5\ARM\ARMCC\Bin\..\lib\armlib\c_w.l(_printf_llx.o)(.ARM.Collect$$_printf_percent$$00000011)
    .ARM.Collect$$_printf_percent$$00000012  0x08000272   Section       10  C:\Keil_v5\ARM\ARMCC\Bin\..\lib\armlib\c_w.l(_printf_l.o)(.ARM.Collect$$_printf_percent$$00000012)
    .ARM.Collect$$_printf_percent$$00000013  0x0800027c   Section        6  C:\Keil_v5\ARM\ARMCC\Bin\..\lib\armlib\c_w.l(_printf_c.o)(.ARM.Collect$$_printf_percent$$00000013)
    .ARM.Collect$$_printf_percent$$00000014  0x08000282   Section        6  C:\Keil_v5\ARM\ARMCC\Bin\..\lib\armlib\c_w.l(_printf_s.o)(.ARM.Collect$$_printf_percent$$00000014)
    .ARM.Collect$$_printf_percent$$00000015  0x08000288   Section        6  C:\Keil_v5\ARM\ARMCC\Bin\..\lib\armlib\c_w.l(_printf_lc.o)(.ARM.Collect$$_printf_percent$$00000015)
    .ARM.Collect$$_printf_percent$$00000016  0x0800028e   Section        6  C:\Keil_v5\ARM\ARMCC\Bin\..\lib\armlib\c_w.l(_printf_ls.o)(.ARM.Collect$$_printf_percent$$00000016)
    .ARM.Collect$$_printf_percent$$00000017  0x08000294   Section        4  C:\Keil_v5\ARM\ARMCC\Bin\..\lib\armlib\c_w.l(_printf_percent_end.o)(.ARM.Collect$$_printf_percent$$00000017)
    .ARM.Collect$$libinit$$00000000          0x08000298   Section        2  C:\Keil_v5\ARM\ARMCC\Bin\..\lib\armlib\c_w.l(libinit.o)(.ARM.Collect$$libinit$$00000000)
    .ARM.Collect$$libinit$$00000001          0x0800029a   Section        4  C:\Keil_v5\ARM\ARMCC\Bin\..\lib\armlib\c_w.l(libinit2.o)(.ARM.Collect$$libinit$$00000001)
    .ARM.Collect$$libinit$$00000004          0x0800029e   Section        0  C:\Keil_v5\ARM\ARMCC\Bin\..\lib\armlib\c_w.l(libinit2.o)(.ARM.Collect$$libinit$$00000004)
    .ARM.Collect$$libinit$$00000005          0x0800029e   Section        8  C:\Keil_v5\ARM\ARMCC\Bin\..\lib\armlib\c_w.l(libinit2.o)(.ARM.Collect$$libinit$$00000005)
    .ARM.Collect$$libinit$$0000000A          0x080002a6   Section        0  C:\Keil_v5\ARM\ARMCC\Bin\..\lib\armlib\c_w.l(libinit2.o)(.ARM.Collect$$libinit$$0000000A)
    .ARM.Collect$$libinit$$0000000C          0x080002a6   Section        0  C:\Keil_v5\ARM\ARMCC\Bin\..\lib\armlib\c_w.l(libinit2.o)(.ARM.Collect$$libinit$$0000000C)
    .ARM.Collect$$libinit$$0000000E          0x080002a6   Section        0  C:\Keil_v5\ARM\ARMCC\Bin\..\lib\armlib\c_w.l(libinit2.o)(.ARM.Collect$$libinit$$0000000E)
    .ARM.Collect$$libinit$$0000000F          0x080002a6   Section        6  C:\Keil_v5\ARM\ARMCC\Bin\..\lib\armlib\c_w.l(libinit2.o)(.ARM.Collect$$libinit$$0000000F)
    .ARM.Collect$$libinit$$00000011          0x080002ac   Section        0  C:\Keil_v5\ARM\ARMCC\Bin\..\lib\armlib\c_w.l(libinit2.o)(.ARM.Collect$$libinit$$00000011)
    .ARM.Collect$$libinit$$00000012          0x080002ac   Section       12  C:\Keil_v5\ARM\ARMCC\Bin\..\lib\armlib\c_w.l(libinit2.o)(.ARM.Collect$$libinit$$00000012)
    .ARM.Collect$$libinit$$00000013          0x080002b8   Section        0  C:\Keil_v5\ARM\ARMCC\Bin\..\lib\armlib\c_w.l(libinit2.o)(.ARM.Collect$$libinit$$00000013)
    .ARM.Collect$$libinit$$00000015          0x080002b8   Section        0  C:\Keil_v5\ARM\ARMCC\Bin\..\lib\armlib\c_w.l(libinit2.o)(.ARM.Collect$$libinit$$00000015)
    .ARM.Collect$$libinit$$00000016          0x080002b8   Section       10  C:\Keil_v5\ARM\ARMCC\Bin\..\lib\armlib\c_w.l(libinit2.o)(.ARM.Collect$$libinit$$00000016)
    .ARM.Collect$$libinit$$00000017          0x080002c2   Section        0  C:\Keil_v5\ARM\ARMCC\Bin\..\lib\armlib\c_w.l(libinit2.o)(.ARM.Collect$$libinit$$00000017)
    .ARM.Collect$$libinit$$00000019          0x080002c2   Section        0  C:\Keil_v5\ARM\ARMCC\Bin\..\lib\armlib\c_w.l(libinit2.o)(.ARM.Collect$$libinit$$00000019)
    .ARM.Collect$$libinit$$0000001B          0x080002c2   Section        0  C:\Keil_v5\ARM\ARMCC\Bin\..\lib\armlib\c_w.l(libinit2.o)(.ARM.Collect$$libinit$$0000001B)
    .ARM.Collect$$libinit$$0000001D          0x080002c2   Section        0  C:\Keil_v5\ARM\ARMCC\Bin\..\lib\armlib\c_w.l(libinit2.o)(.ARM.Collect$$libinit$$0000001D)
    .ARM.Collect$$libinit$$0000001F          0x080002c2   Section        0  C:\Keil_v5\ARM\ARMCC\Bin\..\lib\armlib\c_w.l(libinit2.o)(.ARM.Collect$$libinit$$0000001F)
    .ARM.Collect$$libinit$$00000021          0x080002c2   Section        0  C:\Keil_v5\ARM\ARMCC\Bin\..\lib\armlib\c_w.l(libinit2.o)(.ARM.Collect$$libinit$$00000021)
    .ARM.Collect$$libinit$$00000023          0x080002c2   Section        0  C:\Keil_v5\ARM\ARMCC\Bin\..\lib\armlib\c_w.l(libinit2.o)(.ARM.Collect$$libinit$$00000023)
    .ARM.Collect$$libinit$$00000024          0x080002c2   Section        4  C:\Keil_v5\ARM\ARMCC\Bin\..\lib\armlib\c_w.l(libinit2.o)(.ARM.Collect$$libinit$$00000024)
    .ARM.Collect$$libinit$$00000025          0x080002c6   Section        0  C:\Keil_v5\ARM\ARMCC\Bin\..\lib\armlib\c_w.l(libinit2.o)(.ARM.Collect$$libinit$$00000025)
    .ARM.Collect$$libinit$$0000002C          0x080002c6   Section        0  C:\Keil_v5\ARM\ARMCC\Bin\..\lib\armlib\c_w.l(libinit2.o)(.ARM.Collect$$libinit$$0000002C)
    .ARM.Collect$$libinit$$0000002E          0x080002c6   Section        0  C:\Keil_v5\ARM\ARMCC\Bin\..\lib\armlib\c_w.l(libinit2.o)(.ARM.Collect$$libinit$$0000002E)
    .ARM.Collect$$libinit$$00000030          0x080002c6   Section        0  C:\Keil_v5\ARM\ARMCC\Bin\..\lib\armlib\c_w.l(libinit2.o)(.ARM.Collect$$libinit$$00000030)
    .ARM.Collect$$libinit$$00000031          0x080002c6   Section        4  C:\Keil_v5\ARM\ARMCC\Bin\..\lib\armlib\c_w.l(libinit2.o)(.ARM.Collect$$libinit$$00000031)
    .ARM.Collect$$libinit$$00000032          0x080002ca   Section        0  C:\Keil_v5\ARM\ARMCC\Bin\..\lib\armlib\c_w.l(libinit2.o)(.ARM.Collect$$libinit$$00000032)
    .ARM.Collect$$libinit$$00000033          0x080002ca   Section        2  C:\Keil_v5\ARM\ARMCC\Bin\..\lib\armlib\c_w.l(libinit2.o)(.ARM.Collect$$libinit$$00000033)
    .ARM.Collect$$libshutdown$$00000004      0x080002cc   Section        0  C:\Keil_v5\ARM\ARMCC\Bin\..\lib\armlib\c_w.l(libshutdown2.o)(.ARM.Collect$$libshutdown$$00000004)
    .ARM.Collect$$rtentry$$00000000          0x080002cc   Section        0  C:\Keil_v5\ARM\ARMCC\Bin\..\lib\armlib\c_w.l(__rtentry.o)(.ARM.Collect$$rtentry$$00000000)
    .ARM.Collect$$rtentry$$00000002          0x080002cc   Section        0  C:\Keil_v5\ARM\ARMCC\Bin\..\lib\armlib\c_w.l(__rtentry2.o)(.ARM.Collect$$rtentry$$00000002)
    .ARM.Collect$$rtentry$$00000004          0x080002cc   Section        6  C:\Keil_v5\ARM\ARMCC\Bin\..\lib\armlib\c_w.l(__rtentry4.o)(.ARM.Collect$$rtentry$$00000004)
    .ARM.Collect$$rtentry$$00000008          0x080002d2   Section        8  C:\Keil_v5\ARM\ARMCC\Bin\..\lib\armlib\c_w.l(__rtentry2.o)(.ARM.Collect$$rtentry$$00000008)
    .ARM.Collect$$rtentry$$0000000A          0x080002da   Section        4  C:\Keil_v5\ARM\ARMCC\Bin\..\lib\armlib\c_w.l(__rtentry2.o)(.ARM.Collect$$rtentry$$0000000A)
    .ARM.Collect$$rtentry$$0000000C          0x080002de   Section        0  C:\Keil_v5\ARM\ARMCC\Bin\..\lib\armlib\c_w.l(__rtentry2.o)(.ARM.Collect$$rtentry$$0000000C)
    .ARM.Collect$$rtentry$$0000000D          0x080002de   Section        8  C:\Keil_v5\ARM\ARMCC\Bin\..\lib\armlib\c_w.l(__rtentry2.o)(.ARM.Collect$$rtentry$$0000000D)
    .emb_text                                0x080002e8   Section        0  C:\Keil_v5\ARM\ARMCC\Bin\..\lib\armlib\c_w.l(maybetermalloc1.o)(.emb_text)
    .text                                    0x080002e8   Section      196  mbed/TARGET_NUCLEO_F401RE/TOOLCHAIN_ARM_STD/except.o(.text)
    $v0                                      0x080002e8   Number         0  mbed/TARGET_NUCLEO_F401RE/TOOLCHAIN_ARM_STD/except.o(.text)
    .text                                    0x080003ac   Section       36  mbed/TARGET_NUCLEO_F401RE/TOOLCHAIN_ARM_STD/startup_stm32f401xe.o(.text)
    $v0                                      0x080003ac   Number         0  mbed/TARGET_NUCLEO_F401RE/TOOLCHAIN_ARM_STD/startup_stm32f401xe.o(.text)
    .text                                    0x080003d0   Section        8  C:\Keil_v5\ARM\ARMCC\Bin\..\lib\armlib\c_w.l(rt_errno_addr.o)(.text)
    .text                                    0x080003d8   Section        0  C:\Keil_v5\ARM\ARMCC\Bin\..\lib\armlib\c_w.l(h1_alloc.o)(.text)
    .text                                    0x08000436   Section        0  C:\Keil_v5\ARM\ARMCC\Bin\..\lib\armlib\c_w.l(h1_free.o)(.text)
    .text                                    0x08000484   Section      238  C:\Keil_v5\ARM\ARMCC\Bin\..\lib\armlib\c_w.l(lludivv7m.o)(.text)
    .text                                    0x08000572   Section       38  C:\Keil_v5\ARM\ARMCC\Bin\..\lib\armlib\c_w.l(llshl.o)(.text)
    .text                                    0x08000598   Section       38  C:\Keil_v5\ARM\ARMCC\Bin\..\lib\armlib\c_w.l(llushr.o)(.text)
    .text                                    0x080005be   Section        0  C:\Keil_v5\ARM\ARMCC\Bin\..\lib\armlib\c_w.l(vfprintf.o)(.text)
    .text                                    0x080005c8   Section        0  C:\Keil_v5\ARM\ARMCC\Bin\..\lib\armlib\c_w.l(vsnprintf.o)(.text)
    .text                                    0x080005fc   Section        0  C:\Keil_v5\ARM\ARMCC\Bin\..\lib\armlib\c_w.l(fflush.o)(.text)
    .text                                    0x08000660   Section        0  C:\Keil_v5\ARM\ARMCC\Bin\..\lib\armlib\c_w.l(fopen.o)(.text)
    _freopen_locked                          0x08000661   Thumb Code     0  C:\Keil_v5\ARM\ARMCC\Bin\..\lib\armlib\c_w.l(fopen.o)(.text)
    .text                                    0x0800074c   Section        0  C:\Keil_v5\ARM\ARMCC\Bin\..\lib\armlib\c_w.l(strspn.o)(.text)
    .text                                    0x08000768   Section        0  C:\Keil_v5\ARM\ARMCC\Bin\..\lib\armlib\c_w.l(memcmp.o)(.text)
    .text                                    0x080007c0   Section        0  C:\Keil_v5\ARM\ARMCC\Bin\..\lib\armlib\c_w.l(strlen.o)(.text)
    .text                                    0x080007fe   Section      100  C:\Keil_v5\ARM\ARMCC\Bin\..\lib\armlib\c_w.l(rt_memcpy_w.o)(.text)
    .text                                    0x08000862   Section       78  C:\Keil_v5\ARM\ARMCC\Bin\..\lib\armlib\c_w.l(rt_memclr_w.o)(.text)
    .text                                    0x080008b0   Section      128  C:\Keil_v5\ARM\ARMCC\Bin\..\lib\armlib\c_w.l(strcmpv7m.o)(.text)
    .text                                    0x08000930   Section        0  C:\Keil_v5\ARM\ARMCC\Bin\..\lib\armlib\c_w.l(init_aeabi.o)(.text)
    .text                                    0x08000954   Section        8  C:\Keil_v5\ARM\ARMCC\Bin\..\lib\armlib\c_w.l(rt_heap_descriptor.o)(.text)
    .text                                    0x0800095c   Section        0  C:\Keil_v5\ARM\ARMCC\Bin\..\lib\armlib\c_w.l(hguard.o)(.text)
    .text                                    0x08000960   Section        0  C:\Keil_v5\ARM\ARMCC\Bin\..\lib\armlib\c_w.l(init_alloc.o)(.text)
    .text                                    0x080009ea   Section        0  C:\Keil_v5\ARM\ARMCC\Bin\..\lib\armlib\c_w.l(h1_init.o)(.text)
    .text                                    0x080009f8   Section        0  C:\Keil_v5\ARM\ARMCC\Bin\..\lib\armlib\c_w.l(_printf_pad.o)(.text)
    .text                                    0x08000a46   Section        0  C:\Keil_v5\ARM\ARMCC\Bin\..\lib\armlib\c_w.l(_printf_truncate.o)(.text)
    .text                                    0x08000a6a   Section        0  C:\Keil_v5\ARM\ARMCC\Bin\..\lib\armlib\c_w.l(_printf_str.o)(.text)
    .text                                    0x08000abc   Section        0  C:\Keil_v5\ARM\ARMCC\Bin\..\lib\armlib\c_w.l(_printf_dec.o)(.text)
    .text                                    0x08000b34   Section        0  C:\Keil_v5\ARM\ARMCC\Bin\..\lib\armlib\c_w.l(_printf_charcount.o)(.text)
    .text                                    0x08000b5c   Section        0  C:\Keil_v5\ARM\ARMCC\Bin\..\lib\armlib\c_w.l(_printf_char_common.o)(.text)
    _printf_input_char                       0x08000b5d   Thumb Code    10  C:\Keil_v5\ARM\ARMCC\Bin\..\lib\armlib\c_w.l(_printf_char_common.o)(.text)
    .text                                    0x08000b8c   Section        0  C:\Keil_v5\ARM\ARMCC\Bin\..\lib\armlib\c_w.l(_sputc.o)(.text)
    .text                                    0x08000b96   Section        0  C:\Keil_v5\ARM\ARMCC\Bin\..\lib\armlib\c_w.l(_snputc.o)(.text)
    .text                                    0x08000ba8   Section        0  C:\Keil_v5\ARM\ARMCC\Bin\..\lib\armlib\c_w.l(_printf_char_file.o)(.text)
    .text                                    0x08000bcc   Section        0  C:\Keil_v5\ARM\ARMCC\Bin\..\lib\armlib\c_w.l(_printf_wctomb.o)(.text)
    .text                                    0x08000c88   Section        0  C:\Keil_v5\ARM\ARMCC\Bin\..\lib\armlib\c_w.l(_printf_longlong_dec.o)(.text)
    .text                                    0x08000d04   Section        0  C:\Keil_v5\ARM\ARMCC\Bin\..\lib\armlib\c_w.l(_printf_oct_int_ll.o)(.text)
    _printf_longlong_oct_internal            0x08000d05   Thumb Code     0  C:\Keil_v5\ARM\ARMCC\Bin\..\lib\armlib\c_w.l(_printf_oct_int_ll.o)(.text)
    .text                                    0x08000d74   Section        0  C:\Keil_v5\ARM\ARMCC\Bin\..\lib\armlib\c_w.l(_printf_hex_int_ll_ptr.o)(.text)
    _printf_hex_common                       0x08000d75   Thumb Code     0  C:\Keil_v5\ARM\ARMCC\Bin\..\lib\armlib\c_w.l(_printf_hex_int_ll_ptr.o)(.text)
    .text                                    0x08000e08   Section        0  C:\Keil_v5\ARM\ARMCC\Bin\..\lib\armlib\c_w.l(__printf_flags_ss_wp.o)(.text)
    .text                                    0x08000f90   Section        0  C:\Keil_v5\ARM\ARMCC\Bin\..\lib\armlib\c_w.l(fseek.o)(.text)
    .text                                    0x08001088   Section        0  C:\Keil_v5\ARM\ARMCC\Bin\..\lib\armlib\c_w.l(setvbuf.o)(.text)
    .text                                    0x080010d0   Section        0  C:\Keil_v5\ARM\ARMCC\Bin\..\lib\armlib\c_w.l(stdio.o)(.text)
    .text                                    0x080011c0   Section        0  C:\Keil_v5\ARM\ARMCC\Bin\..\lib\armlib\c_w.l(initio.o)(.text)
    .text                                    0x080012f8   Section        0  C:\Keil_v5\ARM\ARMCC\Bin\..\lib\armlib\c_w.l(fclose.o)(.text)
    .text                                    0x08001344   Section        0  C:\Keil_v5\ARM\ARMCC\Bin\..\lib\armlib\c_w.l(h1_extend.o)(.text)
    .text                                    0x08001378   Section      138  C:\Keil_v5\ARM\ARMCC\Bin\..\lib\armlib\c_w.l(lludiv10.o)(.text)
    .text                                    0x08001402   Section        0  C:\Keil_v5\ARM\ARMCC\Bin\..\lib\armlib\c_w.l(_printf_intcommon.o)(.text)
    .text                                    0x080014b4   Section        0  C:\Keil_v5\ARM\ARMCC\Bin\..\lib\armlib\c_w.l(_printf_fp_dec.o)(.text)
    _fp_digits                               0x080014b7   Thumb Code   432  C:\Keil_v5\ARM\ARMCC\Bin\..\lib\armlib\c_w.l(_printf_fp_dec.o)(.text)
    .text                                    0x080018d4   Section        0  C:\Keil_v5\ARM\ARMCC\Bin\..\lib\armlib\c_w.l(_printf_fp_hex.o)(.text)
    .text                                    0x08001bd0   Section        0  C:\Keil_v5\ARM\ARMCC\Bin\..\lib\armlib\c_w.l(_printf_char.o)(.text)
    .text                                    0x08001bfc   Section        0  C:\Keil_v5\ARM\ARMCC\Bin\..\lib\armlib\c_w.l(_printf_wchar.o)(.text)
    .text                                    0x08001c28   Section        0  C:\Keil_v5\ARM\ARMCC\Bin\..\lib\armlib\c_w.l(ferror.o)(.text)
    .text                                    0x08001c30   Section        0  C:\Keil_v5\ARM\ARMCC\Bin\..\lib\armlib\c_w.l(ftell.o)(.text)
    .text                                    0x08001c72   Section        0  C:\Keil_v5\ARM\ARMCC\Bin\..\lib\armlib\c_w.l(_wcrtomb.o)(.text)
    .text                                    0x08001cb2   Section        0  C:\Keil_v5\ARM\ARMCC\Bin\..\lib\armlib\c_w.l(defsig_exit.o)(.text)
    .text                                    0x08001cbc   Section        0  C:\Keil_v5\ARM\ARMCC\Bin\..\lib\armlib\c_w.l(defsig_rtred_outer.o)(.text)
    .text                                    0x08001cca   Section        0  C:\Keil_v5\ARM\ARMCC\Bin\..\lib\armlib\c_w.l(defsig_rtmem_outer.o)(.text)
    .text                                    0x08001cd8   Section        0  C:\Keil_v5\ARM\ARMCC\Bin\..\lib\armlib\c_w.l(heapauxa.o)(.text)
    .text                                    0x08001d28   Section        0  C:\Keil_v5\ARM\ARMCC\Bin\..\lib\armlib\c_w.l(sys_exit.o)(.text)
    .text                                    0x08001d34   Section       16  C:\Keil_v5\ARM\ARMCC\Bin\..\lib\armlib\c_w.l(rt_ctype_table.o)(.text)
    .text                                    0x08001d44   Section        8  C:\Keil_v5\ARM\ARMCC\Bin\..\lib\armlib\c_w.l(rt_locale.o)(.text)
    .text                                    0x08001d4c   Section        0  C:\Keil_v5\ARM\ARMCC\Bin\..\lib\armlib\c_w.l(_printf_fp_infnan.o)(.text)
    .text                                    0x08001dcc   Section        0  C:\Keil_v5\ARM\ARMCC\Bin\..\lib\armlib\c_w.l(bigflt0.o)(.text)
    .text                                    0x08001eb0   Section        0  C:\Keil_v5\ARM\ARMCC\Bin\..\lib\armlib\c_w.l(flsbuf.o)(.text)
    .text                                    0x08002086   Section        0  C:\Keil_v5\ARM\ARMCC\Bin\..\lib\armlib\c_w.l(defsig_general.o)(.text)
    .text                                    0x080020b8   Section        0  C:\Keil_v5\ARM\ARMCC\Bin\..\lib\armlib\c_w.l(defsig_rtred_inner.o)(.text)
    .text                                    0x080020ec   Section        0  C:\Keil_v5\ARM\ARMCC\Bin\..\lib\armlib\c_w.l(defsig_rtmem_inner.o)(.text)
    .text                                    0x0800213c   Section        0  C:\Keil_v5\ARM\ARMCC\Bin\..\lib\armlib\c_w.l(sys_wrch.o)(.text)
    .text                                    0x0800214a   Section        2  C:\Keil_v5\ARM\ARMCC\Bin\..\lib\armlib\c_w.l(use_no_semi.o)(.text)
    .text                                    0x0800214c   Section        0  C:\Keil_v5\ARM\ARMCC\Bin\..\lib\armlib\c_w.l(indicate_semi.o)(.text)
    CL$$btod_d2e                             0x0800214c   Section       62  C:\Keil_v5\ARM\ARMCC\Bin\..\lib\armlib\c_w.l(btod.o)(CL$$btod_d2e)
    CL$$btod_d2e_denorm_low                  0x0800218a   Section       70  C:\Keil_v5\ARM\ARMCC\Bin\..\lib\armlib\c_w.l(btod.o)(CL$$btod_d2e_denorm_low)
    CL$$btod_d2e_norm_op1                    0x080021d0   Section       96  C:\Keil_v5\ARM\ARMCC\Bin\..\lib\armlib\c_w.l(btod.o)(CL$$btod_d2e_norm_op1)
    CL$$btod_div_common                      0x08002230   Section      824  C:\Keil_v5\ARM\ARMCC\Bin\..\lib\armlib\c_w.l(btod.o)(CL$$btod_div_common)
    CL$$btod_e2e                             0x08002568   Section      220  C:\Keil_v5\ARM\ARMCC\Bin\..\lib\armlib\c_w.l(btod.o)(CL$$btod_e2e)
    CL$$btod_ediv                            0x08002644   Section       42  C:\Keil_v5\ARM\ARMCC\Bin\..\lib\armlib\c_w.l(btod.o)(CL$$btod_ediv)
    CL$$btod_emul                            0x0800266e   Section       42  C:\Keil_v5\ARM\ARMCC\Bin\..\lib\armlib\c_w.l(btod.o)(CL$$btod_emul)
    CL$$btod_mult_common                     0x08002698   Section      580  C:\Keil_v5\ARM\ARMCC\Bin\..\lib\armlib\c_w.l(btod.o)(CL$$btod_mult_common)
    i.$Sub$$main                             0x080028dc   Section        0  mbed/TARGET_NUCLEO_F401RE/TOOLCHAIN_ARM_STD/mbed_sdk_boot.o(i.$Sub$$main)
    i.HAL_ADC_ConfigChannel                  0x080028ec   Section        0  mbed/TARGET_NUCLEO_F401RE/TOOLCHAIN_ARM_STD/stm32f4xx_hal_adc.o(i.HAL_ADC_ConfigChannel)
    i.HAL_ADC_GetValue                       0x08002a9c   Section        0  mbed/TARGET_NUCLEO_F401RE/TOOLCHAIN_ARM_STD/stm32f4xx_hal_adc.o(i.HAL_ADC_GetValue)
    i.HAL_ADC_Init                           0x08002aa4   Section        0  mbed/TARGET_NUCLEO_F401RE/TOOLCHAIN_ARM_STD/stm32f4xx_hal_adc.o(i.HAL_ADC_Init)
    i.HAL_ADC_MspInit                        0x08002c14   Section        0  mbed/TARGET_NUCLEO_F401RE/TOOLCHAIN_ARM_STD/stm32f4xx_hal_adc.o(i.HAL_ADC_MspInit)
    i.HAL_ADC_PollForConversion              0x08002c16   Section        0  mbed/TARGET_NUCLEO_F401RE/TOOLCHAIN_ARM_STD/stm32f4xx_hal_adc.o(i.HAL_ADC_PollForConversion)
    i.HAL_ADC_Start                          0x08002cd4   Section        0  mbed/TARGET_NUCLEO_F401RE/TOOLCHAIN_ARM_STD/stm32f4xx_hal_adc.o(i.HAL_ADC_Start)
    i.HAL_GetTick                            0x08002de4   Section        0  mbed/TARGET_NUCLEO_F401RE/TOOLCHAIN_ARM_STD/hal_tick_overrides.o(i.HAL_GetTick)
    i.HAL_Init                               0x08002e14   Section        0  mbed/TARGET_NUCLEO_F401RE/TOOLCHAIN_ARM_STD/stm32f4xx_hal.o(i.HAL_Init)
    i.HAL_InitTick                           0x08002e48   Section        0  mbed/TARGET_NUCLEO_F401RE/TOOLCHAIN_ARM_STD/hal_tick_overrides.o(i.HAL_InitTick)
    i.HAL_MspInit                            0x08002e52   Section        0  mbed/TARGET_NUCLEO_F401RE/TOOLCHAIN_ARM_STD/stm32f4xx_hal.o(i.HAL_MspInit)
    i.HAL_NVIC_SetPriorityGrouping           0x08002e54   Section        0  mbed/TARGET_NUCLEO_F401RE/TOOLCHAIN_ARM_STD/stm32f4xx_hal_cortex.o(i.HAL_NVIC_SetPriorityGrouping)
    i.HAL_RCC_ClockConfig                    0x08002e78   Section        0  mbed/TARGET_NUCLEO_F401RE/TOOLCHAIN_ARM_STD/stm32f4xx_hal_rcc.o(i.HAL_RCC_ClockConfig)
    i.HAL_RCC_GetClockConfig                 0x08002fd0   Section        0  mbed/TARGET_NUCLEO_F401RE/TOOLCHAIN_ARM_STD/stm32f4xx_hal_rcc.o(i.HAL_RCC_GetClockConfig)
    i.HAL_RCC_GetPCLK1Freq                   0x08003010   Section        0  mbed/TARGET_NUCLEO_F401RE/TOOLCHAIN_ARM_STD/stm32f4xx_hal_rcc.o(i.HAL_RCC_GetPCLK1Freq)
    i.HAL_RCC_GetPCLK2Freq                   0x08003030   Section        0  mbed/TARGET_NUCLEO_F401RE/TOOLCHAIN_ARM_STD/stm32f4xx_hal_rcc.o(i.HAL_RCC_GetPCLK2Freq)
    i.HAL_RCC_GetSysClockFreq                0x08003050   Section        0  mbed/TARGET_NUCLEO_F401RE/TOOLCHAIN_ARM_STD/stm32f4xx_hal_rcc.o(i.HAL_RCC_GetSysClockFreq)
    i.HAL_RCC_OscConfig                      0x080030c4   Section        0  mbed/TARGET_NUCLEO_F401RE/TOOLCHAIN_ARM_STD/stm32f4xx_hal_rcc.o(i.HAL_RCC_OscConfig)
    i.HAL_TIMEx_PWMN_Start                   0x08003468   Section        0  mbed/TARGET_NUCLEO_F401RE/TOOLCHAIN_ARM_STD/stm32f4xx_hal_tim_ex.o(i.HAL_TIMEx_PWMN_Start)
    i.HAL_TIM_OC_Init                        0x08003494   Section        0  mbed/TARGET_NUCLEO_F401RE/TOOLCHAIN_ARM_STD/stm32f4xx_hal_tim.o(i.HAL_TIM_OC_Init)
    i.HAL_TIM_OC_MspInit                     0x080034ca   Section        0  mbed/TARGET_NUCLEO_F401RE/TOOLCHAIN_ARM_STD/stm32f4xx_hal_tim.o(i.HAL_TIM_OC_MspInit)
    i.HAL_TIM_OC_Start                       0x080034cc   Section        0  mbed/TARGET_NUCLEO_F401RE/TOOLCHAIN_ARM_STD/stm32f4xx_hal_tim.o(i.HAL_TIM_OC_Start)
    i.HAL_TIM_OC_Stop                        0x08003502   Section        0  mbed/TARGET_NUCLEO_F401RE/TOOLCHAIN_ARM_STD/stm32f4xx_hal_tim.o(i.HAL_TIM_OC_Stop)
    i.HAL_TIM_PWM_ConfigChannel              0x08003574   Section        0  mbed/TARGET_NUCLEO_F401RE/TOOLCHAIN_ARM_STD/stm32f4xx_hal_tim.o(i.HAL_TIM_PWM_ConfigChannel)
    i.HAL_TIM_PWM_Init                       0x08003788   Section        0  mbed/TARGET_NUCLEO_F401RE/TOOLCHAIN_ARM_STD/stm32f4xx_hal_tim.o(i.HAL_TIM_PWM_Init)
    i.HAL_TIM_PWM_MspInit                    0x080037be   Section        0  mbed/TARGET_NUCLEO_F401RE/TOOLCHAIN_ARM_STD/stm32f4xx_hal_tim.o(i.HAL_TIM_PWM_MspInit)
    i.HAL_TIM_PWM_Start                      0x080037c0   Section        0  mbed/TARGET_NUCLEO_F401RE/TOOLCHAIN_ARM_STD/stm32f4xx_hal_tim.o(i.HAL_TIM_PWM_Start)
    i.HAL_UART_Init                          0x080037f6   Section        0  mbed/TARGET_NUCLEO_F401RE/TOOLCHAIN_ARM_STD/stm32f4xx_hal_uart.o(i.HAL_UART_Init)
    i.HAL_UART_MspInit                       0x08003858   Section        0  mbed/TARGET_NUCLEO_F401RE/TOOLCHAIN_ARM_STD/stm32f4xx_hal_uart.o(i.HAL_UART_MspInit)
    i.SetSysClock                            0x0800385c   Section        0  mbed/TARGET_NUCLEO_F401RE/TOOLCHAIN_ARM_STD/system_clock.o(i.SetSysClock)
    i.Set_GPIO_Clock                         0x08003964   Section        0  mbed/TARGET_NUCLEO_F401RE/TOOLCHAIN_ARM_STD/gpio_api.o(i.Set_GPIO_Clock)
    i.SystemCoreClockUpdate                  0x08003a2c   Section        0  mbed/TARGET_NUCLEO_F401RE/TOOLCHAIN_ARM_STD/system_stm32f4xx.o(i.SystemCoreClockUpdate)
    i.SystemInit                             0x08003ab0   Section        0  mbed/TARGET_NUCLEO_F401RE/TOOLCHAIN_ARM_STD/system_clock.o(i.SystemInit)
    i.TIM_Base_SetConfig                     0x08003b08   Section        0  mbed/TARGET_NUCLEO_F401RE/TOOLCHAIN_ARM_STD/stm32f4xx_hal_tim.o(i.TIM_Base_SetConfig)
    i.UART_SetConfig                         0x08003ba0   Section        0  mbed/TARGET_NUCLEO_F401RE/TOOLCHAIN_ARM_STD/stm32f4xx_hal_uart.o(i.UART_SetConfig)
    UART_SetConfig                           0x08003ba1   Thumb Code   822  mbed/TARGET_NUCLEO_F401RE/TOOLCHAIN_ARM_STD/stm32f4xx_hal_uart.o(i.UART_SetConfig)
    i._Z18reserve_filehandlev                0x08003ee4   Section        0  mbed/TARGET_NUCLEO_F401RE/TOOLCHAIN_ARM_STD/mbed_retarget.o(i._Z18reserve_filehandlev)
    reserve_filehandle()                     0x08003ee5   Thumb Code   138  mbed/TARGET_NUCLEO_F401RE/TOOLCHAIN_ARM_STD/mbed_retarget.o(i._Z18reserve_filehandlev)
    i._Z3mapddddd                            0x08003f80   Section        0  .\build\utils.o(i._Z3mapddddd)
    i._Z5Ultrav                              0x08004008   Section        0  .\build\utils.o(i._Z5Ultrav)
    i._Z7get_fhci                            0x0800409c   Section        0  mbed/TARGET_NUCLEO_F401RE/TOOLCHAIN_ARM_STD/mbed_retarget.o(i._Z7get_fhci)
    get_fhc(int)                             0x0800409d   Thumb Code   138  mbed/TARGET_NUCLEO_F401RE/TOOLCHAIN_ARM_STD/mbed_retarget.o(i._Z7get_fhci)
    i._Z7rgb_Redv                            0x08004148   Section        0  .\build\utils.o(i._Z7rgb_Redv)
    i._Z9rgb_Greenv                          0x0800419c   Section        0  .\build\utils.o(i._Z9rgb_Greenv)
    i._ZN12DirectSerial4seekEli              0x080041f0   Section        0  mbed/TARGET_NUCLEO_F401RE/TOOLCHAIN_ARM_STD/mbed_retarget.o(i._ZN12DirectSerial4seekEli)
    i._ZN12DirectSerial4sizeEv               0x080041f6   Section        0  mbed/TARGET_NUCLEO_F401RE/TOOLCHAIN_ARM_STD/mbed_retarget.o(i._ZN12DirectSerial4sizeEv)
    i._ZN12DirectSerial5closeEv              0x080041fc   Section        0  mbed/TARGET_NUCLEO_F401RE/TOOLCHAIN_ARM_STD/mbed_retarget.o(i._ZN12DirectSerial5closeEv)
    i._ZN12DirectSerial5writeEPKvj           0x08004200   Section        0  mbed/TARGET_NUCLEO_F401RE/TOOLCHAIN_ARM_STD/mbed_retarget.o(i._ZN12DirectSerial5writeEPKvj)
    i._ZN12DirectSerial6isattyEv             0x08004224   Section        0  mbed/TARGET_NUCLEO_F401RE/TOOLCHAIN_ARM_STD/mbed_retarget.o(i._ZN12DirectSerial6isattyEv)
    i._ZN12DirectSerialD1Ev                  0x08004228   Section        0  mbed/TARGET_NUCLEO_F401RE/TOOLCHAIN_ARM_STD/mbed_retarget.o(i._ZN12DirectSerialD1Ev)
    i._ZN4mbed10DigitalOutC1E7PinName        0x0800422a   Section        0  .\build\utils.o(i._ZN4mbed10DigitalOutC1E7PinName)
    i._ZN4mbed10DigitalOutaSEi               0x08004244   Section        0  .\build\utils.o(i._ZN4mbed10DigitalOutaSEi)
    i._ZN4mbed10FileHandle4syncEv            0x08004262   Section        0  mbed/TARGET_NUCLEO_F401RE/TOOLCHAIN_ARM_STD/mbed_retarget.o(i._ZN4mbed10FileHandle4syncEv)
    i._ZN4mbed21mbed_override_consoleEi      0x08004266   Section        0  mbed/TARGET_NUCLEO_F401RE/TOOLCHAIN_ARM_STD/mbed_retarget.o(i._ZN4mbed21mbed_override_consoleEi)
    i._ZN4mbed28mbed_target_override_consoleEi 0x0800426a   Section        0  mbed/TARGET_NUCLEO_F401RE/TOOLCHAIN_ARM_STD/mbed_retarget.o(i._ZN4mbed28mbed_target_override_consoleEi)
    i._ZN4mbed5Timer5resetEv                 0x0800426e   Section        0  mbed/TARGET_NUCLEO_F401RE/TOOLCHAIN_ARM_STD/mbed.ar(Timer.o)(i._ZN4mbed5Timer5resetEv)
    i._ZN4mbed5Timer5startEv                 0x0800428e   Section        0  mbed/TARGET_NUCLEO_F401RE/TOOLCHAIN_ARM_STD/mbed.ar(Timer.o)(i._ZN4mbed5Timer5startEv)
    i._ZN4mbed5Timer7read_usEv               0x080042ba   Section        0  mbed/TARGET_NUCLEO_F401RE/TOOLCHAIN_ARM_STD/mbed.ar(Timer.o)(i._ZN4mbed5Timer7read_usEv)
    i._ZN4mbed5TimerC1Ev                     0x080042e6   Section        0  mbed/TARGET_NUCLEO_F401RE/TOOLCHAIN_ARM_STD/mbed.ar(Timer.o)(i._ZN4mbed5TimerC1Ev)
    i._ZN4mbed5TimerD1Ev                     0x0800431c   Section        0  mbed/TARGET_NUCLEO_F401RE/TOOLCHAIN_ARM_STD/mbed.ar(Timer.o)(i._ZN4mbed5TimerD1Ev)
    i._ZN4mbed6PwmOut6periodEf               0x08004340   Section        0  .\build\utils.o(i._ZN4mbed6PwmOut6periodEf)
    i._ZN4mbed6PwmOutC1E7PinName             0x08004364   Section        0  .\build\utils.o(i._ZN4mbed6PwmOutC1E7PinName)
    i._ZN4mbed6PwmOutD1Ev                    0x08004382   Section        0  .\build\utils.o(i._ZN4mbed6PwmOutD1Ev)
    i._ZN4mbed6PwmOutaSEf                    0x080043a4   Section        0  .\build\utils.o(i._ZN4mbed6PwmOutaSEf)
    i._ZN4mbed8AnalogIn4lockEv               0x080043e4   Section        0  .\build\main.o(i._ZN4mbed8AnalogIn4lockEv)
    i._ZN4mbed8AnalogIn6unlockEv             0x080043f8   Section        0  .\build\main.o(i._ZN4mbed8AnalogIn6unlockEv)
    i._ZN4mbed8AnalogInD1Ev                  0x0800440c   Section        0  .\build\main.o(i._ZN4mbed8AnalogInD1Ev)
    i._ZN4mbed8FileBase11getPathTypeEv       0x0800440e   Section        0  mbed/TARGET_NUCLEO_F401RE/TOOLCHAIN_ARM_STD/mbed.ar(FileBase.o)(i._ZN4mbed8FileBase11getPathTypeEv)
    i._ZN4mbed8FileBase6lookupEPKcj          0x08004414   Section        0  mbed/TARGET_NUCLEO_F401RE/TOOLCHAIN_ARM_STD/mbed.ar(FileBase.o)(i._ZN4mbed8FileBase6lookupEPKcj)
    i._ZN4mbed8FilePath10fileSystemEv        0x080044ac   Section        0  mbed/TARGET_NUCLEO_F401RE/TOOLCHAIN_ARM_STD/mbed.ar(FilePath.o)(i._ZN4mbed8FilePath10fileSystemEv)
    i._ZN4mbed8FilePath4fileEv               0x080044ca   Section        0  mbed/TARGET_NUCLEO_F401RE/TOOLCHAIN_ARM_STD/mbed.ar(FilePath.o)(i._ZN4mbed8FilePath4fileEv)
    i._ZN4mbed8FilePath6existsEv             0x080044e6   Section        0  mbed/TARGET_NUCLEO_F401RE/TOOLCHAIN_ARM_STD/mbed.ar(FilePath.o)(i._ZN4mbed8FilePath6existsEv)
    i._ZN4mbed8FilePath6isFileEv             0x080044f0   Section        0  mbed/TARGET_NUCLEO_F401RE/TOOLCHAIN_ARM_STD/mbed.ar(FilePath.o)(i._ZN4mbed8FilePath6isFileEv)
    i._ZN4mbed8FilePath8fileNameEv           0x08004508   Section        0  mbed/TARGET_NUCLEO_F401RE/TOOLCHAIN_ARM_STD/mbed.ar(FilePath.o)(i._ZN4mbed8FilePath8fileNameEv)
    i._ZN4mbed8FilePathC1EPKc                0x0800450c   Section        0  mbed/TARGET_NUCLEO_F401RE/TOOLCHAIN_ARM_STD/mbed.ar(FilePath.o)(i._ZN4mbed8FilePathC1EPKc)
    i._ZN4mbed9DigitalIncviEv                0x08004568   Section        0  .\build\utils.o(i._ZN4mbed9DigitalIncviEv)
    i._ZN5Motor4stopEv                       0x08004584   Section        0  .\build\utils.o(i._ZN5Motor4stopEv)
    i._ZN5Motor7forwardEd                    0x0800459c   Section        0  .\build\utils.o(i._ZN5Motor7forwardEd)
    i._ZN5MotorC1E7PinNameS0_                0x08004614   Section        0  .\build\utils.o(i._ZN5MotorC1E7PinNameS0_)
    i._ZN5MotorD1Ev                          0x08004664   Section        0  .\build\main.o(i._ZN5MotorD1Ev)
    i.__ARM_common_memcpy4_5                 0x0800468c   Section        0  mbed/TARGET_NUCLEO_F401RE/TOOLCHAIN_ARM_STD/mbed_board.o(i.__ARM_common_memcpy4_5)
    i.__ARM_fpclassify                       0x08004696   Section        0  C:\Keil_v5\ARM\ARMCC\Bin\..\lib\armlib\m_wm.l(fpclassify.o)(i.__ARM_fpclassify)
    i.__aeabi_atexit                         0x080046c6   Section        0  mbed/TARGET_NUCLEO_F401RE/TOOLCHAIN_ARM_STD/mbed_retarget.o(i.__aeabi_atexit)
    i.__cxa_guard_acquire                    0x080046cc   Section        0  mbed/TARGET_NUCLEO_F401RE/TOOLCHAIN_ARM_STD/mbed_retarget.o(i.__cxa_guard_acquire)
    i.__cxa_guard_release                    0x08004724   Section        0  mbed/TARGET_NUCLEO_F401RE/TOOLCHAIN_ARM_STD/mbed_retarget.o(i.__cxa_guard_release)
    i.__hardfp_fabs                          0x0800478c   Section        0  C:\Keil_v5\ARM\ARMCC\Bin\..\lib\armlib\m_wm.l(fabs.o)(i.__hardfp_fabs)
    i.__sti___8_main_cpp_c081bb56            0x080047a0   Section        0  .\build\main.o(i.__sti___8_main_cpp_c081bb56)
    __sti___8_main_cpp_c081bb56              0x080047a1   Thumb Code    66  .\build\main.o(i.__sti___8_main_cpp_c081bb56)
    i.__sti___9_utils_cpp_e6b18617           0x080047fc   Section        0  .\build\utils.o(i.__sti___9_utils_cpp_e6b18617)
    __sti___9_utils_cpp_e6b18617             0x080047fd   Thumb Code   104  .\build\utils.o(i.__sti___9_utils_cpp_e6b18617)
    i.__user_setup_stackheap                 0x08004888   Section        0  mbed/TARGET_NUCLEO_F401RE/TOOLCHAIN_ARM_STD/mbed_retarget.o(i.__user_setup_stackheap)
    i._is_digit                              0x08004890   Section        0  C:\Keil_v5\ARM\ARMCC\Bin\..\lib\armlib\c_w.l(__printf_wp.o)(i._is_digit)
    i._mbed_user_setup_stackheap             0x080048a0   Section        0  mbed/TARGET_NUCLEO_F401RE/TOOLCHAIN_ARM_STD/mbed_retarget.o(i._mbed_user_setup_stackheap)
    i._platform_post_stackheap_init          0x080048b0   Section        0  mbed/TARGET_NUCLEO_F401RE/TOOLCHAIN_ARM_STD/mbed_sdk_boot.o(i._platform_post_stackheap_init)
    i._sys_close                             0x080048d0   Section        0  mbed/TARGET_NUCLEO_F401RE/TOOLCHAIN_ARM_STD/mbed_retarget.o(i._sys_close)
    i._sys_flen                              0x08004910   Section        0  mbed/TARGET_NUCLEO_F401RE/TOOLCHAIN_ARM_STD/mbed_retarget.o(i._sys_flen)
    i._sys_istty                             0x08004940   Section        0  mbed/TARGET_NUCLEO_F401RE/TOOLCHAIN_ARM_STD/mbed_retarget.o(i._sys_istty)
    i._sys_open                              0x08004970   Section        0  mbed/TARGET_NUCLEO_F401RE/TOOLCHAIN_ARM_STD/mbed_retarget.o(i._sys_open)
    i._sys_seek                              0x08004a08   Section        0  mbed/TARGET_NUCLEO_F401RE/TOOLCHAIN_ARM_STD/mbed_retarget.o(i._sys_seek)
    i._sys_write                             0x08004a40   Section        0  mbed/TARGET_NUCLEO_F401RE/TOOLCHAIN_ARM_STD/mbed_retarget.o(i._sys_write)
    i.adc_read                               0x08004aa8   Section        0  mbed/TARGET_NUCLEO_F401RE/TOOLCHAIN_ARM_STD/analogin_device.o(i.adc_read)
    i.analogin_init                          0x08004b74   Section        0  mbed/TARGET_NUCLEO_F401RE/TOOLCHAIN_ARM_STD/analogin_device.o(i.analogin_init)
    i.analogin_read                          0x08004ca0   Section        0  mbed/TARGET_NUCLEO_F401RE/TOOLCHAIN_ARM_STD/analogin_api.o(i.analogin_read)
    i.core_util_are_interrupts_enabled       0x08004cbc   Section        0  mbed/TARGET_NUCLEO_F401RE/TOOLCHAIN_ARM_STD/mbed.ar(mbed_critical.o)(i.core_util_are_interrupts_enabled)
    i.core_util_atomic_decr_u16              0x08004cc8   Section        0  mbed/TARGET_NUCLEO_F401RE/TOOLCHAIN_ARM_STD/mbed.ar(mbed_critical.o)(i.core_util_atomic_decr_u16)
    i.core_util_atomic_flag_test_and_set     0x08004cdc   Section        0  mbed/TARGET_NUCLEO_F401RE/TOOLCHAIN_ARM_STD/mbed.ar(mbed_critical.o)(i.core_util_atomic_flag_test_and_set)
    i.core_util_atomic_incr_u16              0x08004cf6   Section        0  mbed/TARGET_NUCLEO_F401RE/TOOLCHAIN_ARM_STD/mbed.ar(mbed_critical.o)(i.core_util_atomic_incr_u16)
    i.core_util_critical_section_enter       0x08004d0c   Section        0  mbed/TARGET_NUCLEO_F401RE/TOOLCHAIN_ARM_STD/mbed.ar(mbed_critical.o)(i.core_util_critical_section_enter)
    i.core_util_critical_section_exit        0x08004d6c   Section        0  mbed/TARGET_NUCLEO_F401RE/TOOLCHAIN_ARM_STD/mbed.ar(mbed_critical.o)(i.core_util_critical_section_exit)
    i.core_util_is_isr_active                0x08004d8c   Section        0  mbed/TARGET_NUCLEO_F401RE/TOOLCHAIN_ARM_STD/mbed.ar(mbed_critical.o)(i.core_util_is_isr_active)
    i.debug                                  0x08004d98   Section        0  mbed/TARGET_NUCLEO_F401RE/TOOLCHAIN_ARM_STD/serial_api.o(i.debug)
    debug                                    0x08004d99   Thumb Code    20  mbed/TARGET_NUCLEO_F401RE/TOOLCHAIN_ARM_STD/serial_api.o(i.debug)
    i.error                                  0x08004db0   Section        0  mbed/TARGET_NUCLEO_F401RE/TOOLCHAIN_ARM_STD/mbed.ar(mbed_error.o)(i.error)
    i.exit                                   0x08004e34   Section        0  mbed/TARGET_NUCLEO_F401RE/TOOLCHAIN_ARM_STD/mbed_retarget.o(i.exit)
    i.fputc                                  0x08004e98   Section        0  C:\Keil_v5\ARM\ARMCC\Bin\..\lib\armlib\c_w.l(fputc.o)(i.fputc)
    i.get_us_ticker_data                     0x08004eb4   Section        0  mbed/TARGET_NUCLEO_F401RE/TOOLCHAIN_ARM_STD/mbed.ar(mbed_us_ticker_api.o)(i.get_us_ticker_data)
    i.gpio_dir                               0x08004ebc   Section        0  mbed/TARGET_NUCLEO_F401RE/TOOLCHAIN_ARM_STD/gpio_api.o(i.gpio_dir)
    i.gpio_init                              0x08004f20   Section        0  mbed/TARGET_NUCLEO_F401RE/TOOLCHAIN_ARM_STD/gpio_api.o(i.gpio_init)
    i.gpio_init_in                           0x08004f70   Section        0  mbed/TARGET_NUCLEO_F401RE/TOOLCHAIN_ARM_STD/mbed.ar(mbed_gpio.o)(i.gpio_init_in)
    i.gpio_init_out                          0x08004f98   Section        0  mbed/TARGET_NUCLEO_F401RE/TOOLCHAIN_ARM_STD/mbed.ar(mbed_gpio.o)(i.gpio_init_out)
    i.gpio_mode                              0x08004fc8   Section        0  mbed/TARGET_NUCLEO_F401RE/TOOLCHAIN_ARM_STD/gpio_api.o(i.gpio_mode)
    i.hal_critical_section_enter             0x08004fd0   Section        0  mbed/TARGET_NUCLEO_F401RE/TOOLCHAIN_ARM_STD/mbed.ar(mbed_critical_section_api.o)(i.hal_critical_section_enter)
    i.hal_critical_section_exit              0x08004ff0   Section        0  mbed/TARGET_NUCLEO_F401RE/TOOLCHAIN_ARM_STD/mbed.ar(mbed_critical_section_api.o)(i.hal_critical_section_exit)
    i.handle_error                           0x08005040   Section        0  mbed/TARGET_NUCLEO_F401RE/TOOLCHAIN_ARM_STD/mbed.ar(mbed_error.o)(i.handle_error)
    handle_error                             0x08005041   Thumb Code   110  mbed/TARGET_NUCLEO_F401RE/TOOLCHAIN_ARM_STD/mbed.ar(mbed_error.o)(i.handle_error)
    i.init_32bit_timer                       0x080050c0   Section        0  mbed/TARGET_NUCLEO_F401RE/TOOLCHAIN_ARM_STD/us_ticker.o(i.init_32bit_timer)
    i.init_uart                              0x0800516c   Section        0  mbed/TARGET_NUCLEO_F401RE/TOOLCHAIN_ARM_STD/serial_api.o(i.init_uart)
    i.initialize                             0x080051c4   Section        0  mbed/TARGET_NUCLEO_F401RE/TOOLCHAIN_ARM_STD/mbed.ar(mbed_ticker_api.o)(i.initialize)
    initialize                               0x080051c5   Thumb Code   250  mbed/TARGET_NUCLEO_F401RE/TOOLCHAIN_ARM_STD/mbed.ar(mbed_ticker_api.o)(i.initialize)
    i.main                                   0x080052cc   Section        0  .\build\main.o(i.main)
    i.mbed_assert_internal                   0x08005404   Section        0  mbed/TARGET_NUCLEO_F401RE/TOOLCHAIN_ARM_STD/mbed.ar(mbed_assert.o)(i.mbed_assert_internal)
    i.mbed_die                               0x08005424   Section        0  mbed/TARGET_NUCLEO_F401RE/TOOLCHAIN_ARM_STD/mbed_board.o(i.mbed_die)
    i.mbed_error                             0x08005488   Section        0  mbed/TARGET_NUCLEO_F401RE/TOOLCHAIN_ARM_STD/mbed.ar(mbed_error.o)(i.mbed_error)
    i.mbed_error_printf                      0x080054f0   Section        0  mbed/TARGET_NUCLEO_F401RE/TOOLCHAIN_ARM_STD/mbed_board.o(i.mbed_error_printf)
    i.mbed_error_puts                        0x08005544   Section        0  mbed/TARGET_NUCLEO_F401RE/TOOLCHAIN_ARM_STD/mbed_board.o(i.mbed_error_puts)
    i.mbed_error_vprintf                     0x08005564   Section        0  mbed/TARGET_NUCLEO_F401RE/TOOLCHAIN_ARM_STD/mbed_board.o(i.mbed_error_vprintf)
    i.mbed_fault_handler                     0x080055b0   Section        0  mbed/TARGET_NUCLEO_F401RE/TOOLCHAIN_ARM_STD/mbed_fault_handler.o(i.mbed_fault_handler)
    i.mbed_main                              0x080056c0   Section        0  mbed/TARGET_NUCLEO_F401RE/TOOLCHAIN_ARM_STD/mbed_sdk_boot.o(i.mbed_main)
    i.mbed_sdk_init                          0x080056c4   Section        0  mbed/TARGET_NUCLEO_F401RE/TOOLCHAIN_ARM_STD/mbed_overrides.o(i.mbed_sdk_init)
    i.open                                   0x080056e4   Section        0  mbed/TARGET_NUCLEO_F401RE/TOOLCHAIN_ARM_STD/mbed_retarget.o(i.open)
    i.pin_function                           0x0800579c   Section        0  mbed/TARGET_NUCLEO_F401RE/TOOLCHAIN_ARM_STD/pinmap.o(i.pin_function)
    i.pin_mode                               0x08005984   Section        0  mbed/TARGET_NUCLEO_F401RE/TOOLCHAIN_ARM_STD/pinmap.o(i.pin_mode)
    i.pinmap_function                        0x08005ab0   Section        0  mbed/TARGET_NUCLEO_F401RE/TOOLCHAIN_ARM_STD/mbed.ar(mbed_pinmap_common.o)(i.pinmap_function)
    i.pinmap_merge                           0x08005b1c   Section        0  mbed/TARGET_NUCLEO_F401RE/TOOLCHAIN_ARM_STD/mbed.ar(mbed_pinmap_common.o)(i.pinmap_merge)
    i.pinmap_peripheral                      0x08005b60   Section        0  mbed/TARGET_NUCLEO_F401RE/TOOLCHAIN_ARM_STD/mbed.ar(mbed_pinmap_common.o)(i.pinmap_peripheral)
    i.pinmap_pinout                          0x08005bcc   Section        0  mbed/TARGET_NUCLEO_F401RE/TOOLCHAIN_ARM_STD/mbed.ar(mbed_pinmap_common.o)(i.pinmap_pinout)
    i.print_context_info                     0x08005c34   Section        0  mbed/TARGET_NUCLEO_F401RE/TOOLCHAIN_ARM_STD/mbed_fault_handler.o(i.print_context_info)
    __tagsym$$noinline                       0x08005c35   Number         0  mbed/TARGET_NUCLEO_F401RE/TOOLCHAIN_ARM_STD/mbed_fault_handler.o(i.print_context_info)
    i.print_error_report                     0x08005de0   Section        0  mbed/TARGET_NUCLEO_F401RE/TOOLCHAIN_ARM_STD/mbed.ar(mbed_error.o)(i.print_error_report)
    print_error_report                       0x08005de1   Thumb Code   212  mbed/TARGET_NUCLEO_F401RE/TOOLCHAIN_ARM_STD/mbed.ar(mbed_error.o)(i.print_error_report)
    i.pwmout_init                            0x08005fb8   Section        0  mbed/TARGET_NUCLEO_F401RE/TOOLCHAIN_ARM_STD/pwmout_api.o(i.pwmout_init)
    i.pwmout_period                          0x08006144   Section        0  mbed/TARGET_NUCLEO_F401RE/TOOLCHAIN_ARM_STD/pwmout_api.o(i.pwmout_period)
    i.pwmout_period_us                       0x0800615c   Section        0  mbed/TARGET_NUCLEO_F401RE/TOOLCHAIN_ARM_STD/pwmout_api.o(i.pwmout_period_us)
    i.pwmout_write                           0x080062e0   Section        0  mbed/TARGET_NUCLEO_F401RE/TOOLCHAIN_ARM_STD/pwmout_api.o(i.pwmout_write)
    i.schedule_interrupt                     0x080063c8   Section        0  mbed/TARGET_NUCLEO_F401RE/TOOLCHAIN_ARM_STD/mbed.ar(mbed_ticker_api.o)(i.schedule_interrupt)
    schedule_interrupt                       0x080063c9   Thumb Code   290  mbed/TARGET_NUCLEO_F401RE/TOOLCHAIN_ARM_STD/mbed.ar(mbed_ticker_api.o)(i.schedule_interrupt)
    i.serial_baud                            0x0800651c   Section        0  mbed/TARGET_NUCLEO_F401RE/TOOLCHAIN_ARM_STD/serial_api.o(i.serial_baud)
    i.serial_init                            0x08006564   Section        0  mbed/TARGET_NUCLEO_F401RE/TOOLCHAIN_ARM_STD/serial_api.o(i.serial_init)
    i.serial_putc                            0x0800673c   Section        0  mbed/TARGET_NUCLEO_F401RE/TOOLCHAIN_ARM_STD/serial_device.o(i.serial_putc)
    i.serial_writable                        0x08006764   Section        0  mbed/TARGET_NUCLEO_F401RE/TOOLCHAIN_ARM_STD/serial_api.o(i.serial_writable)
    i.sleep_manager_lock_deep_sleep_internal 0x0800677c   Section        0  mbed/TARGET_NUCLEO_F401RE/TOOLCHAIN_ARM_STD/mbed.ar(mbed_sleep_manager.o)(i.sleep_manager_lock_deep_sleep_internal)
    i.sleep_manager_unlock_deep_sleep_internal 0x080067e4   Section        0  mbed/TARGET_NUCLEO_F401RE/TOOLCHAIN_ARM_STD/mbed.ar(mbed_sleep_manager.o)(i.sleep_manager_unlock_deep_sleep_internal)
    i.ticker_irq_handler                     0x0800683c   Section        0  mbed/TARGET_NUCLEO_F401RE/TOOLCHAIN_ARM_STD/mbed.ar(mbed_ticker_api.o)(i.ticker_irq_handler)
    i.ticker_read                            0x080068ae   Section        0  mbed/TARGET_NUCLEO_F401RE/TOOLCHAIN_ARM_STD/mbed.ar(mbed_ticker_api.o)(i.ticker_read)
    i.ticker_read_us                         0x080068cc   Section        0  mbed/TARGET_NUCLEO_F401RE/TOOLCHAIN_ARM_STD/mbed.ar(mbed_ticker_api.o)(i.ticker_read_us)
    i.timer_irq_handler                      0x080068f0   Section        0  mbed/TARGET_NUCLEO_F401RE/TOOLCHAIN_ARM_STD/us_ticker.o(i.timer_irq_handler)
    i.update_present_time                    0x08006918   Section        0  mbed/TARGET_NUCLEO_F401RE/TOOLCHAIN_ARM_STD/mbed.ar(mbed_ticker_api.o)(i.update_present_time)
    update_present_time                      0x08006919   Thumb Code   264  mbed/TARGET_NUCLEO_F401RE/TOOLCHAIN_ARM_STD/mbed.ar(mbed_ticker_api.o)(i.update_present_time)
    i.us_ticker_clear_interrupt              0x08006a24   Section        0  mbed/TARGET_NUCLEO_F401RE/TOOLCHAIN_ARM_STD/us_ticker.o(i.us_ticker_clear_interrupt)
    i.us_ticker_disable_interrupt            0x08006a34   Section        0  mbed/TARGET_NUCLEO_F401RE/TOOLCHAIN_ARM_STD/us_ticker.o(i.us_ticker_disable_interrupt)
    i.us_ticker_fire_interrupt               0x08006a48   Section        0  mbed/TARGET_NUCLEO_F401RE/TOOLCHAIN_ARM_STD/us_ticker.o(i.us_ticker_fire_interrupt)
    i.us_ticker_free                         0x08006a6c   Section        0  mbed/TARGET_NUCLEO_F401RE/TOOLCHAIN_ARM_STD/us_ticker.o(i.us_ticker_free)
    i.us_ticker_get_info                     0x08006a88   Section        0  mbed/TARGET_NUCLEO_F401RE/TOOLCHAIN_ARM_STD/us_ticker.o(i.us_ticker_get_info)
    i.us_ticker_init                         0x08006a90   Section        0  mbed/TARGET_NUCLEO_F401RE/TOOLCHAIN_ARM_STD/us_ticker.o(i.us_ticker_init)
    i.us_ticker_irq_handler                  0x08006aa8   Section        0  mbed/TARGET_NUCLEO_F401RE/TOOLCHAIN_ARM_STD/mbed.ar(mbed_us_ticker_api.o)(i.us_ticker_irq_handler)
    i.us_ticker_read                         0x08006ac0   Section        0  mbed/TARGET_NUCLEO_F401RE/TOOLCHAIN_ARM_STD/us_ticker.o(i.us_ticker_read)
    i.us_ticker_set_interrupt                0x08006acc   Section        0  mbed/TARGET_NUCLEO_F401RE/TOOLCHAIN_ARM_STD/us_ticker.o(i.us_ticker_set_interrupt)
    i.wait                                   0x08006aec   Section        0  mbed/TARGET_NUCLEO_F401RE/TOOLCHAIN_ARM_STD/mbed.ar(mbed_wait_api_no_rtos.o)(i.wait)
    i.wait_us                                0x08006b1c   Section        0  mbed/TARGET_NUCLEO_F401RE/TOOLCHAIN_ARM_STD/mbed.ar(mbed_wait_api_no_rtos.o)(i.wait_us)
    i.write                                  0x08006b3a   Section        0  mbed/TARGET_NUCLEO_F401RE/TOOLCHAIN_ARM_STD/mbed_retarget.o(i.write)
    locale$$code                             0x08006b74   Section       44  C:\Keil_v5\ARM\ARMCC\Bin\..\lib\armlib\c_w.l(lc_numeric_c.o)(locale$$code)
    locale$$code                             0x08006ba0   Section       44  C:\Keil_v5\ARM\ARMCC\Bin\..\lib\armlib\c_w.l(lc_ctype_c.o)(locale$$code)
    t._ZNK12SingletonPtrI13PlatformMutexEptEv 0x08006bcc   Section        0  mbed/TARGET_NUCLEO_F401RE/TOOLCHAIN_ARM_STD/mbed.ar(FileBase.o)(t._ZNK12SingletonPtrI13PlatformMutexEptEv)
    x$fpl$d2f                                0x08006bf8   Section       98  C:\Keil_v5\ARM\ARMCC\Bin\..\lib\armlib\fz_wm.l(d2f.o)(x$fpl$d2f)
    $v0                                      0x08006bf8   Number         0  C:\Keil_v5\ARM\ARMCC\Bin\..\lib\armlib\fz_wm.l(d2f.o)(x$fpl$d2f)
    x$fpl$dadd                               0x08006c5c   Section      336  C:\Keil_v5\ARM\ARMCC\Bin\..\lib\armlib\fz_wm.l(daddsub_clz.o)(x$fpl$dadd)
    $v0                                      0x08006c5c   Number         0  C:\Keil_v5\ARM\ARMCC\Bin\..\lib\armlib\fz_wm.l(daddsub_clz.o)(x$fpl$dadd)
    _dadd1                                   0x08006c6d   Thumb Code     0  C:\Keil_v5\ARM\ARMCC\Bin\..\lib\armlib\fz_wm.l(daddsub_clz.o)(x$fpl$dadd)
    x$fpl$ddiv                               0x08006dac   Section      688  C:\Keil_v5\ARM\ARMCC\Bin\..\lib\armlib\fz_wm.l(ddiv.o)(x$fpl$ddiv)
    $v0                                      0x08006dac   Number         0  C:\Keil_v5\ARM\ARMCC\Bin\..\lib\armlib\fz_wm.l(ddiv.o)(x$fpl$ddiv)
    ddiv_entry                               0x08006db3   Thumb Code     0  C:\Keil_v5\ARM\ARMCC\Bin\..\lib\armlib\fz_wm.l(ddiv.o)(x$fpl$ddiv)
    x$fpl$dfix                               0x0800705c   Section       94  C:\Keil_v5\ARM\ARMCC\Bin\..\lib\armlib\fz_wm.l(dfix.o)(x$fpl$dfix)
    $v0                                      0x0800705c   Number         0  C:\Keil_v5\ARM\ARMCC\Bin\..\lib\armlib\fz_wm.l(dfix.o)(x$fpl$dfix)
    x$fpl$dfixu                              0x080070bc   Section       90  C:\Keil_v5\ARM\ARMCC\Bin\..\lib\armlib\fz_wm.l(dfixu.o)(x$fpl$dfixu)
    $v0                                      0x080070bc   Number         0  C:\Keil_v5\ARM\ARMCC\Bin\..\lib\armlib\fz_wm.l(dfixu.o)(x$fpl$dfixu)
    x$fpl$dmul                               0x08007118   Section      340  C:\Keil_v5\ARM\ARMCC\Bin\..\lib\armlib\fz_wm.l(dmul.o)(x$fpl$dmul)
    $v0                                      0x08007118   Number         0  C:\Keil_v5\ARM\ARMCC\Bin\..\lib\armlib\fz_wm.l(dmul.o)(x$fpl$dmul)
    x$fpl$dnaninf                            0x0800726c   Section      156  C:\Keil_v5\ARM\ARMCC\Bin\..\lib\armlib\fz_wm.l(dnaninf.o)(x$fpl$dnaninf)
    $v0                                      0x0800726c   Number         0  C:\Keil_v5\ARM\ARMCC\Bin\..\lib\armlib\fz_wm.l(dnaninf.o)(x$fpl$dnaninf)
    x$fpl$dretinf                            0x08007308   Section       12  C:\Keil_v5\ARM\ARMCC\Bin\..\lib\armlib\fz_wm.l(dretinf.o)(x$fpl$dretinf)
    $v0                                      0x08007308   Number         0  C:\Keil_v5\ARM\ARMCC\Bin\..\lib\armlib\fz_wm.l(dretinf.o)(x$fpl$dretinf)
    x$fpl$dsub                               0x08007314   Section      468  C:\Keil_v5\ARM\ARMCC\Bin\..\lib\armlib\fz_wm.l(daddsub_clz.o)(x$fpl$dsub)
    $v0                                      0x08007314   Number         0  C:\Keil_v5\ARM\ARMCC\Bin\..\lib\armlib\fz_wm.l(daddsub_clz.o)(x$fpl$dsub)
    _dsub1                                   0x08007325   Thumb Code     0  C:\Keil_v5\ARM\ARMCC\Bin\..\lib\armlib\fz_wm.l(daddsub_clz.o)(x$fpl$dsub)
    x$fpl$f2d                                0x080074e8   Section       86  C:\Keil_v5\ARM\ARMCC\Bin\..\lib\armlib\fz_wm.l(f2d.o)(x$fpl$f2d)
    $v0                                      0x080074e8   Number         0  C:\Keil_v5\ARM\ARMCC\Bin\..\lib\armlib\fz_wm.l(f2d.o)(x$fpl$f2d)
    x$fpl$fnaninf                            0x0800753e   Section      140  C:\Keil_v5\ARM\ARMCC\Bin\..\lib\armlib\fz_wm.l(fnaninf.o)(x$fpl$fnaninf)
    $v0                                      0x0800753e   Number         0  C:\Keil_v5\ARM\ARMCC\Bin\..\lib\armlib\fz_wm.l(fnaninf.o)(x$fpl$fnaninf)
    x$fpl$fpinit                             0x080075ca   Section       10  C:\Keil_v5\ARM\ARMCC\Bin\..\lib\armlib\fz_wm.l(fpinit.o)(x$fpl$fpinit)
    $v0                                      0x080075ca   Number         0  C:\Keil_v5\ARM\ARMCC\Bin\..\lib\armlib\fz_wm.l(fpinit.o)(x$fpl$fpinit)
    x$fpl$fretinf                            0x080075d4   Section       10  C:\Keil_v5\ARM\ARMCC\Bin\..\lib\armlib\fz_wm.l(fretinf.o)(x$fpl$fretinf)
    $v0                                      0x080075d4   Number         0  C:\Keil_v5\ARM\ARMCC\Bin\..\lib\armlib\fz_wm.l(fretinf.o)(x$fpl$fretinf)
    x$fpl$printf1                            0x080075de   Section        4  C:\Keil_v5\ARM\ARMCC\Bin\..\lib\armlib\fz_wm.l(printf1.o)(x$fpl$printf1)
    $v0                                      0x080075de   Number         0  C:\Keil_v5\ARM\ARMCC\Bin\..\lib\armlib\fz_wm.l(printf1.o)(x$fpl$printf1)
    x$fpl$printf2                            0x080075e2   Section        4  C:\Keil_v5\ARM\ARMCC\Bin\..\lib\armlib\fz_wm.l(printf2.o)(x$fpl$printf2)
    $v0                                      0x080075e2   Number         0  C:\Keil_v5\ARM\ARMCC\Bin\..\lib\armlib\fz_wm.l(printf2.o)(x$fpl$printf2)
    .constdata                               0x080075e6   Section        5  mbed/TARGET_NUCLEO_F401RE/TOOLCHAIN_ARM_STD/mbed_board.o(.constdata)
    x$fpl$usenofp                            0x080075e6   Section        0  C:\Keil_v5\ARM\ARMCC\Bin\..\lib\armlib\fz_wm.l(usenofp.o)(x$fpl$usenofp)
    ellipsis                                 0x080075e6   Data           5  mbed/TARGET_NUCLEO_F401RE/TOOLCHAIN_ARM_STD/mbed_board.o(.constdata)
    .constdata                               0x080075ec   Section        4  mbed/TARGET_NUCLEO_F401RE/TOOLCHAIN_ARM_STD/mbed_fault_handler.o(.constdata)
    .constdata                               0x080075f0   Section       40  mbed/TARGET_NUCLEO_F401RE/TOOLCHAIN_ARM_STD/mbed_retarget.o(.constdata)
    info                                     0x08007608   Data           8  mbed/TARGET_NUCLEO_F401RE/TOOLCHAIN_ARM_STD/mbed_retarget.o(.constdata)
    info                                     0x08007610   Data           8  mbed/TARGET_NUCLEO_F401RE/TOOLCHAIN_ARM_STD/mbed_retarget.o(.constdata)
    .constdata                               0x08007618   Section      180  mbed/TARGET_NUCLEO_F401RE/TOOLCHAIN_ARM_STD/PeripheralPins.o(.constdata)
    .constdata                               0x080076cc   Section       48  mbed/TARGET_NUCLEO_F401RE/TOOLCHAIN_ARM_STD/PeripheralPins.o(.constdata)
    .constdata                               0x080076fc   Section      396  mbed/TARGET_NUCLEO_F401RE/TOOLCHAIN_ARM_STD/PeripheralPins.o(.constdata)
    .constdata                               0x08007888   Section       72  mbed/TARGET_NUCLEO_F401RE/TOOLCHAIN_ARM_STD/PeripheralPins.o(.constdata)
    .constdata                               0x080078d0   Section       72  mbed/TARGET_NUCLEO_F401RE/TOOLCHAIN_ARM_STD/PeripheralPins.o(.constdata)
    .constdata                               0x08007918   Section       64  mbed/TARGET_NUCLEO_F401RE/TOOLCHAIN_ARM_STD/pinmap.o(.constdata)
    .constdata                               0x08007958   Section       72  mbed/TARGET_NUCLEO_F401RE/TOOLCHAIN_ARM_STD/pwmout_device.o(.constdata)
    .constdata                               0x080079a0   Section       16  mbed/TARGET_NUCLEO_F401RE/TOOLCHAIN_ARM_STD/system_stm32f4xx.o(.constdata)
    .constdata                               0x080079b0   Section        8  mbed/TARGET_NUCLEO_F401RE/TOOLCHAIN_ARM_STD/system_stm32f4xx.o(.constdata)
    .constdata                               0x080079b8   Section        8  mbed/TARGET_NUCLEO_F401RE/TOOLCHAIN_ARM_STD/us_ticker.o(.constdata)
    info                                     0x080079b8   Data           8  mbed/TARGET_NUCLEO_F401RE/TOOLCHAIN_ARM_STD/us_ticker.o(.constdata)
    .constdata                               0x080079c0   Section       32  mbed/TARGET_NUCLEO_F401RE/TOOLCHAIN_ARM_STD/mbed.ar(mbed_us_ticker_api.o)(.constdata)
    us_interface                             0x080079c0   Data          32  mbed/TARGET_NUCLEO_F401RE/TOOLCHAIN_ARM_STD/mbed.ar(mbed_us_ticker_api.o)(.constdata)
    .constdata                               0x080079e0   Section        8  mbed/TARGET_NUCLEO_F401RE/TOOLCHAIN_ARM_STD/mbed.ar(mbed_us_ticker_api.o)(.constdata)
    us_data                                  0x080079e0   Data           8  mbed/TARGET_NUCLEO_F401RE/TOOLCHAIN_ARM_STD/mbed.ar(mbed_us_ticker_api.o)(.constdata)
    .constdata                               0x080079e8   Section        8  C:\Keil_v5\ARM\ARMCC\Bin\..\lib\armlib\c_w.l(_printf_wctomb.o)(.constdata)
    initial_mbstate                          0x080079e8   Data           8  C:\Keil_v5\ARM\ARMCC\Bin\..\lib\armlib\c_w.l(_printf_wctomb.o)(.constdata)
    .constdata                               0x080079f0   Section       40  C:\Keil_v5\ARM\ARMCC\Bin\..\lib\armlib\c_w.l(_printf_hex_int_ll_ptr.o)(.constdata)
    uc_hextab                                0x080079f0   Data          20  C:\Keil_v5\ARM\ARMCC\Bin\..\lib\armlib\c_w.l(_printf_hex_int_ll_ptr.o)(.constdata)
    lc_hextab                                0x08007a04   Data          20  C:\Keil_v5\ARM\ARMCC\Bin\..\lib\armlib\c_w.l(_printf_hex_int_ll_ptr.o)(.constdata)
    .constdata                               0x08007a18   Section       17  C:\Keil_v5\ARM\ARMCC\Bin\..\lib\armlib\c_w.l(__printf_flags_ss_wp.o)(.constdata)
    maptable                                 0x08007a18   Data          17  C:\Keil_v5\ARM\ARMCC\Bin\..\lib\armlib\c_w.l(__printf_flags_ss_wp.o)(.constdata)
    .constdata                               0x08007a29   Section       38  C:\Keil_v5\ARM\ARMCC\Bin\..\lib\armlib\c_w.l(_printf_fp_hex.o)(.constdata)
    lc_hextab                                0x08007a29   Data          19  C:\Keil_v5\ARM\ARMCC\Bin\..\lib\armlib\c_w.l(_printf_fp_hex.o)(.constdata)
    uc_hextab                                0x08007a3c   Data          19  C:\Keil_v5\ARM\ARMCC\Bin\..\lib\armlib\c_w.l(_printf_fp_hex.o)(.constdata)
    .constdata                               0x08007a50   Section      148  C:\Keil_v5\ARM\ARMCC\Bin\..\lib\armlib\c_w.l(bigflt0.o)(.constdata)
    tenpwrs_x                                0x08007a50   Data          60  C:\Keil_v5\ARM\ARMCC\Bin\..\lib\armlib\c_w.l(bigflt0.o)(.constdata)
    tenpwrs_i                                0x08007a8c   Data          64  C:\Keil_v5\ARM\ARMCC\Bin\..\lib\armlib\c_w.l(bigflt0.o)(.constdata)
    .constdata__ZTV12DirectSerial            0x08007ae4   Section       80  mbed/TARGET_NUCLEO_F401RE/TOOLCHAIN_ARM_STD/mbed_retarget.o(.constdata__ZTV12DirectSerial)
    .constdata__ZTVN4mbed8AnalogInE          0x08007b34   Section       24  .\build\main.o(.constdata__ZTVN4mbed8AnalogInE)
    .constdata__ZZNK12SingletonPtrI13PlatformMutexE3getEvEs 0x08007b4c   Section       20  mbed/TARGET_NUCLEO_F401RE/TOOLCHAIN_ARM_STD/mbed_retarget.o(.constdata__ZZNK12SingletonPtrI13PlatformMutexE3getEvEs)
    .constdata__ZZNK12SingletonPtrI13PlatformMutexE3getEvEs_0 0x08007b60   Section       83  mbed/TARGET_NUCLEO_F401RE/TOOLCHAIN_ARM_STD/mbed_retarget.o(.constdata__ZZNK12SingletonPtrI13PlatformMutexE3getEvEs_0)
    .conststring                             0x08007bb4   Section      100  mbed/TARGET_NUCLEO_F401RE/TOOLCHAIN_ARM_STD/analogin_device.o(.conststring)
    .conststring                             0x08007c18   Section      149  mbed/TARGET_NUCLEO_F401RE/TOOLCHAIN_ARM_STD/mbed_fault_handler.o(.conststring)
    .conststring                             0x08007cb0   Section       75  mbed/TARGET_NUCLEO_F401RE/TOOLCHAIN_ARM_STD/mbed_retarget.o(.conststring)
    .conststring                             0x08007cfc   Section       76  mbed/TARGET_NUCLEO_F401RE/TOOLCHAIN_ARM_STD/pinmap.o(.conststring)
    .conststring                             0x08007d48   Section       80  mbed/TARGET_NUCLEO_F401RE/TOOLCHAIN_ARM_STD/pwmout_api.o(.conststring)
    .conststring                             0x08007d98   Section       80  mbed/TARGET_NUCLEO_F401RE/TOOLCHAIN_ARM_STD/serial_api.o(.conststring)
    .conststring                             0x08007de8   Section       70  mbed/TARGET_NUCLEO_F401RE/TOOLCHAIN_ARM_STD/mbed.ar(mbed_ticker_api.o)(.conststring)
    .conststring                             0x08007e30   Section       70  mbed/TARGET_NUCLEO_F401RE/TOOLCHAIN_ARM_STD/mbed.ar(FilePath.o)(.conststring)
    .conststring                             0x08007e78   Section       73  mbed/TARGET_NUCLEO_F401RE/TOOLCHAIN_ARM_STD/mbed.ar(mbed_critical.o)(.conststring)
    .conststring                             0x08007ec4   Section      160  mbed/TARGET_NUCLEO_F401RE/TOOLCHAIN_ARM_STD/mbed.ar(mbed_error.o)(.conststring)
    .conststring                             0x08007f64   Section       80  mbed/TARGET_NUCLEO_F401RE/TOOLCHAIN_ARM_STD/mbed.ar(mbed_critical_section_api.o)(.conststring)
    locale$$data                             0x08007fd4   Section       28  C:\Keil_v5\ARM\ARMCC\Bin\..\lib\armlib\c_w.l(lc_numeric_c.o)(locale$$data)
    __lcnum_c_name                           0x08007fd8   Data           2  C:\Keil_v5\ARM\ARMCC\Bin\..\lib\armlib\c_w.l(lc_numeric_c.o)(locale$$data)
    __lcnum_c_start                          0x08007fe0   Data           0  C:\Keil_v5\ARM\ARMCC\Bin\..\lib\armlib\c_w.l(lc_numeric_c.o)(locale$$data)
    __lcnum_c_point                          0x08007fec   Data           0  C:\Keil_v5\ARM\ARMCC\Bin\..\lib\armlib\c_w.l(lc_numeric_c.o)(locale$$data)
    __lcnum_c_thousands                      0x08007fee   Data           0  C:\Keil_v5\ARM\ARMCC\Bin\..\lib\armlib\c_w.l(lc_numeric_c.o)(locale$$data)
    __lcnum_c_grouping                       0x08007fef   Data           0  C:\Keil_v5\ARM\ARMCC\Bin\..\lib\armlib\c_w.l(lc_numeric_c.o)(locale$$data)
    locale$$data                             0x08007ff0   Section      272  C:\Keil_v5\ARM\ARMCC\Bin\..\lib\armlib\c_w.l(lc_ctype_c.o)(locale$$data)
    __lcnum_c_end                            0x08007ff0   Data           0  C:\Keil_v5\ARM\ARMCC\Bin\..\lib\armlib\c_w.l(lc_numeric_c.o)(locale$$data)
    __lcctype_c_name                         0x08007ff4   Data           2  C:\Keil_v5\ARM\ARMCC\Bin\..\lib\armlib\c_w.l(lc_ctype_c.o)(locale$$data)
    __lcctype_c_start                        0x08007ffc   Data           0  C:\Keil_v5\ARM\ARMCC\Bin\..\lib\armlib\c_w.l(lc_ctype_c.o)(locale$$data)
    .init_array                              0x08008100   Section        4  .\build\main.o(.init_array)
    __lcctype_c_end                          0x08008100   Data           0  C:\Keil_v5\ARM\ARMCC\Bin\..\lib\armlib\c_w.l(lc_ctype_c.o)(locale$$data)
    .init_array                              0x08008104   Section        4  .\build\utils.o(.init_array)
    .init_array                              0x08008108   Section        0  C:\Keil_v5\ARM\ARMCC\Bin\..\lib\armlib\c_w.l(init_aeabi.o)(.init_array)
    .data                                    0x20000198   Section        4  mbed/TARGET_NUCLEO_F401RE/TOOLCHAIN_ARM_STD/mbed_overrides.o(.data)
    .data                                    0x2000019c   Section       72  mbed/TARGET_NUCLEO_F401RE/TOOLCHAIN_ARM_STD/mbed_retarget.o(.data)
    _ZGV_ZZ15default_consolevE7console       0x2000019c   Data           4  mbed/TARGET_NUCLEO_F401RE/TOOLCHAIN_ARM_STD/mbed_retarget.o(.data)
    default_console()::console               0x200001a0   Data           4  mbed/TARGET_NUCLEO_F401RE/TOOLCHAIN_ARM_STD/mbed_retarget.o(.data)
    filehandles                              0x200001a4   Data          64  mbed/TARGET_NUCLEO_F401RE/TOOLCHAIN_ARM_STD/mbed_retarget.o(.data)
    .data                                    0x200001e4   Section        4  mbed/TARGET_NUCLEO_F401RE/TOOLCHAIN_ARM_STD/serial_api.o(.data)
    .data                                    0x200001e8   Section        4  mbed/TARGET_NUCLEO_F401RE/TOOLCHAIN_ARM_STD/system_stm32f4xx.o(.data)
    .data                                    0x200001f0   Section       20  .\build\main.o(.data)
    .data                                    0x20000204   Section        4  .\build\utils.o(.data)
    .data                                    0x20000208   Section        4  mbed/TARGET_NUCLEO_F401RE/TOOLCHAIN_ARM_STD/mbed.ar(mbed_us_ticker_api.o)(.data)
    irq_handler                              0x20000208   Data           4  mbed/TARGET_NUCLEO_F401RE/TOOLCHAIN_ARM_STD/mbed.ar(mbed_us_ticker_api.o)(.data)
    .data                                    0x2000020c   Section        4  mbed/TARGET_NUCLEO_F401RE/TOOLCHAIN_ARM_STD/mbed.ar(mbed_critical.o)(.data)
    critical_section_reentrancy_counter      0x2000020c   Data           4  mbed/TARGET_NUCLEO_F401RE/TOOLCHAIN_ARM_STD/mbed.ar(mbed_critical.o)(.data)
    .data                                    0x20000210   Section       12  mbed/TARGET_NUCLEO_F401RE/TOOLCHAIN_ARM_STD/mbed.ar(mbed_error.o)(.data)
    error_in_progress                        0x20000210   Data           1  mbed/TARGET_NUCLEO_F401RE/TOOLCHAIN_ARM_STD/mbed.ar(mbed_error.o)(.data)
    halt_in_progress                         0x20000211   Data           1  mbed/TARGET_NUCLEO_F401RE/TOOLCHAIN_ARM_STD/mbed.ar(mbed_error.o)(.data)
    error_count                              0x20000214   Data           4  mbed/TARGET_NUCLEO_F401RE/TOOLCHAIN_ARM_STD/mbed.ar(mbed_error.o)(.data)
    error_hook                               0x20000218   Data           4  mbed/TARGET_NUCLEO_F401RE/TOOLCHAIN_ARM_STD/mbed.ar(mbed_error.o)(.data)
    .data                                    0x20000220   Section       24  mbed/TARGET_NUCLEO_F401RE/TOOLCHAIN_ARM_STD/mbed.ar(mbed_sleep_manager.o)(.data)
    deep_sleep_lock                          0x20000220   Data           2  mbed/TARGET_NUCLEO_F401RE/TOOLCHAIN_ARM_STD/mbed.ar(mbed_sleep_manager.o)(.data)
    sleep_time                               0x20000228   Data           8  mbed/TARGET_NUCLEO_F401RE/TOOLCHAIN_ARM_STD/mbed.ar(mbed_sleep_manager.o)(.data)
    deep_sleep_time                          0x20000230   Data           8  mbed/TARGET_NUCLEO_F401RE/TOOLCHAIN_ARM_STD/mbed.ar(mbed_sleep_manager.o)(.data)
    .data                                    0x20000238   Section        2  mbed/TARGET_NUCLEO_F401RE/TOOLCHAIN_ARM_STD/mbed.ar(mbed_critical_section_api.o)(.data)
    critical_interrupts_enabled              0x20000238   Data           1  mbed/TARGET_NUCLEO_F401RE/TOOLCHAIN_ARM_STD/mbed.ar(mbed_critical_section_api.o)(.data)
    state_saved                              0x20000239   Data           1  mbed/TARGET_NUCLEO_F401RE/TOOLCHAIN_ARM_STD/mbed.ar(mbed_critical_section_api.o)(.data)
    .data                                    0x2000023c   Section        8  mbed/TARGET_NUCLEO_F401RE/TOOLCHAIN_ARM_STD/mbed.ar(FileBase.o)(.data)
    .data                                    0x20000244   Section        4  C:\Keil_v5\ARM\ARMCC\Bin\..\lib\armlib\c_w.l(stdio_streams.o)(.data)
    .data                                    0x20000248   Section        4  C:\Keil_v5\ARM\ARMCC\Bin\..\lib\armlib\c_w.l(stdio_streams.o)(.data)
    .data                                    0x2000024c   Section        4  C:\Keil_v5\ARM\ARMCC\Bin\..\lib\armlib\c_w.l(stdio_streams.o)(.data)
    .data                                    0x20000250   Section        4  C:\Keil_v5\ARM\ARMCC\Bin\..\lib\armlib\c_w.l(heapauxa.o)(.data)
    __rt_heap_escrow_base                    0x20000250   Data           4  C:\Keil_v5\ARM\ARMCC\Bin\..\lib\armlib\c_w.l(heapauxa.o)(.data)
    .bss                                     0x20000254   Section       84  mbed/TARGET_NUCLEO_F401RE/TOOLCHAIN_ARM_STD/mbed_fault_handler.o(.bss)
    .bss                                     0x200002a8   Section      328  mbed/TARGET_NUCLEO_F401RE/TOOLCHAIN_ARM_STD/mbed_retarget.o(.bss)
    ent                                      0x200002a8   Data         257  mbed/TARGET_NUCLEO_F401RE/TOOLCHAIN_ARM_STD/mbed_retarget.o(.bss)
    _mutex                                   0x200003b0   Data          16  mbed/TARGET_NUCLEO_F401RE/TOOLCHAIN_ARM_STD/mbed_retarget.o(.bss)
    stdio_in_prev                            0x200003c0   Data          16  mbed/TARGET_NUCLEO_F401RE/TOOLCHAIN_ARM_STD/mbed_retarget.o(.bss)
    stdio_out_prev                           0x200003d0   Data          16  mbed/TARGET_NUCLEO_F401RE/TOOLCHAIN_ARM_STD/mbed_retarget.o(.bss)
    filehandle_mutex                         0x200003e0   Data          16  mbed/TARGET_NUCLEO_F401RE/TOOLCHAIN_ARM_STD/mbed_retarget.o(.bss)
    .bss                                     0x200003f0   Section       60  mbed/TARGET_NUCLEO_F401RE/TOOLCHAIN_ARM_STD/pwmout_api.o(.bss)
    TimHandle                                0x200003f0   Data          60  mbed/TARGET_NUCLEO_F401RE/TOOLCHAIN_ARM_STD/pwmout_api.o(.bss)
    .bss                                     0x2000042c   Section       76  mbed/TARGET_NUCLEO_F401RE/TOOLCHAIN_ARM_STD/serial_api.o(.bss)
    .bss                                     0x20000478   Section      204  mbed/TARGET_NUCLEO_F401RE/TOOLCHAIN_ARM_STD/serial_device.o(.bss)
    .bss                                     0x20000544   Section       60  mbed/TARGET_NUCLEO_F401RE/TOOLCHAIN_ARM_STD/us_ticker.o(.bss)
    .bss                                     0x20000580   Section      140  .\build\main.o(.bss)
    .bss                                     0x20000610   Section      172  .\build\utils.o(.bss)
    .bss                                     0x200006c0   Section       16  mbed/TARGET_NUCLEO_F401RE/TOOLCHAIN_ARM_STD/mbed.ar(AnalogIn.o)(.bss)
    .bss                                     0x200006d0   Section       64  mbed/TARGET_NUCLEO_F401RE/TOOLCHAIN_ARM_STD/mbed.ar(mbed_us_ticker_api.o)(.bss)
    events                                   0x200006d0   Data          64  mbed/TARGET_NUCLEO_F401RE/TOOLCHAIN_ARM_STD/mbed.ar(mbed_us_ticker_api.o)(.bss)
    .bss                                     0x20000710   Section      104  mbed/TARGET_NUCLEO_F401RE/TOOLCHAIN_ARM_STD/mbed.ar(mbed_error.o)(.bss)
    first_error_ctx                          0x20000710   Data          52  mbed/TARGET_NUCLEO_F401RE/TOOLCHAIN_ARM_STD/mbed.ar(mbed_error.o)(.bss)
    last_error_ctx                           0x20000744   Data          52  mbed/TARGET_NUCLEO_F401RE/TOOLCHAIN_ARM_STD/mbed.ar(mbed_error.o)(.bss)
    .bss                                     0x20000778   Section       16  mbed/TARGET_NUCLEO_F401RE/TOOLCHAIN_ARM_STD/mbed.ar(FileBase.o)(.bss)
    .bss                                     0x20000788   Section        4  C:\Keil_v5\ARM\ARMCC\Bin\..\lib\armlib\c_w.l(rt_errno_addr.o)(.bss)
    __aeabi_errno_addr_data                  0x20000788   Data           4  C:\Keil_v5\ARM\ARMCC\Bin\..\lib\armlib\c_w.l(rt_errno_addr.o)(.bss)
    .bss                                     0x2000078c   Section       84  C:\Keil_v5\ARM\ARMCC\Bin\..\lib\armlib\c_w.l(stdio_streams.o)(.bss)
    .bss                                     0x200007e0   Section       84  C:\Keil_v5\ARM\ARMCC\Bin\..\lib\armlib\c_w.l(stdio_streams.o)(.bss)
    .bss                                     0x20000834   Section       84  C:\Keil_v5\ARM\ARMCC\Bin\..\lib\armlib\c_w.l(stdio_streams.o)(.bss)
    .bss                                     0x20000888   Section        4  C:\Keil_v5\ARM\ARMCC\Bin\..\lib\armlib\c_w.l(rt_heap_descriptor.o)(.bss)
    __rt_heap_descriptor_data                0x20000888   Data           4  C:\Keil_v5\ARM\ARMCC\Bin\..\lib\armlib\c_w.l(rt_heap_descriptor.o)(.bss)
    .bss                                     0x2000088c   Section       20  C:\Keil_v5\ARM\ARMCC\Bin\..\lib\armlib\c_w.l(rt_locale.o)(.bss)
    __rt_locale_data                         0x2000088c   Data          20  C:\Keil_v5\ARM\ARMCC\Bin\..\lib\armlib\c_w.l(rt_locale.o)(.bss)

    Global Symbols

    Symbol Name                              Value     Ov Type        Size  Object(Section)

    BuildAttributes$$THM_ISAv4$E$P$D$K$B$S$7EM$VFPi3$EXTD16$VFPS$VFMA$PE$A:L22UL41UL21$X:L11$S22US41US21$IEEE1$IW$USESV6$~STKCKD$USESV7$~SHL$OTIME$ROPI$IEEEJ$EBA8$UX$STANDARDLIB$REQ8$PRES8$EABIv2 0x00000000   Number         0  anon$$obj.o ABSOLUTE
    __ARM_use_no_argv                        0x00000000   Number         0  .\build\main.o ABSOLUTE
    _printf_flags                            0x00000000   Number         0  C:\Keil_v5\ARM\ARMCC\Bin\..\lib\armlib\c_w.l(printf_stubs.o) ABSOLUTE
    _printf_return_value                     0x00000000   Number         0  C:\Keil_v5\ARM\ARMCC\Bin\..\lib\armlib\c_w.l(printf_stubs.o) ABSOLUTE
    _printf_sizespec                         0x00000000   Number         0  C:\Keil_v5\ARM\ARMCC\Bin\..\lib\armlib\c_w.l(printf_stubs.o) ABSOLUTE
    _printf_widthprec                        0x00000000   Number         0  C:\Keil_v5\ARM\ARMCC\Bin\..\lib\armlib\c_w.l(printf_stubs.o) ABSOLUTE
    __ARM::default_unexpected_handler()       - Undefined Weak Reference
    typeinfo for mbed::FileSystemHandle       - Undefined Weak Reference
    typeinfo for mbed::DirHandle              - Undefined Weak Reference
    __ARM_exceptions_buffer_required          - Undefined Weak Reference
    __ARM_exceptions_init                     - Undefined Weak Reference
    __alloca_initialize                       - Undefined Weak Reference
    __arm_preinit_                            - Undefined Weak Reference
    __rt_lib_shutdown                         - Undefined Weak Reference
    __sigvec_lookup                           - Undefined Weak Reference
    __user_heap_extent                        - Undefined Weak Reference
    _atexit_init                              - Undefined Weak Reference
    _clock_init                               - Undefined Weak Reference
    _fp_trap_init                             - Undefined Weak Reference
    _fp_trap_shutdown                         - Undefined Weak Reference
    _get_lc_collate                           - Undefined Weak Reference
    _get_lc_monetary                          - Undefined Weak Reference
    _get_lc_time                              - Undefined Weak Reference
    _getenv_init                              - Undefined Weak Reference
    _handle_redirection                       - Undefined Weak Reference
    _mutex_acquire                            - Undefined Weak Reference
    _mutex_free                               - Undefined Weak Reference
    _mutex_release                            - Undefined Weak Reference
    _printf_mbtowc                            - Undefined Weak Reference
    _printf_wc                                - Undefined Weak Reference
    _rand_init                                - Undefined Weak Reference
    _signal_finish                            - Undefined Weak Reference
    _signal_init                              - Undefined Weak Reference
    __Vectors_Size                           0x00000194   Number         0  mbed/TARGET_NUCLEO_F401RE/TOOLCHAIN_ARM_STD/startup_stm32f401xe.o ABSOLUTE
    __Vectors                                0x08000000   Data           4  mbed/TARGET_NUCLEO_F401RE/TOOLCHAIN_ARM_STD/startup_stm32f401xe.o(RESET)
    __dso_handle                             0x08000000   Number         0  mbed/TARGET_NUCLEO_F401RE/TOOLCHAIN_ARM_STD/startup_stm32f401xe.o(RESET)
    __Vectors_End                            0x08000194   Data           0  mbed/TARGET_NUCLEO_F401RE/TOOLCHAIN_ARM_STD/startup_stm32f401xe.o(RESET)
    __main                                   0x08000195   Thumb Code     8  C:\Keil_v5\ARM\ARMCC\Bin\..\lib\armlib\c_w.l(__main.o)(!!!main)
    __scatterload                            0x0800019d   Thumb Code     0  C:\Keil_v5\ARM\ARMCC\Bin\..\lib\armlib\c_w.l(__scatter.o)(!!!scatter)
    __scatterload_rt2                        0x0800019d   Thumb Code    44  C:\Keil_v5\ARM\ARMCC\Bin\..\lib\armlib\c_w.l(__scatter.o)(!!!scatter)
    __scatterload_rt2_thumb_only             0x0800019d   Thumb Code     0  C:\Keil_v5\ARM\ARMCC\Bin\..\lib\armlib\c_w.l(__scatter.o)(!!!scatter)
    __scatterload_null                       0x080001ab   Thumb Code     0  C:\Keil_v5\ARM\ARMCC\Bin\..\lib\armlib\c_w.l(__scatter.o)(!!!scatter)
    __scatterload_copy                       0x080001d1   Thumb Code    26  C:\Keil_v5\ARM\ARMCC\Bin\..\lib\armlib\c_w.l(__scatter_copy.o)(!!handler_copy)
    __scatterload_zeroinit                   0x080001ed   Thumb Code    28  C:\Keil_v5\ARM\ARMCC\Bin\..\lib\armlib\c_w.l(__scatter_zi.o)(!!handler_zi)
    _printf_n                                0x08000209   Thumb Code     0  C:\Keil_v5\ARM\ARMCC\Bin\..\lib\armlib\c_w.l(_printf_n.o)(.ARM.Collect$$_printf_percent$$00000001)
    _printf_percent                          0x08000209   Thumb Code     0  C:\Keil_v5\ARM\ARMCC\Bin\..\lib\armlib\c_w.l(_printf_percent.o)(.ARM.Collect$$_printf_percent$$00000000)
    _printf_p                                0x0800020f   Thumb Code     0  C:\Keil_v5\ARM\ARMCC\Bin\..\lib\armlib\c_w.l(_printf_p.o)(.ARM.Collect$$_printf_percent$$00000002)
    _printf_f                                0x08000215   Thumb Code     0  C:\Keil_v5\ARM\ARMCC\Bin\..\lib\armlib\c_w.l(_printf_f.o)(.ARM.Collect$$_printf_percent$$00000003)
    _printf_e                                0x0800021b   Thumb Code     0  C:\Keil_v5\ARM\ARMCC\Bin\..\lib\armlib\c_w.l(_printf_e.o)(.ARM.Collect$$_printf_percent$$00000004)
    _printf_g                                0x08000221   Thumb Code     0  C:\Keil_v5\ARM\ARMCC\Bin\..\lib\armlib\c_w.l(_printf_g.o)(.ARM.Collect$$_printf_percent$$00000005)
    _printf_a                                0x08000227   Thumb Code     0  C:\Keil_v5\ARM\ARMCC\Bin\..\lib\armlib\c_w.l(_printf_a.o)(.ARM.Collect$$_printf_percent$$00000006)
    _printf_ll                               0x0800022d   Thumb Code     0  C:\Keil_v5\ARM\ARMCC\Bin\..\lib\armlib\c_w.l(_printf_ll.o)(.ARM.Collect$$_printf_percent$$00000007)
    _printf_i                                0x08000237   Thumb Code     0  C:\Keil_v5\ARM\ARMCC\Bin\..\lib\armlib\c_w.l(_printf_i.o)(.ARM.Collect$$_printf_percent$$00000008)
    _printf_d                                0x0800023d   Thumb Code     0  C:\Keil_v5\ARM\ARMCC\Bin\..\lib\armlib\c_w.l(_printf_d.o)(.ARM.Collect$$_printf_percent$$00000009)
    _printf_u                                0x08000243   Thumb Code     0  C:\Keil_v5\ARM\ARMCC\Bin\..\lib\armlib\c_w.l(_printf_u.o)(.ARM.Collect$$_printf_percent$$0000000A)
    _printf_o                                0x08000249   Thumb Code     0  C:\Keil_v5\ARM\ARMCC\Bin\..\lib\armlib\c_w.l(_printf_o.o)(.ARM.Collect$$_printf_percent$$0000000B)
    _printf_x                                0x0800024f   Thumb Code     0  C:\Keil_v5\ARM\ARMCC\Bin\..\lib\armlib\c_w.l(_printf_x.o)(.ARM.Collect$$_printf_percent$$0000000C)
    _printf_lli                              0x08000255   Thumb Code     0  C:\Keil_v5\ARM\ARMCC\Bin\..\lib\armlib\c_w.l(_printf_lli.o)(.ARM.Collect$$_printf_percent$$0000000D)
    _printf_lld                              0x0800025b   Thumb Code     0  C:\Keil_v5\ARM\ARMCC\Bin\..\lib\armlib\c_w.l(_printf_lld.o)(.ARM.Collect$$_printf_percent$$0000000E)
    _printf_llu                              0x08000261   Thumb Code     0  C:\Keil_v5\ARM\ARMCC\Bin\..\lib\armlib\c_w.l(_printf_llu.o)(.ARM.Collect$$_printf_percent$$0000000F)
    _printf_llo                              0x08000267   Thumb Code     0  C:\Keil_v5\ARM\ARMCC\Bin\..\lib\armlib\c_w.l(_printf_llo.o)(.ARM.Collect$$_printf_percent$$00000010)
    _printf_llx                              0x0800026d   Thumb Code     0  C:\Keil_v5\ARM\ARMCC\Bin\..\lib\armlib\c_w.l(_printf_llx.o)(.ARM.Collect$$_printf_percent$$00000011)
    _printf_l                                0x08000273   Thumb Code     0  C:\Keil_v5\ARM\ARMCC\Bin\..\lib\armlib\c_w.l(_printf_l.o)(.ARM.Collect$$_printf_percent$$00000012)
    _printf_c                                0x0800027d   Thumb Code     0  C:\Keil_v5\ARM\ARMCC\Bin\..\lib\armlib\c_w.l(_printf_c.o)(.ARM.Collect$$_printf_percent$$00000013)
    _printf_s                                0x08000283   Thumb Code     0  C:\Keil_v5\ARM\ARMCC\Bin\..\lib\armlib\c_w.l(_printf_s.o)(.ARM.Collect$$_printf_percent$$00000014)
    _printf_lc                               0x08000289   Thumb Code     0  C:\Keil_v5\ARM\ARMCC\Bin\..\lib\armlib\c_w.l(_printf_lc.o)(.ARM.Collect$$_printf_percent$$00000015)
    _printf_ls                               0x0800028f   Thumb Code     0  C:\Keil_v5\ARM\ARMCC\Bin\..\lib\armlib\c_w.l(_printf_ls.o)(.ARM.Collect$$_printf_percent$$00000016)
    _printf_percent_end                      0x08000295   Thumb Code     0  C:\Keil_v5\ARM\ARMCC\Bin\..\lib\armlib\c_w.l(_printf_percent_end.o)(.ARM.Collect$$_printf_percent$$00000017)
    __rt_lib_init                            0x08000299   Thumb Code     0  C:\Keil_v5\ARM\ARMCC\Bin\..\lib\armlib\c_w.l(libinit.o)(.ARM.Collect$$libinit$$00000000)
    __rt_lib_init_fp_1                       0x0800029b   Thumb Code     0  C:\Keil_v5\ARM\ARMCC\Bin\..\lib\armlib\c_w.l(libinit2.o)(.ARM.Collect$$libinit$$00000001)
    __rt_lib_init_heap_2                     0x0800029f   Thumb Code     0  C:\Keil_v5\ARM\ARMCC\Bin\..\lib\armlib\c_w.l(libinit2.o)(.ARM.Collect$$libinit$$00000005)
    __rt_lib_init_preinit_1                  0x0800029f   Thumb Code     0  C:\Keil_v5\ARM\ARMCC\Bin\..\lib\armlib\c_w.l(libinit2.o)(.ARM.Collect$$libinit$$00000004)
    __rt_lib_init_heap_1                     0x080002a7   Thumb Code     0  C:\Keil_v5\ARM\ARMCC\Bin\..\lib\armlib\c_w.l(libinit2.o)(.ARM.Collect$$libinit$$0000000A)
    __rt_lib_init_lc_common                  0x080002a7   Thumb Code     0  C:\Keil_v5\ARM\ARMCC\Bin\..\lib\armlib\c_w.l(libinit2.o)(.ARM.Collect$$libinit$$0000000F)
    __rt_lib_init_rand_1                     0x080002a7   Thumb Code     0  C:\Keil_v5\ARM\ARMCC\Bin\..\lib\armlib\c_w.l(libinit2.o)(.ARM.Collect$$libinit$$0000000E)
    __rt_lib_init_user_alloc_1               0x080002a7   Thumb Code     0  C:\Keil_v5\ARM\ARMCC\Bin\..\lib\armlib\c_w.l(libinit2.o)(.ARM.Collect$$libinit$$0000000C)
    __rt_lib_init_lc_collate_1               0x080002ad   Thumb Code     0  C:\Keil_v5\ARM\ARMCC\Bin\..\lib\armlib\c_w.l(libinit2.o)(.ARM.Collect$$libinit$$00000011)
    __rt_lib_init_lc_ctype_2                 0x080002ad   Thumb Code     0  C:\Keil_v5\ARM\ARMCC\Bin\..\lib\armlib\c_w.l(libinit2.o)(.ARM.Collect$$libinit$$00000012)
    __rt_lib_init_lc_ctype_1                 0x080002b9   Thumb Code     0  C:\Keil_v5\ARM\ARMCC\Bin\..\lib\armlib\c_w.l(libinit2.o)(.ARM.Collect$$libinit$$00000013)
    __rt_lib_init_lc_monetary_1              0x080002b9   Thumb Code     0  C:\Keil_v5\ARM\ARMCC\Bin\..\lib\armlib\c_w.l(libinit2.o)(.ARM.Collect$$libinit$$00000015)
    __rt_lib_init_lc_numeric_2               0x080002b9   Thumb Code     0  C:\Keil_v5\ARM\ARMCC\Bin\..\lib\armlib\c_w.l(libinit2.o)(.ARM.Collect$$libinit$$00000016)
    __rt_lib_init_atexit_1                   0x080002c3   Thumb Code     0  C:\Keil_v5\ARM\ARMCC\Bin\..\lib\armlib\c_w.l(libinit2.o)(.ARM.Collect$$libinit$$0000001B)
    __rt_lib_init_clock_1                    0x080002c3   Thumb Code     0  C:\Keil_v5\ARM\ARMCC\Bin\..\lib\armlib\c_w.l(libinit2.o)(.ARM.Collect$$libinit$$00000021)
    __rt_lib_init_fp_trap_1                  0x080002c3   Thumb Code     0  C:\Keil_v5\ARM\ARMCC\Bin\..\lib\armlib\c_w.l(libinit2.o)(.ARM.Collect$$libinit$$0000001F)
    __rt_lib_init_getenv_1                   0x080002c3   Thumb Code     0  C:\Keil_v5\ARM\ARMCC\Bin\..\lib\armlib\c_w.l(libinit2.o)(.ARM.Collect$$libinit$$00000023)
    __rt_lib_init_lc_numeric_1               0x080002c3   Thumb Code     0  C:\Keil_v5\ARM\ARMCC\Bin\..\lib\armlib\c_w.l(libinit2.o)(.ARM.Collect$$libinit$$00000017)
    __rt_lib_init_lc_time_1                  0x080002c3   Thumb Code     0  C:\Keil_v5\ARM\ARMCC\Bin\..\lib\armlib\c_w.l(libinit2.o)(.ARM.Collect$$libinit$$00000019)
    __rt_lib_init_signal_1                   0x080002c3   Thumb Code     0  C:\Keil_v5\ARM\ARMCC\Bin\..\lib\armlib\c_w.l(libinit2.o)(.ARM.Collect$$libinit$$0000001D)
    __rt_lib_init_stdio_2                    0x080002c3   Thumb Code     0  C:\Keil_v5\ARM\ARMCC\Bin\..\lib\armlib\c_w.l(libinit2.o)(.ARM.Collect$$libinit$$00000024)
    __rt_lib_init_alloca_1                   0x080002c7   Thumb Code     0  C:\Keil_v5\ARM\ARMCC\Bin\..\lib\armlib\c_w.l(libinit2.o)(.ARM.Collect$$libinit$$0000002E)
    __rt_lib_init_argv_1                     0x080002c7   Thumb Code     0  C:\Keil_v5\ARM\ARMCC\Bin\..\lib\armlib\c_w.l(libinit2.o)(.ARM.Collect$$libinit$$0000002C)
    __rt_lib_init_cpp_2                      0x080002c7   Thumb Code     0  C:\Keil_v5\ARM\ARMCC\Bin\..\lib\armlib\c_w.l(libinit2.o)(.ARM.Collect$$libinit$$00000031)
    __rt_lib_init_exceptions_1               0x080002c7   Thumb Code     0  C:\Keil_v5\ARM\ARMCC\Bin\..\lib\armlib\c_w.l(libinit2.o)(.ARM.Collect$$libinit$$00000030)
    __rt_lib_init_stdio_1                    0x080002c7   Thumb Code     0  C:\Keil_v5\ARM\ARMCC\Bin\..\lib\armlib\c_w.l(libinit2.o)(.ARM.Collect$$libinit$$00000025)
    __rt_lib_init_cpp_1                      0x080002cb   Thumb Code     0  C:\Keil_v5\ARM\ARMCC\Bin\..\lib\armlib\c_w.l(libinit2.o)(.ARM.Collect$$libinit$$00000032)
    __rt_lib_init_return                     0x080002cb   Thumb Code     0  C:\Keil_v5\ARM\ARMCC\Bin\..\lib\armlib\c_w.l(libinit2.o)(.ARM.Collect$$libinit$$00000033)
    __rt_entry                               0x080002cd   Thumb Code     0  C:\Keil_v5\ARM\ARMCC\Bin\..\lib\armlib\c_w.l(__rtentry.o)(.ARM.Collect$$rtentry$$00000000)
    __rt_entry_presh_1                       0x080002cd   Thumb Code     0  C:\Keil_v5\ARM\ARMCC\Bin\..\lib\armlib\c_w.l(__rtentry2.o)(.ARM.Collect$$rtentry$$00000002)
    __rt_entry_sh                            0x080002cd   Thumb Code     0  C:\Keil_v5\ARM\ARMCC\Bin\..\lib\armlib\c_w.l(__rtentry4.o)(.ARM.Collect$$rtentry$$00000004)
    __rt_lib_shutdown_stdio_2                0x080002cd   Thumb Code     0  C:\Keil_v5\ARM\ARMCC\Bin\..\lib\armlib\c_w.l(libshutdown2.o)(.ARM.Collect$$libshutdown$$00000004)
    __rt_entry_postsh_1                      0x080002d3   Thumb Code     0  C:\Keil_v5\ARM\ARMCC\Bin\..\lib\armlib\c_w.l(__rtentry2.o)(.ARM.Collect$$rtentry$$00000008)
    __rt_entry_li                            0x080002db   Thumb Code     0  C:\Keil_v5\ARM\ARMCC\Bin\..\lib\armlib\c_w.l(__rtentry2.o)(.ARM.Collect$$rtentry$$0000000A)
    __rt_entry_main                          0x080002df   Thumb Code     0  C:\Keil_v5\ARM\ARMCC\Bin\..\lib\armlib\c_w.l(__rtentry2.o)(.ARM.Collect$$rtentry$$0000000D)
    __rt_entry_postli_1                      0x080002df   Thumb Code     0  C:\Keil_v5\ARM\ARMCC\Bin\..\lib\armlib\c_w.l(__rtentry2.o)(.ARM.Collect$$rtentry$$0000000C)
    HardFault_Handler                        0x080002e9   Thumb Code     6  mbed/TARGET_NUCLEO_F401RE/TOOLCHAIN_ARM_STD/except.o(.text)
    _maybe_terminate_alloc                   0x080002e9   Thumb Code     0  C:\Keil_v5\ARM\ARMCC\Bin\..\lib\armlib\c_w.l(maybetermalloc1.o)(.emb_text)
    MemManage_Handler                        0x080002ef   Thumb Code     6  mbed/TARGET_NUCLEO_F401RE/TOOLCHAIN_ARM_STD/except.o(.text)
    BusFault_Handler                         0x080002f5   Thumb Code     6  mbed/TARGET_NUCLEO_F401RE/TOOLCHAIN_ARM_STD/except.o(.text)
    UsageFault_Handler                       0x080002fb   Thumb Code     6  mbed/TARGET_NUCLEO_F401RE/TOOLCHAIN_ARM_STD/except.o(.text)
    Fault_Handler                            0x08000301   Thumb Code   168  mbed/TARGET_NUCLEO_F401RE/TOOLCHAIN_ARM_STD/except.o(.text)
    Reset_Handler                            0x080003ad   Thumb Code     8  mbed/TARGET_NUCLEO_F401RE/TOOLCHAIN_ARM_STD/startup_stm32f401xe.o(.text)
    NMI_Handler                              0x080003b5   Thumb Code     2  mbed/TARGET_NUCLEO_F401RE/TOOLCHAIN_ARM_STD/startup_stm32f401xe.o(.text)
    SVC_Handler                              0x080003bf   Thumb Code     2  mbed/TARGET_NUCLEO_F401RE/TOOLCHAIN_ARM_STD/startup_stm32f401xe.o(.text)
    DebugMon_Handler                         0x080003c1   Thumb Code     2  mbed/TARGET_NUCLEO_F401RE/TOOLCHAIN_ARM_STD/startup_stm32f401xe.o(.text)
    PendSV_Handler                           0x080003c3   Thumb Code     2  mbed/TARGET_NUCLEO_F401RE/TOOLCHAIN_ARM_STD/startup_stm32f401xe.o(.text)
    SysTick_Handler                          0x080003c5   Thumb Code     2  mbed/TARGET_NUCLEO_F401RE/TOOLCHAIN_ARM_STD/startup_stm32f401xe.o(.text)
    ADC_IRQHandler                           0x080003c7   Thumb Code     0  mbed/TARGET_NUCLEO_F401RE/TOOLCHAIN_ARM_STD/startup_stm32f401xe.o(.text)
    DMA1_Stream0_IRQHandler                  0x080003c7   Thumb Code     0  mbed/TARGET_NUCLEO_F401RE/TOOLCHAIN_ARM_STD/startup_stm32f401xe.o(.text)
    DMA1_Stream1_IRQHandler                  0x080003c7   Thumb Code     0  mbed/TARGET_NUCLEO_F401RE/TOOLCHAIN_ARM_STD/startup_stm32f401xe.o(.text)
    DMA1_Stream2_IRQHandler                  0x080003c7   Thumb Code     0  mbed/TARGET_NUCLEO_F401RE/TOOLCHAIN_ARM_STD/startup_stm32f401xe.o(.text)
    DMA1_Stream3_IRQHandler                  0x080003c7   Thumb Code     0  mbed/TARGET_NUCLEO_F401RE/TOOLCHAIN_ARM_STD/startup_stm32f401xe.o(.text)
    DMA1_Stream4_IRQHandler                  0x080003c7   Thumb Code     0  mbed/TARGET_NUCLEO_F401RE/TOOLCHAIN_ARM_STD/startup_stm32f401xe.o(.text)
    DMA1_Stream5_IRQHandler                  0x080003c7   Thumb Code     0  mbed/TARGET_NUCLEO_F401RE/TOOLCHAIN_ARM_STD/startup_stm32f401xe.o(.text)
    DMA1_Stream6_IRQHandler                  0x080003c7   Thumb Code     0  mbed/TARGET_NUCLEO_F401RE/TOOLCHAIN_ARM_STD/startup_stm32f401xe.o(.text)
    DMA1_Stream7_IRQHandler                  0x080003c7   Thumb Code     0  mbed/TARGET_NUCLEO_F401RE/TOOLCHAIN_ARM_STD/startup_stm32f401xe.o(.text)
    DMA2_Stream0_IRQHandler                  0x080003c7   Thumb Code     0  mbed/TARGET_NUCLEO_F401RE/TOOLCHAIN_ARM_STD/startup_stm32f401xe.o(.text)
    DMA2_Stream1_IRQHandler                  0x080003c7   Thumb Code     0  mbed/TARGET_NUCLEO_F401RE/TOOLCHAIN_ARM_STD/startup_stm32f401xe.o(.text)
    DMA2_Stream2_IRQHandler                  0x080003c7   Thumb Code     0  mbed/TARGET_NUCLEO_F401RE/TOOLCHAIN_ARM_STD/startup_stm32f401xe.o(.text)
    DMA2_Stream3_IRQHandler                  0x080003c7   Thumb Code     0  mbed/TARGET_NUCLEO_F401RE/TOOLCHAIN_ARM_STD/startup_stm32f401xe.o(.text)
    DMA2_Stream4_IRQHandler                  0x080003c7   Thumb Code     0  mbed/TARGET_NUCLEO_F401RE/TOOLCHAIN_ARM_STD/startup_stm32f401xe.o(.text)
    DMA2_Stream5_IRQHandler                  0x080003c7   Thumb Code     0  mbed/TARGET_NUCLEO_F401RE/TOOLCHAIN_ARM_STD/startup_stm32f401xe.o(.text)
    DMA2_Stream6_IRQHandler                  0x080003c7   Thumb Code     0  mbed/TARGET_NUCLEO_F401RE/TOOLCHAIN_ARM_STD/startup_stm32f401xe.o(.text)
    DMA2_Stream7_IRQHandler                  0x080003c7   Thumb Code     0  mbed/TARGET_NUCLEO_F401RE/TOOLCHAIN_ARM_STD/startup_stm32f401xe.o(.text)
    EXTI0_IRQHandler                         0x080003c7   Thumb Code     0  mbed/TARGET_NUCLEO_F401RE/TOOLCHAIN_ARM_STD/startup_stm32f401xe.o(.text)
    EXTI15_10_IRQHandler                     0x080003c7   Thumb Code     0  mbed/TARGET_NUCLEO_F401RE/TOOLCHAIN_ARM_STD/startup_stm32f401xe.o(.text)
    EXTI1_IRQHandler                         0x080003c7   Thumb Code     0  mbed/TARGET_NUCLEO_F401RE/TOOLCHAIN_ARM_STD/startup_stm32f401xe.o(.text)
    EXTI2_IRQHandler                         0x080003c7   Thumb Code     0  mbed/TARGET_NUCLEO_F401RE/TOOLCHAIN_ARM_STD/startup_stm32f401xe.o(.text)
    EXTI3_IRQHandler                         0x080003c7   Thumb Code     0  mbed/TARGET_NUCLEO_F401RE/TOOLCHAIN_ARM_STD/startup_stm32f401xe.o(.text)
    EXTI4_IRQHandler                         0x080003c7   Thumb Code     0  mbed/TARGET_NUCLEO_F401RE/TOOLCHAIN_ARM_STD/startup_stm32f401xe.o(.text)
    EXTI9_5_IRQHandler                       0x080003c7   Thumb Code     0  mbed/TARGET_NUCLEO_F401RE/TOOLCHAIN_ARM_STD/startup_stm32f401xe.o(.text)
    FLASH_IRQHandler                         0x080003c7   Thumb Code     0  mbed/TARGET_NUCLEO_F401RE/TOOLCHAIN_ARM_STD/startup_stm32f401xe.o(.text)
    FPU_IRQHandler                           0x080003c7   Thumb Code     0  mbed/TARGET_NUCLEO_F401RE/TOOLCHAIN_ARM_STD/startup_stm32f401xe.o(.text)
    I2C1_ER_IRQHandler                       0x080003c7   Thumb Code     0  mbed/TARGET_NUCLEO_F401RE/TOOLCHAIN_ARM_STD/startup_stm32f401xe.o(.text)
    I2C1_EV_IRQHandler                       0x080003c7   Thumb Code     0  mbed/TARGET_NUCLEO_F401RE/TOOLCHAIN_ARM_STD/startup_stm32f401xe.o(.text)
    I2C2_ER_IRQHandler                       0x080003c7   Thumb Code     0  mbed/TARGET_NUCLEO_F401RE/TOOLCHAIN_ARM_STD/startup_stm32f401xe.o(.text)
    I2C2_EV_IRQHandler                       0x080003c7   Thumb Code     0  mbed/TARGET_NUCLEO_F401RE/TOOLCHAIN_ARM_STD/startup_stm32f401xe.o(.text)
    I2C3_ER_IRQHandler                       0x080003c7   Thumb Code     0  mbed/TARGET_NUCLEO_F401RE/TOOLCHAIN_ARM_STD/startup_stm32f401xe.o(.text)
    I2C3_EV_IRQHandler                       0x080003c7   Thumb Code     0  mbed/TARGET_NUCLEO_F401RE/TOOLCHAIN_ARM_STD/startup_stm32f401xe.o(.text)
    OTG_FS_IRQHandler                        0x080003c7   Thumb Code     0  mbed/TARGET_NUCLEO_F401RE/TOOLCHAIN_ARM_STD/startup_stm32f401xe.o(.text)
    OTG_FS_WKUP_IRQHandler                   0x080003c7   Thumb Code     0  mbed/TARGET_NUCLEO_F401RE/TOOLCHAIN_ARM_STD/startup_stm32f401xe.o(.text)
    PVD_IRQHandler                           0x080003c7   Thumb Code     0  mbed/TARGET_NUCLEO_F401RE/TOOLCHAIN_ARM_STD/startup_stm32f401xe.o(.text)
    RCC_IRQHandler                           0x080003c7   Thumb Code     0  mbed/TARGET_NUCLEO_F401RE/TOOLCHAIN_ARM_STD/startup_stm32f401xe.o(.text)
    RTC_Alarm_IRQHandler                     0x080003c7   Thumb Code     0  mbed/TARGET_NUCLEO_F401RE/TOOLCHAIN_ARM_STD/startup_stm32f401xe.o(.text)
    RTC_WKUP_IRQHandler                      0x080003c7   Thumb Code     0  mbed/TARGET_NUCLEO_F401RE/TOOLCHAIN_ARM_STD/startup_stm32f401xe.o(.text)
    SDIO_IRQHandler                          0x080003c7   Thumb Code     0  mbed/TARGET_NUCLEO_F401RE/TOOLCHAIN_ARM_STD/startup_stm32f401xe.o(.text)
    SPI1_IRQHandler                          0x080003c7   Thumb Code     0  mbed/TARGET_NUCLEO_F401RE/TOOLCHAIN_ARM_STD/startup_stm32f401xe.o(.text)
    SPI2_IRQHandler                          0x080003c7   Thumb Code     0  mbed/TARGET_NUCLEO_F401RE/TOOLCHAIN_ARM_STD/startup_stm32f401xe.o(.text)
    SPI3_IRQHandler                          0x080003c7   Thumb Code     0  mbed/TARGET_NUCLEO_F401RE/TOOLCHAIN_ARM_STD/startup_stm32f401xe.o(.text)
    SPI4_IRQHandler                          0x080003c7   Thumb Code     0  mbed/TARGET_NUCLEO_F401RE/TOOLCHAIN_ARM_STD/startup_stm32f401xe.o(.text)
    TAMP_STAMP_IRQHandler                    0x080003c7   Thumb Code     0  mbed/TARGET_NUCLEO_F401RE/TOOLCHAIN_ARM_STD/startup_stm32f401xe.o(.text)
    TIM1_BRK_TIM9_IRQHandler                 0x080003c7   Thumb Code     0  mbed/TARGET_NUCLEO_F401RE/TOOLCHAIN_ARM_STD/startup_stm32f401xe.o(.text)
    TIM1_CC_IRQHandler                       0x080003c7   Thumb Code     0  mbed/TARGET_NUCLEO_F401RE/TOOLCHAIN_ARM_STD/startup_stm32f401xe.o(.text)
    TIM1_TRG_COM_TIM11_IRQHandler            0x080003c7   Thumb Code     0  mbed/TARGET_NUCLEO_F401RE/TOOLCHAIN_ARM_STD/startup_stm32f401xe.o(.text)
    TIM1_UP_TIM10_IRQHandler                 0x080003c7   Thumb Code     0  mbed/TARGET_NUCLEO_F401RE/TOOLCHAIN_ARM_STD/startup_stm32f401xe.o(.text)
    TIM2_IRQHandler                          0x080003c7   Thumb Code     0  mbed/TARGET_NUCLEO_F401RE/TOOLCHAIN_ARM_STD/startup_stm32f401xe.o(.text)
    TIM3_IRQHandler                          0x080003c7   Thumb Code     0  mbed/TARGET_NUCLEO_F401RE/TOOLCHAIN_ARM_STD/startup_stm32f401xe.o(.text)
    TIM4_IRQHandler                          0x080003c7   Thumb Code     0  mbed/TARGET_NUCLEO_F401RE/TOOLCHAIN_ARM_STD/startup_stm32f401xe.o(.text)
    TIM5_IRQHandler                          0x080003c7   Thumb Code     0  mbed/TARGET_NUCLEO_F401RE/TOOLCHAIN_ARM_STD/startup_stm32f401xe.o(.text)
    USART1_IRQHandler                        0x080003c7   Thumb Code     0  mbed/TARGET_NUCLEO_F401RE/TOOLCHAIN_ARM_STD/startup_stm32f401xe.o(.text)
    USART2_IRQHandler                        0x080003c7   Thumb Code     0  mbed/TARGET_NUCLEO_F401RE/TOOLCHAIN_ARM_STD/startup_stm32f401xe.o(.text)
    USART6_IRQHandler                        0x080003c7   Thumb Code     0  mbed/TARGET_NUCLEO_F401RE/TOOLCHAIN_ARM_STD/startup_stm32f401xe.o(.text)
    WWDG_IRQHandler                          0x080003c7   Thumb Code     0  mbed/TARGET_NUCLEO_F401RE/TOOLCHAIN_ARM_STD/startup_stm32f401xe.o(.text)
    __aeabi_errno_addr                       0x080003d1   Thumb Code     8  C:\Keil_v5\ARM\ARMCC\Bin\..\lib\armlib\c_w.l(rt_errno_addr.o)(.text)
    __errno                                  0x080003d1   Thumb Code     0  C:\Keil_v5\ARM\ARMCC\Bin\..\lib\armlib\c_w.l(rt_errno_addr.o)(.text)
    __rt_errno_addr                          0x080003d1   Thumb Code     0  C:\Keil_v5\ARM\ARMCC\Bin\..\lib\armlib\c_w.l(rt_errno_addr.o)(.text)
    malloc                                   0x080003d9   Thumb Code    94  C:\Keil_v5\ARM\ARMCC\Bin\..\lib\armlib\c_w.l(h1_alloc.o)(.text)
    free                                     0x08000437   Thumb Code    78  C:\Keil_v5\ARM\ARMCC\Bin\..\lib\armlib\c_w.l(h1_free.o)(.text)
    __aeabi_uldivmod                         0x08000485   Thumb Code     0  C:\Keil_v5\ARM\ARMCC\Bin\..\lib\armlib\c_w.l(lludivv7m.o)(.text)
    _ll_udiv                                 0x08000485   Thumb Code   238  C:\Keil_v5\ARM\ARMCC\Bin\..\lib\armlib\c_w.l(lludivv7m.o)(.text)
    __aeabi_llsl                             0x08000573   Thumb Code     0  C:\Keil_v5\ARM\ARMCC\Bin\..\lib\armlib\c_w.l(llshl.o)(.text)
    _ll_shift_l                              0x08000573   Thumb Code    38  C:\Keil_v5\ARM\ARMCC\Bin\..\lib\armlib\c_w.l(llshl.o)(.text)
    __aeabi_llsr                             0x08000599   Thumb Code     0  C:\Keil_v5\ARM\ARMCC\Bin\..\lib\armlib\c_w.l(llushr.o)(.text)
    _ll_ushift_r                             0x08000599   Thumb Code    38  C:\Keil_v5\ARM\ARMCC\Bin\..\lib\armlib\c_w.l(llushr.o)(.text)
    vfprintf                                 0x080005bf   Thumb Code    10  C:\Keil_v5\ARM\ARMCC\Bin\..\lib\armlib\c_w.l(vfprintf.o)(.text)
    vsnprintf                                0x080005c9   Thumb Code    48  C:\Keil_v5\ARM\ARMCC\Bin\..\lib\armlib\c_w.l(vsnprintf.o)(.text)
    _do_fflush                               0x080005fd   Thumb Code    54  C:\Keil_v5\ARM\ARMCC\Bin\..\lib\armlib\c_w.l(fflush.o)(.text)
    fflush                                   0x08000633   Thumb Code    42  C:\Keil_v5\ARM\ARMCC\Bin\..\lib\armlib\c_w.l(fflush.o)(.text)
    freopen                                  0x08000661   Thumb Code   158  C:\Keil_v5\ARM\ARMCC\Bin\..\lib\armlib\c_w.l(fopen.o)(.text)
    fopen                                    0x080006ff   Thumb Code    74  C:\Keil_v5\ARM\ARMCC\Bin\..\lib\armlib\c_w.l(fopen.o)(.text)
    strspn                                   0x0800074d   Thumb Code    28  C:\Keil_v5\ARM\ARMCC\Bin\..\lib\armlib\c_w.l(strspn.o)(.text)
    memcmp                                   0x08000769   Thumb Code    88  C:\Keil_v5\ARM\ARMCC\Bin\..\lib\armlib\c_w.l(memcmp.o)(.text)
    strlen                                   0x080007c1   Thumb Code    62  C:\Keil_v5\ARM\ARMCC\Bin\..\lib\armlib\c_w.l(strlen.o)(.text)
    __aeabi_memcpy4                          0x080007ff   Thumb Code     0  C:\Keil_v5\ARM\ARMCC\Bin\..\lib\armlib\c_w.l(rt_memcpy_w.o)(.text)
    __aeabi_memcpy8                          0x080007ff   Thumb Code     0  C:\Keil_v5\ARM\ARMCC\Bin\..\lib\armlib\c_w.l(rt_memcpy_w.o)(.text)
    __rt_memcpy_w                            0x080007ff   Thumb Code   100  C:\Keil_v5\ARM\ARMCC\Bin\..\lib\armlib\c_w.l(rt_memcpy_w.o)(.text)
    _memcpy_lastbytes_aligned                0x08000847   Thumb Code     0  C:\Keil_v5\ARM\ARMCC\Bin\..\lib\armlib\c_w.l(rt_memcpy_w.o)(.text)
    __aeabi_memclr4                          0x08000863   Thumb Code     0  C:\Keil_v5\ARM\ARMCC\Bin\..\lib\armlib\c_w.l(rt_memclr_w.o)(.text)
    __aeabi_memclr8                          0x08000863   Thumb Code     0  C:\Keil_v5\ARM\ARMCC\Bin\..\lib\armlib\c_w.l(rt_memclr_w.o)(.text)
    __rt_memclr_w                            0x08000863   Thumb Code    78  C:\Keil_v5\ARM\ARMCC\Bin\..\lib\armlib\c_w.l(rt_memclr_w.o)(.text)
    _memset_w                                0x08000867   Thumb Code     0  C:\Keil_v5\ARM\ARMCC\Bin\..\lib\armlib\c_w.l(rt_memclr_w.o)(.text)
    strcmp                                   0x080008b1   Thumb Code   128  C:\Keil_v5\ARM\ARMCC\Bin\..\lib\armlib\c_w.l(strcmpv7m.o)(.text)
    __cpp_initialize__aeabi_                 0x08000931   Thumb Code    26  C:\Keil_v5\ARM\ARMCC\Bin\..\lib\armlib\c_w.l(init_aeabi.o)(.text)
    __rt_heap_descriptor                     0x08000955   Thumb Code     8  C:\Keil_v5\ARM\ARMCC\Bin\..\lib\armlib\c_w.l(rt_heap_descriptor.o)(.text)
    __use_no_heap                            0x0800095d   Thumb Code     2  C:\Keil_v5\ARM\ARMCC\Bin\..\lib\armlib\c_w.l(hguard.o)(.text)
    __heap$guard                             0x0800095f   Thumb Code     2  C:\Keil_v5\ARM\ARMCC\Bin\..\lib\armlib\c_w.l(hguard.o)(.text)
    _terminate_user_alloc                    0x08000961   Thumb Code     2  C:\Keil_v5\ARM\ARMCC\Bin\..\lib\armlib\c_w.l(init_alloc.o)(.text)
    _init_user_alloc                         0x08000963   Thumb Code     2  C:\Keil_v5\ARM\ARMCC\Bin\..\lib\armlib\c_w.l(init_alloc.o)(.text)
    __Heap_Full                              0x08000965   Thumb Code    34  C:\Keil_v5\ARM\ARMCC\Bin\..\lib\armlib\c_w.l(init_alloc.o)(.text)
    __Heap_Broken                            0x08000987   Thumb Code     6  C:\Keil_v5\ARM\ARMCC\Bin\..\lib\armlib\c_w.l(init_alloc.o)(.text)
    _init_alloc                              0x0800098d   Thumb Code    94  C:\Keil_v5\ARM\ARMCC\Bin\..\lib\armlib\c_w.l(init_alloc.o)(.text)
    __Heap_Initialize                        0x080009eb   Thumb Code    10  C:\Keil_v5\ARM\ARMCC\Bin\..\lib\armlib\c_w.l(h1_init.o)(.text)
